:020000040800F2
:1000000000280020AD2C0008FD2C0008FD2C000865
:10001000FD2C0008FD2C0008FD2C0008000000004D
:10002000000000000000000000000000FD2C00089F
:10003000FD2C000800000000FD2C0008FD2C00082D
:10004000FD2C0008FD2C0008FD2C0008FD2C0008EC
:10005000FD2C0008FD2C0008FD2C0008FD2C0008DC
:10006000FD2C0008FD2C0008FD2C0008FD2C0008CC
:10007000FD2C0008FD2C0008FD2C0008FD2C0008BC
:10008000FD2C0008FD2C0008FD2C0008FD2C0008AC
:10009000FD2C0008FD2C0008FD2C0008FD2C00089C
:1000A000FD2C0008FD2C0008FD2C0008FD2C00088C
:1000B000FD2C0008FD2C0008FD2C0008FD2C00087C
:1000C000FD2C0008FD2C0008FD2C000885240008EC
:1000D000E1240008B12B0008E92B0008212C0008BE
:1000E000FD2C0008FD2C000800000000FD2C00087D
:1000F000FD2C0008FD2C0008FD2C0008FD2C00083C
:10010000FD2C0008FD2C0008FD2C0008FD2C00082B
:10011000FD2C0008FD2C0008FD2C0008FD2C00081B
:10012000FD2C0008FD2C0008FD2C0008FD2C00080B
:1001300010B5054C237833B9044B13B10448AFF321
:1001400000800123237010BD40000020000000004B
:10015000F82D000808B5034B1BB103490348AFF362
:10016000008008BD0000000044000020F82D0008B9
:1001700081F0004102E000BF83F0004330B54FEA58
:1001800041044FEA430594EA050F08BF90EA020FC5
:100190001FBF54EA000C55EA020C7FEA645C7FEA58
:1001A000655C00F0E2804FEA5454D4EB5555B8BF7B
:1001B0006D420CDD2C4480EA020281EA030382EAEC
:1001C000000083EA010180EA020281EA0303362D7E
:1001D00088BF30BD11F0004F4FEA01314FF4801C51
:1001E0004CEA113102D0404261EB410113F0004F63
:1001F0004FEA03334CEA133302D0524263EB43031A
:1002000094EA050F00F0A780A4F10104D5F1200EB7
:100210000DDB02FA0EFC22FA05F2801841F1000112
:1002200003FA0EF2801843FA05F359410EE0A5F1E6
:1002300020050EF1200E012A03FA0EFC28BF4CF017
:10024000020C43FA05F3C01851EBE37101F00045CD
:1002500007D54FF0000EDCF1000C7EEB00006EEBDA
:100260000101B1F5801F1BD3B1F5001F0CD3490864
:100270005FEA30004FEA3C0C04F101044FEA4452BB
:1002800012F5800F80F09A80BCF1004F08BF5FEA42
:10029000500C50F1000041EB045141EA050130BD22
:1002A0005FEA4C0C404141EB010111F4801FA4F1C5
:1002B0000104E9D191F0000F04BF01460020B1FA1A
:1002C00081F308BF2033A3F10B03B3F120020CDA52
:1002D0000C3208DD02F1140CC2F10C0201FA0CF030
:1002E00021FA02F10CE002F11402D8BFC2F1200C95
:1002F00001FA02F120FA0CFCDCBF41EA0C0190404B
:10030000E41AA2BF01EB0451294330BD6FEA040493
:100310001F3C1CDA0C340EDC04F11404C4F120027E
:1003200020FA04F001FA02F340EA030021FA04F390
:1003300045EA030130BDC4F10C04C4F1200220FAE7
:1003400002F001FA04F340EA0300294630BD21FA25
:1003500004F0294630BD94F0000F83F4801306BFEB
:1003600081F480110134013D4EE77FEA645C18BFDF
:100370007FEA655C29D094EA050F08BF90EA020F76
:1003800005D054EA000C04BF1946104630BD91EA6E
:10039000030F1EBF0021002030BD5FEA545C05D171
:1003A0004000494128BF41F0004130BD14F58004B0
:1003B0003CBF01F5801130BD01F0004545F0FE4124
:1003C00041F470014FF0000030BD7FEA645C1ABF59
:1003D000194610467FEA655C1CBF0B46024650EA90
:1003E000013406BF52EA033591EA030F41F40021BC
:1003F00030BD00BF90F0000F04BF0021704730B542
:100400004FF4806404F132044FF000054FF0000116
:1004100050E700BF90F0000F04BF0021704730B5D7
:100420004FF4806404F1320410F0004548BF4042AC
:100430004FF000013EE700BF42004FEAE2014FEA01
:1004400031014FEA02701FBF12F07F4393F07F4FDC
:1004500081F06051704732F07F4208BF704793F0DF
:100460007F4F04BF41F40021704730B54FF46074F2
:1004700001F0004521F000411CE700BF50EA0102F5
:1004800008BF704730B54FF000050AE050EA01029E
:1004900008BF704730B511F0004502D5404261EB0E
:1004A00041014FF4806404F132045FEA915C3FF44F
:1004B000D8AE4FF003025FEADC0C18BF03325FEAEC
:1004C000DC0C18BF033202EBDC02C2F1200300FA9D
:1004D00003FC20FA02F001FA03FE40EA0E0021FAC2
:1004E00002F11444BDE600BF70B54FF0FF0C4CF4B0
:1004F000E06C1CEA11541DBF1CEA135594EA0C0F62
:1005000095EA0C0F00F0DEF82C4481EA030621EA9C
:100510004C5123EA4C5350EA013518BF52EA0335D7
:1005200041F4801143F4801338D0A0FB02CE4FF089
:100530000005E1FB02E506F00042E0FB03E54FF0B9
:100540000006E1FB03569CF0000F18BF4EF0010EB1
:10055000A4F1FF04B6F5007F64F5407404D25FEAAD
:100560004E0E6D4146EB060642EAC62141EA555160
:100570004FEAC52040EA5E504FEACE2EB4F1FD0CA2
:1005800088BFBCF5E06F1ED8BEF1004F08BF5FEA20
:10059000500E50F1000041EB045170BD06F00046D2
:1005A00046EA010140EA020081EA0301B4EB5C047F
:1005B000C2BFD4EB0C0541EA045170BD41F4801177
:1005C0004FF0000E013C00F3AB8014F1360FDEBF9C
:1005D000002001F0004170BDC4F10004203C35DA78
:1005E0000C341BDC04F11404C4F1200500FA05F3FB
:1005F00020FA04F001FA05F240EA020001F000429C
:1006000021F0004110EBD37021FA04F642EB060111
:100610005EEA430E08BF20EAD37070BDC4F10C043B
:10062000C4F1200500FA04F320FA05F001FA04F2FF
:1006300040EA020001F0004110EBD37041F10001EB
:100640005EEA430E08BF20EAD37070BDC4F12005F6
:1006500000FA05F24EEA020E20FA04F301FA05F25E
:1006600043EA020321FA04F001F0004121FA04F206
:1006700020EA020000EBD3705EEA430E08BF20EAD6
:10068000D37070BD94F0000F0FD101F00046400010
:1006900041EB010111F4801F08BF013CF7D041EA92
:1006A000060195F0000F18BF704703F00046520096
:1006B00043EB030313F4801F08BF013DF7D043EA67
:1006C0000603704794EA0C0F0CEA135518BF95EA1D
:1006D0000C0F0CD050EA410618BF52EA4306D1D1A4
:1006E00081EA030101F000414FF0000070BD50EAC3
:1006F000410606BF1046194652EA430619D094EA4D
:100700000C0F02D150EA013613D195EA0C0F05D136
:1007100052EA03361CBF104619460AD181EA03018A
:1007200001F0004141F0FE4141F470014FF0000042
:1007300070BD41F0FE4141F4780170BD70B54FF0DD
:10074000FF0C4CF4E06C1CEA11541DBF1CEA13555D
:1007500094EA0C0F95EA0C0F00F0A7F8A4EB05043F
:1007600081EA030E52EA03354FEA013100F0888036
:100770004FEA03334FF0805545EA131343EA1263FF
:100780004FEA022245EA111545EA10654FEA0026B4
:100790000EF000419D4208BF964244F1FD0404F56D
:1007A000407402D25B084FEA3202B61A65EB0305C9
:1007B0005B084FEA32024FF480104FF4002CB6EB86
:1007C000020E75EB030E22BFB61A754640EA0C0006
:1007D0005B084FEA3202B6EB020E75EB030E22BF46
:1007E000B61A754640EA5C005B084FEA3202B6EB87
:1007F000020E75EB030E22BFB61A754640EA9C0046
:100800005B084FEA3202B6EB020E75EB030E22BF15
:10081000B61A754640EADC0055EA060E18D04FEAD3
:10082000051545EA16754FEA06164FEAC30343EA73
:1008300052734FEAC2025FEA1C1CC0D111F4801F40
:100840000BD141EA00014FF000004FF0004CB6E739
:1008500011F4801F04BF01430020B4F1FD0C88BFD8
:10086000BCF5E06F3FF6AFAEB5EB030C04BFB6EBE3
:10087000020C5FEA500C50F1000041EB045170BDD6
:100880000EF0004E4EEA113114EB5C04C2BFD4EB03
:100890000C0541EA045170BD41F480114FF0000E87
:1008A000013C90E645EA060E8DE60CEA135594EA03
:1008B0000C0F08BF95EA0C0F3FF43BAF94EA0C0F06
:1008C0000AD150EA01347FF434AF95EA0C0F7FF47B
:1008D00025AF104619462CE795EA0C0F06D152EACF
:1008E00003353FF4FDAE1046194622E750EA4106B3
:1008F00018BF52EA43067FF4C5AE50EA41047FF4C4
:100900000DAF52EA43057FF4EBAE12E74A0011D275
:1009100012F5001211D20DD56FF47873B3EB625259
:100920000ED44FEAC12343F0004343EA505323FA65
:1009300002F070474FF00000704750EA013002D1DA
:100940004FF0FF3070474FF00000704780B485B023
:1009500000AF78607B68FB600CE04FF47A73BB609B
:1009600002E0BB68013BBB60BB68002BF9D1FB68B0
:10097000013BFB60FB68002BEFD100BF1437BD4685
:1009800080BC704780B400AF2F4B4D221A702E4BA5
:100990006F225A702C4B68229A702B4B6122DA70AE
:1009A000294B6D221A71284B65225A71264B6422FD
:1009B0009A71254B00229A74234B3022DA72224B13
:1009C00030221A73204B30225A731F4B30229A73F5
:1009D0001D4B3022DA731C4B30221A741A4B312211
:1009E0005A74194B00229A74174B61229A75164B50
:1009F0006C22DA75144B69221A76134B00225A7650
:100A0000114B312283F821200F4B322283F8222010
:100A10000D4B332283F823200B4B342283F8242000
:100A2000094B352283F82520074B362283F82620F0
:100A3000054B372283F82720034B002283F8282018
:100A400000BFBD4680BC7047A400002080B588B0C0
:100A500000AF00237B830023FB8307F10C030022FC
:100A60001A605A60C3F807203B1D00221A605A60C2
:100A700000237B770C21714801F024F96F4801F0C5
:100A800065F96F496D4801F000F9012200216B48BA
:100A900001F027F90F21694801F014F907F11A0351
:100AA0001946002001F01AFE07F11A03194600202A
:100AB00001F0BCFD7A8BFB8BD2B207F120010B4415
:100AC00003F8142C7B8BDBB219465C4801F000F86C
:100AD000FB8B0133FB83FB8B0A2B02D87B8B0D2B0B
:100AE000DCD1FB8B013B07F120021344002203F809
:100AF000142C0C21514801F0E5F8022200214F4846
:100B000001F0EFF84F494D4801F0BFF803220021F2
:100B10004A4801F0E6F80023FB830F21474801F023
:100B2000D1F807F11A031946002001F0D7FD07F1AB
:100B30001A031946002001F079FD7A8BFB8BD2B2A3
:100B400007F120010B4403F81C2C2A213B4800F03C
:100B5000BFFFFB8B0133FB83FB8B072B02D87B8B07
:100B60000D2BDED1FB8B013B07F120021344002249
:100B700003F81C2C07F10C033349184600F022FB44
:100B80000346002B35D13B1D3049184600F01AFBB7
:100B90000346002B0AD101237B772D4B00221A70CC
:100BA00000222C49002002F059F841E0234801F0CE
:100BB000CDF801220221214801F093F826491F486F
:100BC00001F063F8022204211C4801F08AF823494D
:100BD0001A4801F05AF80A20FFF7B8FE00237B7785
:100BE00000221F49002002F039F8194B01221A7027
:100BF0001EE0124801F0AAF8012202210F4801F07C
:100C000070F815490D4801F040F8022206210B4802
:100C100001F067F81349094801F037F8002210493C
:100C2000002002F01BF80A4B01221A7000237B7788
:100C30007B7F18462037BD4680BD00BF5C0000208A
:100C4000102E0008202E0008A4000020AF00002075
:100C500000000020302E00087C2E0008882E00089E
:100C6000942E0008E42E000890B583B000AF7C4BB2
:100C70001B78022B00F2D7800023BB800023BB71BE
:100C80000023BB7110E0BB79764AD35C012B08D1FD
:100C9000BB79FB71BB79734A0021D1540023BB712E
:100CA00005E0BB790133BB71BB79022BEBD90C2179
:100CB0006D4801F007F86C4801F048F800226B49D4
:100CC000002001F0CBFF6A49674800F0DEFF0122F7
:100CD0000021654801F005F80F21634800F0F2FF9C
:100CE0002AE03B1D1946002001F0F8FCBB88602B70
:100CF00002D9BB887A2B05D9BB88402B1CD9BB886D
:100D00005A2B19D83B1D1946002001F08FFCBB88D7
:100D1000DBB21946544800F0DBFEB988FA79BB799A
:100D2000CCB25449162000FB02F20A441344224676
:100D30001A70BB790133BB71BB880D2B02D0BB7914
:100D40000A2BCED9FA79BB790133BB71BB794949FA
:100D5000162000FB02F20A44134400221A700022FB
:100D60004549002001F07AFF0C213F4800F0AAFF1E
:100D7000022200213C4800F0B4FF40493A4800F00C
:100D800084FF03220021384800F0ABFF0023BB7131
:100D90000023BB800F21344800F094FF3B1D19460F
:100DA000002001F09BFCBB882F2B1DD9BB88392B61
:100DB0001AD83B1D1946002001F038FCBB88DBB275
:100DC0001946294800F084FEB988FA79BB79CCB27B
:100DD0002849162000FB02F20A4413440B33224632
:100DE0001A70BB790133BB71BB79072B02D8BB8862
:100DF0000D2BD3D1FA79BB791E49162000FB02F2E4
:100E00000A4413440B3300221A70154B1B7801332C
:100E1000DAB2134B1A7000221949002001F01EFFAC
:100E200000F08AFB18E00C210F4800F04BFF0E4841
:100E300000F08CFF13490C4800F027FF012202212B
:100E4000094800F04EFF1049074800F01EFFC82077
:100E5000FFF77CFD00F0C2FA00BF0C37BD4690BD25
:100E6000D0000020040000205C000020EC2E0008D0
:100E70003C2F0008D40000204C2F0008502F000801
:100E80005C2F00089C2F0008AC2F000880B58AB0AA
:100E900000AF0346FB71BD4B1B78002B00F04F8168
:100EA000002387F82730FB79002B40F02B810C21A1
:100EB000B74800F007FFB64800F048FF0022B549E8
:100EC000002001F0CBFEB449B14800F0DEFE012263
:100ED0000021AF4800F005FF0F21AD4800F0F2FE01
:100EE0000023FB812BE007F10E031946002001F0DF
:100EF000F5FBFB89602B02D9FB897A2B05D9FB898D
:100F0000402B1CD9FB895A2B19D807F10E0319461F
:100F1000002001F08BFBFB89DBB219469C4800F0F6
:100F2000D7FDFA8997F82730D2B207F128010B4490
:100F300003F8102C97F82730013387F82730FB8906
:100F40000D2B03D097F827300A2BCCD997F82730F0
:100F500007F128021344002203F8102C0023FB8120
:100F6000002387F8273000228C49002001F076FE0C
:100F70000C21874800F0A6FE02220021844800F0E0
:100F8000B0FE8749824800F080FE0322002180489D
:100F900000F0A7FE002387F827300023FB810F21F4
:100FA0007B4800F08FFE07F10E031946002001F088
:100FB00095FBFB892F2B1CD9FB89392B19D807F1FD
:100FC0000E031946002001F031FBFB89DBB2194604
:100FD0006F4800F07DFDFA8997F82730D2B207F10B
:100FE00028010B4403F8182C97F82730013387F8B1
:100FF000273097F82730072B02D8FB890D2BD2D149
:1010000097F8273007F128021344002203F8182C20
:10101000002387F82730012387F826300A2387F832
:101020002530002387F827301DE097F82730162257
:1010300002FB03F35B4A1A4407F1180311461846F2
:1010400000F0C0F8034687F8263097F82630002BCA
:1010500004D197F8273087F825300AE097F8273031
:10106000013387F82730494B1B7897F827209A429D
:10107000DBD397F82630002B19D1444B1B7897F817
:1010800025209A4213D3012387F8263097F825307C
:10109000162202FB03F30B33424A1A4407F11003F2
:1010A0001146184600F08EF8034687F8263097F868
:1010B0002630002B12D197F825303B4A0121D1541C
:1010C000324B1B78013BDAB2304B1A7000223749A1
:1010D000002001F0C3FD00F04FFA52E02C4800F070
:1010E00035FE022202212A4800F0FBFD3049284843
:1010F00000F0CBFD00222F49002001F0AFFD00F0F1
:101100006DF93EE0002387F8273009E097F8273093
:10111000254A0121D15497F82730013387F8273029
:1011200097F82730022BF1D9184B00221A700022B1
:101130001E49002001F092FD00F01EFA21E00C2172
:10114000134800F0BFFD124800F000FE1A49104895
:1011500000F09BFD012202210D4800F0C2FD17495D
:101160000B4800F092FD02220221094800F0B9FD6F
:101170001349074800F089FDC820FFF7E7FB00F09E
:101180002DF900BF2837BD4680BD00BFD00000202C
:101190005C000020BC2F00083C2F00084C2F0008EA
:1011A000502F0008D4000020040000200830000860
:1011B00050300008603000089C2F0008A83000085C
:1011C000B830000880B485B000AF78603960002383
:1011D000FB730023BB730FE0FB7B7A6813441A7820
:1011E000FB7B39680B441B789A4202D00123BB7306
:1011F0000EE0FB7B0133FB73FB7B7A6813441B78A7
:10120000002B05D0FB7B3A6813441B78002BE3D1FD
:10121000BB7B18461437BD4680BC704780B500AF15
:10122000064B04221A70054B10225A70034B044AD5
:101230005A60024800F0E6FB00BF80BD5C00002061
:101240000800002080B500AF002001F0B3FB154B73
:101250000C221A70134B4FF416525A60114B002295
:101260001A81104B00225A810E4B00229A810D4B9D
:101270000022DA810B4B00221A820A4B00225A828A
:10128000084B00229A61074B0022DA8205490020B0
:1012900001F054F900220449002001F0DFFC00BFF6
:1012A00080BD00BF64000020C830000880B584B055
:1012B00000AF78600B46FB7013463B8002221D494D
:1012C000786800F056FD01220421786800F009FDDD
:1012D0001949786800F0D9FC02220021786800F0F2
:1012E00000FDFB781B01154A82FB03125211DB172C
:1012F000D31AFB700023FB600AE00221786800F03B
:10130000E7FB3B881846FFF721FBFB680133FB60D6
:10131000FB78FA689A42F0DB03220621786800F035
:10132000E0FC0749786800F0B0FC00BF1037BD460C
:1013300080BD00BF14000020143100081F85EB5150
:101340002031000880B584B000AF78600B46FB7098
:1013500013463B8004221D49786800F00AFD0122F3
:101360000521786800F0BDFC1949786800F08DFC13
:1013700002220021786800F0B4FCFB781B01154ABA
:1013800082FB03125211DB17D31AFB700023FB60A0
:101390000AE00421786800F09BFB3B881846FFF7C1
:1013A000D5FAFB680133FB60FB78FA689A42F0DB00
:1013B00003220621786800F094FC0749786800F061
:1013C00064FC00BF1037BD4680BD00BF1C0000207C
:1013D000283100081F85EB512031000880B500AF8F
:1013E0000C21134800F06EFC114800F0AFFC1149CD
:1013F0000F4800F04AFC012200210D4800F071FC6A
:101400000D490B4800F041FC02220021084800F081
:1014100068FC0A49064800F038FC03220021044811
:1014200000F05FFC0649024800F02FFC00BF80BDC1
:101430005C0000209C2F0008303100084431000877
:101440005431000880B500AF0C21154800F03AFC7B
:10145000134800F07BFC1349114800F016FC0122F0
:1014600000210F4800F03DFC0F490D4800F00DFC35
:10147000022200210A4800F034FC0C49084800F020
:1014800004FC03220021064800F02BFC0849044814
:1014900000F0FBFB0749024800F0F7FB00BF80BDEE
:1014A0005C0000209C2F000868310008783100089B
:1014B0008C3100089C31000880B500AF0C21184821
:1014C00000F000FC164800F041FC1649144800F0FA
:1014D000DCFB01220021124800F003FC12491048F5
:1014E00000F0D3FB022206210D4800F0FAFB0F4961
:1014F0000B4800F0CAFB0E4B1B781946084800F059
:1015000069FC03220B21064800F0EBFB0949044863
:1015100000F0BBFB0F21024800F0D4FB00BF80BDF0
:101520005C0000209C2F0008A4310008B83100089E
:1015300001000020BC31000880B500AF0C210C4830
:1015400000F0C0FB0A4800F001FC0A49084800F01E
:101550009CFB01220021064800F0C3FB012264210C
:101560000348FFF7EFFEFFF739FF00BF80BD00BF64
:101570005C0000209C2F000880B500AF0C210C48B7
:1015800000F0A0FB0A4800F0E1FB0A49084800F01F
:101590007CFB01220021064800F0A3FB012264210C
:1015A0000348FFF783FEFFF719FF00BF80BD00BFB0
:1015B0005C0000209C2F000880B500AF0C2115486E
:1015C00000F080FB134800F0C1FB1349114800F004
:1015D0005CFB012200210F4800F083FB0F490D48FE
:1015E00000F053FB022200210A4800F07AFB0C496C
:1015F000084800F04AFB03220321064800F071FB73
:101600000849044800F041FB0F21024800F05AFB52
:1016100000BF80BD5C0000209C2F0008C431000882
:10162000D8310008E831000880B500AF094B04222A
:101630001A70084B03225A70064B074A5A60054B32
:10164000064A9A60034B064ADA60024800F0BEF888
:1016500000BF80BD94000020300000203800002032
:101660002400002080B500AF00F0BEFE0221022061
:1016700000F07AFE0321022000F076FE0E21022007
:1016800000F072FEFFF7DEFDFFF7C8FDFFF7CCFFAD
:10169000FFF778F900BF80BD80B500AF484800F083
:1016A000F5F803461A46474B1A70464B1B78302B09
:1016B000F4D9444B1B78322BF0D8424B1B78312B9A
:1016C00061D1414B1B78012B01D1FFF7BFF93E4B94
:1016D0001B78002B54D1FFF7B5FE394800F0D6F83F
:1016E00003461A46374B1A70364B1B78302B03D9FA
:1016F000344B1B78332B03D9324B1B78232BECD183
:10170000304B1B78312B02D1FFF7AEFA56E02D4B50
:101710001B78322B26D1FFF74FFF294800F0B6F88F
:1017200003461A46274B1A70264B1B78302B03D9D9
:10173000244B1B78322B03D9224B1B78232BECD163
:10174000204B1B78312B02D0322B04D007E0002035
:10175000FFF79CFB32E00120FFF798FB2EE0FFF73C
:101760003DFE2BE0174B1B78332B27D0154B1B78F6
:10177000232B02D1FFF732FE20E0FFF72FFE1DE002
:10178000FFF72CFE1AE00F4B1B78322B13D1FFF71B
:1017900093FE0B4800F07AF803461A46094B1A707C
:1017A000084B1B78232BF4D1064B1B78232B05D138
:1017B000FFF714FE02E0FFF711FEFFE700BF80BD58
:1017C000940000203E0000200000002080B584B07E
:1017D00000AF78600023FB730023BB7300237B738F
:1017E0007B681B785B003B737B685B785B00FB72FC
:1017F0000023FB731DE07B685A68FB7B13441B7856
:10180000BB73FB7B0133FB737B685A68FB7B134420
:101810001B787B73797BBB7B0122184600F0D6FBDB
:10182000797BBB7B0122184600F096FCFB7B0133E1
:10183000FB73FA7B3B7B9A42DDD30023FB731DE0F5
:101840007B689A68FB7B13441B78BB73FB7B01337B
:10185000FB737B689A68FB7B13441B787B73797BF3
:10186000BB7B0822184600F0B1FB797BBB7B0122D1
:10187000184600F003FDFB7B0133FB73FA7BFB7A18
:101880009A42DDD300BF1037BD4680BD80B586B01B
:1018900000AF78600023FB750023BB7500237B75C8
:1018A0000023BB7400233B750A23FB7400237B7465
:1018B00000233B740023FB737B681B785B00BB73C6
:1018C0007B685B785B007B730023FB7573E07B6850
:1018D0005A68FB7D13441B787B75FB7D0133FB75D8
:1018E0007B685A68FB7D13441B78BB74B97C7B7D95
:1018F0000022184600F030FC0023BB7543E07B68F3
:101900009A68BB7D13441B787B75BB7D0133BB7527
:101910007B689A68BB7D13441B78BB74BA7C7B7D63
:101920001146184600F06EFC0346002B28D1012317
:101930003B7500E000BFBA7C7B7D1146184600F085
:1019400061FC0346002BF5D0FB7D013BDA0F13440D
:101950005B103B74BB7D013BDA0F13445B10FB73E0
:101960007B685B783A7C02FB03F3DAB2FB7B1344BF
:101970007B747B68DA687B7C13441B78FB7406E01D
:10198000BB7D0133BB75BA7D7B7B9A42B7D37B6845
:101990005A68FB7D13441B78BB74B97C7B7D0122A4
:1019A000184600F0D9FB3B7D002B09D10A23FB74BC
:1019B000FB7D0133FB75FA7DBB7B9A4287D300E048
:1019C00000BFFB7C18461837BD4680BD80B485B08B
:1019D00000AF78607B68FB600CE04FF47A73BB600B
:1019E00002E0BB68013BBB60BB68002BF9D1FB6820
:1019F000013BFB60FB68002BEFD100BF1437BD46F5
:101A000080BC704780B582B000AF78607B685B684F
:101A1000043318787B685B6805331B78022219460B
:101A200000F0D4FA7B685B68063318787B685B68E3
:101A300007331B780222194600F0C8FA7B685B68FE
:101A4000083318787B685B6809331B7802221946D3
:101A500000F0BCFA7B685B680A3318787B685B68C7
:101A60000B331B780222194600F0B0FA7B685B68E2
:101A7000023318787B685B6803331B7802221946AF
:101A800000F0A4FA7B685B6818787B685B680133B8
:101A90001B780222194600F099FA0221786800F0BA
:101AA000B7F92821786800F0B3F90121786800F0CF
:101AB000AFF90F21786800F0ABF98021786800F069
:101AC000A7F90220FFF782FF00BF0837BD4680BD9F
:101AD00080B582B000AF78600B46FB707B685B68B6
:101AE000043318787B685B6805331978FB781B0929
:101AF000DBB203F00103DBB21A4600F02DFB7B687A
:101B00005B68063318787B685B6807331978FB7865
:101B10005B09DBB203F00103DBB21A4600F01CFBE9
:101B20007B685B68083318787B685B6809331978D1
:101B3000FB789B09DBB203F00103DBB21A4600F02D
:101B40000BFB7B685B680A3318787B685B680B3338
:101B50001978FB78DB09DBB21A4600F0FDFA7B68E6
:101B60005B68023318787B685B6803331B7801225B
:101B7000194600F0F1FA7B685B6818787B685B684F
:101B800001331B780122194600F0E6FA0120FFF725
:101B90001DFF7B685B6818787B685B6801331B7886
:101BA0000022194600F0D8FA1420FFF70FFF7B68D7
:101BB0005B68043318787B685B6805331978FB78B9
:101BC00003F00103DBB21A4600F0C6FA7B685B68DB
:101BD000063318787B685B6807331978FB785B08F5
:101BE000DBB203F00103DBB21A4600F0B5FA7B6802
:101BF0005B68083318787B685B6809331978FB7871
:101C00009B08DBB203F00103DBB21A4600F0A4FA32
:101C10007B685B680A3318787B685B680B331978DC
:101C2000FB78DB08DBB203F00103DBB21A4600F0FD
:101C300093FA7B685B68023318787B685B680333D0
:101C40001B780122194600F087FA7B685B681878D8
:101C50007B685B6801331B780122194600F07CFA2F
:101C60000120FFF7B3FE7B685B6818787B685B68D0
:101C700001331B780022194600F06EFA1420FFF79A
:101C8000A5FE00BF0837BD4680BD80B584B000AF5B
:101C9000786039600023FB730AE0FB7B3A681344E9
:101CA0001B7819467868FFF713FFFB7B0133FB7342
:101CB000FB7B3A6813441B78002BEED100BF103732
:101CC000BD4680BD80B582B000AF78600B46FB702A
:101CD000FB781946786800F09BF800BF0837BD46CE
:101CE00080BD80B584B000AF78600B46FB701346B2
:101CF000BB700023FB737B681B78BA789A4221D2B1
:101D00007B685B78FA789A421CD2BB78012B06D8A4
:101D1000BB789B01DAB2FB781344FB7309E0BB7814
:101D20000233DBB29B01DAB2FB781344DBB210332F
:101D3000FB73FB7B63F07F03FB73FB7B19467868C7
:101D400000F066F800BF1037BD4680BD80B582B098
:101D500000AF78600121786800F05AF80120FFF7A1
:101D600035FE8021786800F053F800BF0837BD4683
:101D700080BD80B586B000AFF860B9601346FB71D6
:101D80000023BB75FB79072B20D8FB79DB00BB75E3
:101D9000BB7D43F04003BB75BB7D1946F86800F07E
:101DA00037F80023FB750AE0FB7DBA6813441B7803
:101DB0001946F868FFF78CFEFB7D0133FB75FB7D50
:101DC000072BF1D90221F86800F022F800BF18377C
:101DD000BD4680BD80B588B000AF7860396007F13E
:101DE0000C0300221A605A609A60DA601A7407F1D4
:101DF0000C030A221946386800F0BEFF07F10C03F5
:101E000019467868FFF741FF00BF2037BD4680BD07
:101E100080B582B000AF78600B46FB707B685B6872
:101E2000043318787B685B6805331978FB781B09E5
:101E3000DBB203F00103DBB21A4600F08DF97B68D8
:101E40005B68063318787B685B6807331978FB7822
:101E50005B09DBB203F00103DBB21A4600F07CF948
:101E60007B685B68083318787B685B68093319788E
:101E7000FB789B09DBB203F00103DBB21A4600F0EA
:101E80006BF97B685B680A3318787B685B680B3397
:101E90001978FB78DB09DBB21A4600F05DF97B6844
:101EA0005B68023318787B685B6803331B78002219
:101EB000194600F051F97B685B6818787B685B68AD
:101EC00001331B780122194600F046F90120FFF783
:101ED0007DFD7B685B6818787B685B6801331B78E5
:101EE0000022194600F038F91420FFF76FFD7B68D7
:101EF0005B68043318787B685B6805331978FB7876
:101F000003F00103DBB21A4600F026F97B685B6838
:101F1000063318787B685B6807331978FB785B08B1
:101F2000DBB203F00103DBB21A4600F015F97B685F
:101F30005B68083318787B685B6809331978FB782D
:101F40009B08DBB203F00103DBB21A4600F004F990
:101F50007B685B680A3318787B685B680B33197899
:101F6000FB78DB08DBB203F00103DBB21A4600F0BA
:101F7000F3F87B685B68023318787B685B6803332F
:101F80001B780022194600F0E7F87B685B68187838
:101F90007B685B6801331B780122194600F0DCF88E
:101FA0000120FFF713FD7B685B6818787B685B682E
:101FB00001331B780022194600F0CEF81420FFF7F9
:101FC00005FD00BF0837BD4680BD000080B483B06A
:101FD00000AF0346FB710B46BB7113467B71FB7967
:101FE000032B3ED0042B75D0022B00D0A9E0BB7987
:101FF000072B17D8554B1B68BA7992000F2101FAAD
:1020000002F2D2431146514A0B4013604F4B1B68FA
:102010007979BA79920001FA02F211464B4A0B43E0
:10202000136089E0BB790F2B00F28680BB79083BF7
:10203000BB71464B5B68BA7992000F2101FA02F23C
:10204000D2431146414A0B405360404B5B6879795B
:10205000BA79920001FA02F211463C4A0B435360EE
:102060006AE0BB79072B17D8394B1B68BA79920005
:102070000F2101FA02F2D2431146354A0B40136098
:10208000334B1B687979BA79920001FA02F2114652
:102090002F4A0B43136051E0BB790F2B4ED8BB790D
:1020A000083BBB712A4B5B68BA7992000F2101FA99
:1020B00002F2D2431146264A0B405360244B5B6820
:1020C0007979BA79920001FA02F21146204A0B435B
:1020D000536033E0BB79072B10D81E4B1B681D4B98
:1020E00000221A601B4B1B687979BA79920001FAB9
:1020F00002F21146174A0B43136021E0BB790F2B04
:102100001ED8BB79083BBB71124B5B68BA79920051
:102110000F2101FA02F2D24311460E4A0B405360DE
:102120000C4B5B687979BA79920001FA02F2114698
:10213000084A0B43536003E000BF02E000BF00E029
:1021400000BF00BF0C37BD4680BC7047000801408F
:10215000000C01400010014080B483B000AF034682
:10216000FB710B46BB7113467B71FB79032B17D0B8
:10217000042B28D0022B00D038E07B79002B08D02C
:10218000012B00D00BE0BB7901229A401A4B1A6157
:1021900005E0BB7901229A40174B5A6100BF25E048
:1021A0007B79002B08D0012B00D00BE0BB790122FA
:1021B0009A40124B1A6105E0BB7901229A400F4BFD
:1021C0005A6100BF12E07B79002B08D0012B00D0B0
:1021D0000BE0BB7901229A40094B1A6105E0BB79FB
:1021E00001229A40064B5A6100BF00BF00BF0C3766
:1021F000BD4680BC704700BF00080140000C014094
:102200000010014080B485B000AF03460A46FB7160
:102210001346BB710023FB73FB79032B0ED0042BF9
:1022200016D0022B00D01DE0114B9A68BB7922FA20
:1022300003F3DBB203F00103FB7313E00D4B9A6869
:10224000BB7922FA03F3DBB203F00103FB7309E06D
:10225000094B9A68BB7922FA03F3DBB203F001035E
:10226000FB7300BFFB7B18461437BD4680BC70472C
:1022700000080140000C01400010014080B483B010
:1022800000AF0346FB710B46BB7113467B71FB79B4
:10229000032B22D0042B3ED0022B00D059E07B79B7
:1022A000002B02D0012B0CD016E02C4BDB68BA7946
:1022B000012101FA02F2D2431146284A0B40D360B1
:1022C0000AE0264BDB68BA79012101FA02F21146D5
:1022D000224A0B43D36000BF3BE07B79002B02D046
:1022E000012B0CD016E01E4BDB68BA79012101FAF4
:1022F00002F2D24311461A4A0B40D3600AE0184B4F
:10230000DB68BA79012101FA02F21146144A0B4343
:10231000D36000BF1DE07B79002B02D0012B0CD0D5
:1023200016E0104BDB68BA79012101FA02F2D243C0
:1023300011460C4A0B40D3600AE00A4BDB68BA79BD
:10234000012101FA02F21146064A0B43D36000BF95
:1023500000BF00BF0C37BD4680BC7047000801407D
:10236000000C01400010014080B483B000AF034670
:102370000A46FB711346BB71BB791F2B28D8FB792A
:10238000012B0FD0022B18D0002B00D020E0134BD4
:102390001B68BA79012101FA02F211460F4A0B4378
:1023A000136015E00E4B1B68BA79012101FA02F2A5
:1023B00011460B4A0B4313600AE00A4B1B68BA79BB
:1023C000012101FA02F21146064A0B43136000BFD5
:1023D00000BF0C37BD4680BC704700BF14100240E0
:1023E0001C1002401810024080B400AF234B802222
:1023F0001A60234B00221A60204B1B681F4A43F4CB
:10240000002313601D4B1B681C4A43F48033136088
:1024100000BF1A4B1B685B0C03F00103002BF8D0C4
:10242000174B1B68164A43F480331360144B144A4D
:102430001B681360114B1B68104A43F080731360D4
:1024400000BF0E4B1B685B0E03F00103002BF8D09E
:102450000B4B1B680A4A43F002031360084B084AFF
:102460001B681360064B064A1B681360044B044A42
:102470001B68136000BFBD4680BC7047001002405F
:102480000410024080B582B000AF134B9B685B081C
:1024900003F00103DAB23B7962F300033B710E4BA8
:1024A0009B6803F00103DAB23B7962F341033B71AD
:1024B000094B9B681B0903F00103DAB23B7962F315
:1024C00082033B71054B1B681B693879984700BF35
:1024D0000837BD4680BD00BF0030014080000020AD
:1024E00080B582B000AF134B9B685B0803F001031B
:1024F000DAB23B7962F300033B710E4B9B6803F049
:102500000103DAB23B7962F341033B71094B9B68EB
:102510001B0903F00103DAB23B7962F382033B71DA
:10252000054B5B681B693879984700BF0837BD4683
:1025300080BD00BF003001408000002080B586B023
:1025400000AF03463960FB710023FB820023BB828E
:1025500000237B823B681A893B685B8913439AB2EC
:102560003B681B789BB213439AB23B68DB8A1343E8
:102570009BB243F40053FB823B689A893B681B8AF9
:1025800013439AB23B685B8A1343BB823B681B7D53
:102590007B82FB7920493A6841F823200023FB60C5
:1025A0003B685B6807F10C021C49184600F0A6F96D
:1025B000FB79012B11D0022B1CD0002B00D026E080
:1025C000174AFB689360164AFB8AD360144ABB8A99
:1025D0001361134A7B8A536119E0124AFB689360C6
:1025E000104AFB8AD3600F4ABB8A13610D4A7B8A6B
:1025F00053610CE00C4AFB6893600B4AFB8AD36082
:10260000094ABB8A1361084A7B8A536100BF00BF35
:102610001837BD4680BD00BF8800002000127A0038
:1026200000380140004400400048004080B483B0BE
:1026300000AF03463960FB71FB79012B19D0022BE7
:102640002CD0002B00D03EE000BF214B1B68DB09E3
:1026500003F00103002BF8D03B681A881C4B5A602A
:1026600000BF1B4B1B689B0903F00103002BF8D034
:1026700029E000BF174B1B68DB0903F00103002BA7
:10268000F8D03B681A88134B5A6000BF114B1B6887
:102690009B0903F00103002BF8D014E000BF0E4BA0
:1026A0001B68DB0903F00103002BF8D03B681A8894
:1026B000094B5A6000BF084B1B689B0903F00103DC
:1026C000002BF8D000BF00BF0C37BD4680BC704760
:1026D00000380140004400400048004080B483B00E
:1026E00000AF03463960FB71FB79804A52F8233012
:1026F0001B89B3F5805F79D1FB797C4A52F823308E
:102700005B89002B3AD1FB79012B15D0022B24D009
:10271000002B00D0E4E000BF754B1B685B0903F0A1
:102720000103002BF8D0724B5B689BB2C3F3080324
:102730009AB23B681A80D3E000BF6E4B1B685B09FE
:1027400003F00103002BF8D06A4B5B689BB2C3F324
:1027500008039AB23B681A80C2E000BF664B1B6850
:102760005B0903F00103002BF8D0634B5B689BB25D
:10277000C3F308039AB23B681A80B1E0FB79012BDE
:1027800014D0022B22D0002B00D0A9E000BF584B60
:102790001B685B0903F00103002BF8D0544B5B6806
:1027A0009BB2DBB29AB23B681A8099E000BF514BF2
:1027B0001B685B0903F00103002BF8D04D4B5B68ED
:1027C0009BB2DBB29AB23B681A8089E000BF4A4BE9
:1027D0001B685B0903F00103002BF8D0464B5B68D4
:1027E0009BB2DBB29AB23B681A8079E0FB793F4A30
:1027F00052F823305B89002B37D1FB79012B14D0A1
:10280000022B22D0002B00D06AE000BF384B1B689F
:102810005B0903F00103002BF8D0354B5B689BB2DA
:10282000DBB29AB23B681A805AE000BF314B1B689A
:102830005B0903F00103002BF8D02E4B5B689BB2C1
:10284000DBB29AB23B681A804AE000BF2A4B1B6891
:102850005B0903F00103002BF8D0274B5B689BB2A8
:10286000DBB29AB23B681A803AE0FB79012B15D0B3
:10287000022B24D0002B00D032E000BF1C4B1B6881
:102880005B0903F00103002BF8D0194B5B689BB286
:1028900003F07F039AB23B681A8021E000BF154B1A
:1028A0001B685B0903F00103002BF8D0114B5B6838
:1028B0009BB203F07F039AB23B681A8010E000BF1E
:1028C0000D4B1B685B0903F00103002BF8D00A4B8A
:1028D0005B689BB203F07F039AB23B681A8000BF2B
:1028E00000BF0C37BD4680BC704700BF8800002089
:1028F000003801400044004000480040B0B58AB0B4
:1029000000AFF860B9607A60FB681B01BA68B2FB7F
:10291000F3F33B62B868FDF76DFD4FF00002224B08
:10292000FDF7E2FD03460C4625461C46F868FDF718
:1029300061FD4FF000021D4BFDF7D6FD02460B4630
:1029400020462946FDF7FAFE03460C461846214666
:10295000FDF7DCFF0346FB613B6A642202FB03F3E5
:10296000BB613B6A7B62FA69BB69D31A1B01104ADF
:10297000A2FB03235B097B617B69102B02D97B6A75
:1029800001337B627B6A9BB21B019AB27B699BB26B
:1029900003F00F039BB213439BB21A467B681A6085
:1029A00000BF2837BD46B0BD0000394000001040D0
:1029B0001F85EB5180B582B000AF0346FB71FB79F8
:1029C0007A4A52F823301B78082BFB79002B4CD124
:1029D000FB79764A52F823301B78082B05D109225F
:1029E00009210220FFF7F2FA16E0FB796F4A52F84C
:1029F00023301B78042B05D104220A210220FFF783
:102A0000E5FA09E004220A210220FFF7DFFA092291
:102A100009210220FFF7DAFA644B1B68DB89B3F562
:102A2000807F05D109220C210220FFF7CFFAB9E0FF
:102A30005E4B1B68DB89B3F5007F05D104220B21B7
:102A40000220FFF7C3FAADE0584B1B68DB89002B6F
:102A500000F0A88004220B210220FFF7B7FA092218
:102A60000C210220FFF7B2FA9CE0FB79012B4BD13D
:102A7000FB794E4A52F823301B78082B05D10922E6
:102A800002210220FFF7A2FA16E0FB79474A52F82A
:102A900023301B78042B05D104220D210220FFF7DF
:102AA00095FA09E0092202210220FFF78FFA042299
:102AB0000D210220FFF78AFA3C4B5B68DB89B3F5F6
:102AC000807F05D1092201210220FFF77FFA69E00A
:102AD000364B5B68DB89B3F5007F05D1042200210A
:102AE0000220FFF773FA5DE0304B5B68DB89002B57
:102AF00058D0042200210220FFF768FA09220121A0
:102B00000220FFF763FA4DE0FB79022B4AD1FB79F3
:102B1000264A52F823301B78082B05D109220A21B6
:102B20000320FFF753FA16E0FB79204A52F82330CE
:102B30001B78042B05D104220B210320FFF746FA52
:102B400009E009220A210320FFF740FA04220B21A1
:102B50000320FFF73BFA154B9B68DB89B3F5807FB9
:102B600005D109220E210320FFF730FA1AE00F4B9E
:102B70009B68DB89B3F5007F05D104220D2103207A
:102B8000FFF724FA0EE0094B9B68DB89002B09D084
:102B900009220E210320FFF719FA04220D21032038
:102BA000FFF714FA00BF0837BD4680BD880000203B
:102BB00080B500AF0A4B1B689B690A4A526892B203
:102BC00010469847074B1B68064A23F040031360E2
:102BD000044B1B68034A23F02003136000BF80BD31
:102BE000880000200038014080B500AF0A4B5B68C8
:102BF0009B690A4A526892B210469847074B1B6875
:102C0000064A23F040031360044B1B68034A23F079
:102C10002003136000BF80BD8800002000440040F6
:102C200080B500AF0A4B9B689B690A4A526892B212
:102C300010469847084B1B68074A23F0400313606F
:102C4000054B1B68044A23F02003136000BF80BDBE
:102C500088000020004400400048004080B584B057
:102C600000AF03463960FB711346BB710023FB6064
:102C70000AE03A68FB681A44FB7911461846FFF7E8
:102C8000D5FCFB680133FB603A68FB6813441B7892
:102C9000BA799A42EDD100BF1037BD4680BD80B5EC
:102CA00000AFFEF7DFFCFEF7F7FCFCE70D488546BA
:102CB000AFF300800C480D490D4A002302E0D458C0
:102CC000C4500433C4188C42F9D30A4A0A4C002376
:102CD00001E013600432A242FBD300F011F8FFF7C9
:102CE000DEFFFEE70028002000000020400000205A
:102CF000243200084000002018010020FEE70000F8
:102D000070B500250C4E0D4CA41BA410A54209D192
:102D100000F072F800250A4E0A4CA41BA410A5422C
:102D200005D170BD56F8253098470135EEE756F8C5
:102D3000253098470135F2E71C3200081C320008A4
:102D40001C32000820320008931E222B10B50C46BE
:102D500004D900231C460B70204610BD0A2A09D155
:102D6000002807DA2D230B7001214042214400F096
:102D700005F8F1E70021F9E7FFF7E6BFF0B58BB002
:102D800005460C466E461B4B03F1200C374618686F
:102D90005968083303C763453E46F7D118681B7965
:102DA00038603B71931E222B4FF0000304D923702F
:102DB0001C4620460BB0F0BD661EB5FBF2F002FBD0
:102DC00010550AAF3D4415F8285C591C06F8015F00
:102DD000054668B9224660542344191B101B8142E2
:102DE000E7DD1178187802F8010B03F80119F4E710
:102DF0000B46E2E7F5310008F8B500BFF8BC08BCA7
:102E00009E467047F8B500BFF8BC08BC9E467047A8
:102E100041646D696E20557365726E616D65000069
:102E200041646D696E2050617373776F7264000046
:102E30000D0A2A2A2A2A2A2A2A2A2A2A2A2A2A2A2F
:102E40002A2A2A2A2A2A2A205355434345535346DD
:102E5000554C204C4F47494E202A2A2A2A2A2A2AF2
:102E60002A2A2A2A2A2A2A2A2A2A2A2A2A2A2A2AC2
:102E70002A2A2A2A2A2A2A200D0A000057726F6E4F
:102E8000672041646D696E0050617373776F72647F
:102E9000000000000D0A2A2A2A2A2A2A2A2A2A2A77
:102EA0002A2A2A2A2A2A2A2A2A2A2A20554E5355E9
:102EB000434345535346554C204C4F47494E202AD7
:102EC0002A2A2A2A2A2A2A2A2A2A2A2A2A2A2A2A62
:102ED0002A2A2A2A2A2A2A2A2A2A2A2A2A200D0A99
:102EE000000000004E616D65000000000D0A2A2AF6
:102EF0002A2A2A2A2A2A2A2A2A2A2A2A2A2A2A2A32
:102F00002A2A2A20416464696E67204472697665C2
:102F1000722044617461202A2A2A2A2A2A2A2A2A0B
:102F20002A2A2A2A2A2A2A2A2A2A2A2A2A2A2A2A01
:102F30002A2A2A2A2A200D0A0000000044726976F3
:102F4000657220557365726E616D65000D0A000033
:102F50004472697665722049440000000D0A2A2AED
:102F60002A2A2A2A2A2A2A2A2A2A2A2A2A2A2A2AC1
:102F70002A2A2A20444F4E45202A2A2A2A2A2A2A47
:102F80002A2A2A2A2A2A2A2A2A2A2A2A2A2A2A2AA1
:102F90002A2A2A2A2A2A2A200D0A00005041524BA6
:102FA000494E4720474152414745000046554C4C49
:102FB0002043415041434954590000000D0A2A2A38
:102FC0002A2A2A2A2A2A2A2A2A2A2A2A2A2A2A2A61
:102FD0002A2A2A2044656C657465204472697665E6
:102FE00072202A2A2A2A2A2A2A2A2A2A2A2A2A2A03
:102FF0002A2A2A2A2A2A2A2A2A2A2A2A2A2A2A2A31
:10300000200D0A00000000000D0A2A2A2A2A2A2A76
:103010002A2A2A2A2A2A2A2A2A2A2A2A2A2A2A201A
:103020005355434345535346554C202A2A2A2A2AAE
:103030002A2A2A2A2A2A2A2A2A2A2A2A2A2A2A2AF0
:103040002A2A2A2A2A2A2A2A2A200D0A00000000CF
:10305000554E5355434345535346554C00000000CD
:103060000D0A2A2A2A2A2A2A2A2A2A2A2A2A2A2AFD
:103070002A2A2A2A2A2A2A20554E535543434553A1
:103080005346554C202A2A2A2A2A2A2A2A2A2A2A18
:103090002A2A2A2A2A2A2A2A2A2A2A2A2A2A2A2A90
:1030A0002A2A2A200D0A00004E6F20457869737481
:1030B000656E636500000000447269766572732076
:1030C00044617461000000002A2A2A2A2A2A2A2A36
:1030D0002A2A2A2A2A2A2A2A2A2A2A2A2A20414429
:1030E0004D494E2044415348424F415244202A2AE0
:1030F0002A2A2A2A2A2A2A2A2A2A2A2A2A2A2A2A30
:103100002A2A2A2A2A2A2A2A2A2A2A2A200D0A0090
:103110000000000044656C6574696E670000000083
:10312000444F4E4500000000416464696E67000032
:1031300053656C656374206F6E65206F66203A205E
:1031400000000000312D41646D696E204F7074697C
:103150006F6E7300322D4761726167652053746131
:103160007475657300000000312D204164642044B3
:103170007269766572000000322D2044656C6574BA
:10318000652044726976657200000000332D204589
:1031900064697420446174610000000020203C4296
:1031A000000000002D417661696C61626C652053FE
:1031B0006C6F747300000000203D20003C424143CE
:1031C0004B000000312D2044656C6574652044720D
:1031D0006976657200000000322D2044656C6574CC
:1031E0006520416C6C0000003C4D41494E2053432A
:1031F0005245454E00303132333435363738396137
:1032000062636465666768696A6B6C6D6E6F707126
:0C32100072737475767778797A0000008C
:04321C005501000850
:043220003101000870
:103224000103000001010100030503040303020F6D
:10323400020B020C0000110A040A1100000E0E0E0B
:103244001F0E04003132333435363738392A3023EF
:10325400030C030D030E030F03080309030B0A00F9
:0400000508002CAD16
:00000001FF
