S0190000454355315F456E7472616E6365476174652E73726563ED
S11300000C9432000C94580D0C94890D0C944F00F0
S11300100C944F000C944F000C944F000C944F0020
S11300200C944F000C944F000C94B8140C94371695
S11300300C944F000C9470160C944F000C944F00C9
S11300400C944F000C944F000C94BA0D0C944F0078
S11300500C944F0046134B13521359136013671338
S11300606E13751311241FBECFE5D4E0DEBFCDBFE0
S113007010E0A0E6B0E0ECECFFE202C005900D92C7
S1130080AA3BB107D9F720E0AAEBB0E001C01D926A
S1130090A93EB207E1F70E944F0D0C94E4170C94AB
S11300A00000CF93DF93CDB7DEB76E970FB6F89409
S11300B0DEBF0FBECDBF8E8F1982F1C041E066E076
S11300C082E00E942C1080E090E0A8ECB2E48A83E5
S11300D09B83AC83BD8320E030E04AE755E46A812A
S11300E07B818C819D810E942717DC01CB018C8B45
S11300F09D8BAE8BBF8B20E030E040E85FE36C89E2
S11301007D898E899F890E94A11688232CF481E021
S113011090E0998F888F3FC020E03FEF4FE757E48E
S11301206C897D898E899F890E94221718164CF547
S113013020E030E040E251E46A817B818C819D8142
S11301400E942717DC01CB01BC01CD010E94A61639
S1130150DC01CB01998F888F0FC080E991E09B8FE0
S11301608A8F8A8D9B8D0197F1F79B8F8A8F888D5B
S1130170998D0197998F888F888D998D892B69F72F
S113018014C06C897D898E899F890E94A616DC0122
S1130190CB01998F888F888D998D9D8F8C8F8C8DB5
S11301A09D8D0197F1F79D8F8C8F40E066E082E092
S11301B00E942C1080E090E0A8ECB2E48E839F8330
S11301C0A887B98720E030E04AE755E46E817F8153
S11301D0888599850E942717DC01CB018A879B8734
S11301E0AC87BD8720E030E040E85FE36A857B852B
S11301F08C859D850E94A11688232CF481E090E0D3
S11302009F878E873FC020E03FEF4FE757E46A8522
S11302107B858C859D850E94221718164CF520E05D
S113022030E040E251E46E817F81888599850E94A7
S11302302717DC01CB01BC01CD010E94A616DC010D
S1130240CB019F878E870FC080E991E0998B888BC3
S1130250888999890197F1F7998B888B8E859F8579
S113026001979F878E878E859F85892B69F714C098
S11302706A857B858C859D850E94A616DC01CB0151
S11302809F878E878E859F859B8B8A8B8A899B8986
S11302900197F1F79B8B8A8B89818F5F8983998181
S11302A08E8D981708F40ACF00006E960FB6F89456
S11302B0DEBF0FBECDBFDF91CF910895CF93DF9303
S11302C0CDB7DEB72E970FB6F894DEBF0FBECDBF05
S11302D06CE08AEB90E00E9476088AEB90E00E9442
S11302E0DF086FE770E08AEB90E00E94440841E089
S11302F060E08AEB90E00E94AB086DE870E08AEB66
S113030090E00E94440880E090E0A6E1B3E4898391
S11303109A83AB83BC8320E030E04AE755E46981EB
S11303207A818B819C810E942717DC01CB018D830C
S11303309E83AF83B88720E030E040E85FE36D81BF
S11303407E818F8198850E94A11688232CF481E0F8
S113035090E09A8789873FC020E03FEF4FE757E45A
S11303606D817E818F8198850E94221718164CF525
S113037020E030E040E251E469817A818B819C8104
S11303800E942717DC01CB01BC01CD010E94A616F7
S1130390DC01CB019A8789870FC080E991E09C87B3
S11303A08B878B859C850197F1F79C878B87898543
S11303B09A8501979A87898789859A85892B69F710
S11303C014C06D817E818F8198850E94A616DC0100
S11303D0CB019A87898789859A859E878D878D85A4
S11303E09E850197F1F79E878D8760E08AEB90E008
S11303F00E948B0800002E960FB6F894DEBF0FBE45
S1130400CDBFDF91CF910895CF93DF93CDB7DEB702
S113041082E08093BA0080E18093BB0087E690E09D
S11304209093BD008093BC008AEB90E00E9410047E
S11304300E945E010000DF91CF910895CF93DF9376
S1130440CDB7DEB72F970FB6F894DEBF0FBECDBF82
S11304508F876CE08AEB90E00E9476088AEB90E04C
S11304600E94DF086FE770E08AEB90E00E94440886
S113047041E060E08AEB90E00E94AB088F85882F12
S113048090E0009721F0019709F47FC08DC06DE9D9
S113049070E08AEB90E00E94440880E090E0A8E4D9
S11304A0B3E489839A83AB83BC8320E030E04AE7DA
S11304B055E469817A818B819C810E942717DC0134
S11304C0CB018D839E83AF83B88720E030E040E882
S11304D05FE36D817E818F8198850E94A1168823B8
S11304E02CF481E090E09A8789873FC020E03FEFB9
S11304F04FE757E46D817E818F8198850E94221792
S113050018164CF520E030E040E251E469817A812C
S11305108B819C810E942717DC01CB01BC01CD019A
S11305200E94A616DC01CB019A8789870FC080E957
S113053091E09C878B878B859C850197F1F79C873D
S11305408B8789859A8501979A87898789859A8572
S1130550892B69F714C06D817E818F8198850E94F3
S1130560A616DC01CB019A87898789859A859E879F
S11305708D878D859E850197F1F79E878D8760E035
S11305808AEB90E00E948B080FC06FEA70E08AEB60
S113059090E00E94440883E00E94510060E08AEBEE
S11305A090E00E948B08000000002F960FB6F8948C
S11305B0DEBF0FBECDBFDF91CF910895CF93DF9300
S11305C0CDB7DEB70E94EB0D41E060E080E00E9411
S11305D0230E41E066E082E00E94230E0E9407128F
S11305E081E690E00E943B140E948D0C0E942C0D29
S11305F08AE393E00E94380D0E94CC030E94040217
S11306008FE590E02FE530E0F90120812068FC01BE
S113061020830000DF91CF910895CF93DF93CDB76E
S1130620DEB702C00E94FC03809160008133D1F7E1
S11306308FE590E02FE530E0F90120812F77FC0170
S113064020830E94E80300000E949A0C8130E1F3A9
S113065080E3809360000E941D168FE590E02FE5F3
S113066030E0F90120812068FC0120830000DF9143
S1130670CF910895CF93DF9300D000D0CDB7DEB7EC
S11306809A8389837C836B832B813C8189819A81C2
S1130690B9010E94530300000F900F900F900F9028
S11306A0DF91CF910895CF93DF9300D000D0CDB7E1
S11306B0DEB79A8389837C836B8360E080E00E9449
S11306C08F1189819A810E9499038B819C810E9458
S11306D099030E94730300000F900F900F900F90E6
S11306E0DF91CF910895CF93DF931F92CDB7DEB7FB
S11306F080E38983CE010196BC0184E20E948A14BE
S11307008981813319F089818033A1F789818093AC
S1130710600080916000813321F480E00E941E0219
S113072003C081E00E941E0200000F90DF91CF9170
S11307300895CF93DF9300D000D0CDB7DEB79C836C
S11307408B831A82198215C08981882F90E02B81AE
S11307503C81820F931FFC012081CE010296BC01D3
S1130760822F0E948A148A818B3271F789818F5F6C
S113077089838981882F90E02B813C81820F931F8C
S1130780FC018081882301F700000F900F900F90E7
S11307900F90DF91CF910895CF93DF93CDB7DEB75C
S11307A083E790E00E94231280917600807A682F7C
S11307B083E790E00E949A1380917600877041E06D
S11307C0682F83E00E94230E0000DF91CF910895EB
S11307D0CF93DF93CDB7DEB780917600807A2CEB90
S11307E030E043EC59E0682F83E790E00E94DA138D
S11307F00000DF91CF910895CF93DF93CDB7DEB79B
S113080080917600807A2DE730E043EC59E0682F40
S113081083E790E00E94DA130000DF91CF910895FE
S1130820CF93DF93CDB7DEB760970FB6F894DEBFF2
S11308300FBECDBF988B8F878F859889FC018281ED
S113084093810596FC0120818F859889FC01828122
S113085093810496FC01808141E0622F0E94230E63
S11308608F859889FC01828193810796FC01208100
S11308708F859889FC01828193810696FC01808191
S113088041E0622F0E94230E8F859889FC018281AA
S113089093810996FC0120818F859889FC018281CE
S11308A093810896FC01808141E0622F0E94230E0F
S11308B08F859889FC01828193810B96FC012081AC
S11308C08F859889FC01828193810A96FC0180813D
S11308D041E0622F0E94230E8F859889FC0182815A
S11308E093810396FC0120818F859889FC01828184
S11308F093810296FC01808141E0622F0E94230EC5
S11309008F859889FC01828193810196FC01208165
S11309108F859889FC0182819381FC01808141E06B
S1130920622F0E94230E8F85988962E00E947109CC
S11309308F85988968E20E9471098F85988961E0A2
S11309400E9471098F8598896FE00E9471098F85D3
S1130950988960E80E94710980E090E0A0E0B0E42A
S113096089839A83AB83BC8320E030E04AE755E473
S113097069817A818B819C810E942717DC01CB01DC
S11309808D839E83AF83B88720E030E040E85FE347
S11309906D817E818F8198850E94A11688232CF415
S11309A081E090E09A8789873FC020E03FEF4FE7DE
S11309B057E46D817E818F8198850E9422171816D5
S11309C04CF520E030E040E251E469817A818B818A
S11309D09C810E942717DC01CB01BC01CD010E9440
S11309E0A616DC01CB019A8789870FC080E991E0C4
S11309F09C878B878B859C850197F1F79C878B87D8
S1130A0089859A8501979A87898789859A85892B0B
S1130A1069F714C06D817E818F8198850E94A61626
S1130A20DC01CB019A87898789859A859E878D8782
S1130A308D859E850197F1F79E878D8700006096CE
S1130A400FB6F894DEBF0FBECDBFDF91CF910895EE
S1130A50CF93DF93CDB7DEB7EB970FB6F894DEBF35
S1130A600FBECDBF9AAF89AF6BAF8BAD82958F7040
S1130A70382F317089AD9AADFC018281938105963E
S1130A80FC01208189AD9AADFC0182819381049699
S1130A90FC018081432F622F0E942C108BAD829524
S1130AA086958770382F317089AD9AADFC018281AB
S1130AB093810796FC01208189AD9AADFC01828166
S1130AC093810696FC018081432F622F0E942C1093
S1130AD08BAD8295869586958370382F317089AD5C
S1130AE09AADFC01828193810996FC01208189AD34
S1130AF09AADFC01828193810896FC018081432F89
S1130B00622F0E942C108BAD382F331F3327331FD5
S1130B1089AD9AADFC01828193810B96FC01208101
S1130B2089AD9AADFC01828193810A96FC01808192
S1130B30432F622F0E942C1089AD9AADFC01828153
S1130B4093810396FC01208189AD9AADFC018281D9
S1130B5093810296FC01808141E0622F0E942C1057
S1130B6089AD9AADFC01828193810196FC012081BB
S1130B7089AD9AADFC0182819381FC01808141E0C1
S1130B80622F0E942C1080E090E0A0E8BFE38983EC
S1130B909A83AB83BC8320E030E04AE755E4698163
S1130BA07A818B819C810E942717DC01CB018FA75E
S1130BB098ABA9ABBAAB20E030E040E85FE36FA5A7
S1130BC078A989A99AA90E94A11688232CF481E006
S1130BD090E09CAB8BAB3FC020E03FEF4FE757E486
S1130BE06FA578A989A99AA90E94221718164CF50D
S1130BF020E030E040E251E469817A818B819C817C
S1130C000E942717DC01CB01BC01CD010E94A6166E
S1130C10DC01CB019CAB8BAB0FC080E991E09EABB8
S1130C208DAB8DA99EA90197F1F79EAB8DAB8BA9D6
S1130C309CA901979CAB8BAB8BA99CA9892B69F7C9
S1130C4014C06FA578A989A99AA90E94A616DC01E7
S1130C50CB019CAB8BAB8BA99CA998AF8FAB8FA915
S1130C6098AD0197F1F798AF8FAB89AD9AADFC01C0
S1130C70828193810196FC01208189AD9AADFC01AA
S1130C8082819381FC01808140E0622F0E942C10BC
S1130C9080E090E0A0E8BFE38D839E83AF83B887B4
S1130CA020E030E04AE755E46D817E818F819885AC
S1130CB00E942717DC01CB018DA39EA3AFA3B8A785
S1130CC020E030E040E85FE36DA17EA18FA198A50C
S1130CD00E94A11688232CF481E090E09AA789A7AA
S1130CE03FC020E03FEF4FE757E46DA17EA18FA105
S1130CF098A50E94221718164CF520E030E040E237
S1130D0051E46D817E818F8198850E942717DC01D3
S1130D10CB01BC01CD010E94A616DC01CB019AA730
S1130D2089A70FC080E991E09CA78BA78BA59CA500
S1130D300197F1F79CA78BA789A59AA501979AA774
S1130D4089A789A59AA5892B69F714C06DA17EA1ED
S1130D508FA198A50E94A616DC01CB019AA789A7AA
S1130D6089A59AA59EA78DA78DA59EA50197F1F7A4
S1130D709EA78DA78BAD382F317089AD9AADFC013C
S1130D80828193810596FC01208189AD9AADFC0195
S1130D90828193810496FC018081432F622F0E94FB
S1130DA02C108BAD8695382F317089AD9AADFC012E
S1130DB0828193810796FC01208189AD9AADFC0163
S1130DC0828193810696FC018081432F622F0E94C9
S1130DD02C108BAD86958695382F317089AD9AADE0
S1130DE0FC01828193810996FC01208189AD9AAD31
S1130DF0FC01828193810896FC018081432F622F3C
S1130E000E942C108BAD869586958695382F31706F
S1130E1089AD9AADFC01828193810B96FC012081FE
S1130E2089AD9AADFC01828193810A96FC0180818F
S1130E30432F622F0E942C1089AD9AADFC01828150
S1130E4093810396FC01208189AD9AADFC018281D6
S1130E5093810296FC01808141E0622F0E942C1054
S1130E6089AD9AADFC01828193810196FC012081B8
S1130E7089AD9AADFC0182819381FC01808141E0BE
S1130E80622F0E942C1080E090E0A0E8BFE38987E5
S1130E909A87AB87BC8720E030E04AE755E4698550
S1130EA07A858B859C850E942717DC01CB018B8F6B
S1130EB09C8FAD8FBE8F20E030E040E85FE36B8D08
S1130EC07C8D8D8D9E8D0E94A11688232CF481E04B
S1130ED090E098A38F8F3FC020E03FEF4FE757E4A7
S1130EE06B8D7C8D8D8D9E8D0E94221718164CF56E
S1130EF020E030E040E251E469857A858B859C8569
S1130F000E942717DC01CB01BC01CD010E94A6166B
S1130F10DC01CB0198A38F8F0FC080E991E09AA3E5
S1130F2089A389A19AA10197F1F79AA389A38F8D27
S1130F3098A1019798A38F8F8F8D98A1892B69F71A
S1130F4014C06B8D7C8D8D8D9E8D0E94A616DC0148
S1130F50CB0198A38F8F8F8D98A19CA38BA38BA17A
S1130F609CA10197F1F79CA38BA389AD9AADFC01D9
S1130F70828193810196FC01208189AD9AADFC01A7
S1130F8082819381FC01808140E0622F0E942C10B9
S1130F9080E090E0A0E8BFE38D879E87AF87B88BA1
S1130FA020E030E04AE755E46D857E858F85988999
S1130FB00E942717DC01CB01898B9A8BAB8BBC8BEE
S1130FC020E030E040E85FE369897A898B899C8975
S1130FD00E94A11688232CF481E090E09E8B8D8BD7
S1130FE03FC020E03FEF4FE757E469897A898B8956
S1130FF09C890E94221718164CF520E030E040E24C
S113100051E46D857E858F8598890E942717DC01C0
S1131010CB01BC01CD010E94A616DC01CB019E8B45
S11310208D8B0FC080E991E0988F8F8B8F89988D7D
S11310300197F1F7988F8F8B8D899E8901979E8BED
S11310408D8B8D899E89892B69F714C069897A896A
S11310508B899C890E94A616DC01CB019E8B8D8B0B
S11310608D899E899A8F898F898D9A8D0197F1F741
S11310709A8F898F0000EB960FB6F894DEBF0FBEEF
S1131080CDBFDF91CF910895CF93DF9300D000D0EF
S11310901F92CDB7DEB79B838A837D836C831982CD
S11310A011C08981882F90E02C813D81820F931F8C
S11310B0FC0120818A819B81622F0E9428058981FD
S11310C08F5F89838981882F90E02C813D81820FF5
S11310D0931FFC018081882321F700000F900F905B
S11310E00F900F900F90DF91CF910895CF93DF93DE
S11310F000D01F92CDB7DEB79A8389836B83898131
S11311009A816B810E94710900000F900F900F90DB
S1131110DF91CF910895CF93DF9300D01F92CDB785
S1131120DEB79A8389836B838B81882F90E0892B28
S113113031F489819A8168E00E94710905C089812E
S11311409A816CE00E94710900000F900F900F903B
S1131150DF91CF910895CF93DF9300D000D01F92F9
S1131160CDB7DEB79B838A836C834D8319828A81D2
S11311709B81FC0190818D818917C0F48A819B81B8
S1131180FC0191818C81891788F48D81982F929527
S1131190990F990F907C8C81890F8983898180684C
S11311A089838A819B8169810E94710900000F9063
S11311B00F900F900F900F90DF91CF910895CF93E0
S11311C0DF93CDB7DEB760970FB6F894DEBF0FBEDE
S11311D0CDBF988B8F878F85988961E00E947109B4
S11311E080E090E0A0E8BFE389839A83AB83BC836B
S11311F020E030E04AE755E469817A818B819C8163
S11312000E942717DC01CB018D839E83AF83B887AF
S113121020E030E040E85FE36D817E818F81988536
S11312200E94A11688232CF481E090E09A87898794
S11312303FC020E03FEF4FE757E46D817E818F810F
S113124098850E94221718164CF520E030E040E201
S113125051E469817A818B819C810E942717DC018A
S1131260CB01BC01CD010E94A616DC01CB019A87FB
S113127089870FC080E991E09C878B878B859C854B
S11312800197F1F79C878B8789859A8501979A87BF
S1131290898789859A85892B69F714C06D817E8138
S11312A08F8198850E94A616DC01CB019A878987D5
S11312B089859A859E878D878D859E850197F1F70F
S11312C09E878D878F85988960E80E947109000048
S11312D060960FB6F894DEBF0FBECDBFDF91CF91FD
S11312E00895CF93DF93CDB7DEB7EB970FB6F8949D
S11312F0DEBF0FBECDBF9AAF89AF6BAF8BAD82950A
S11313008F70382F317089AD9AADFC018281938141
S11313100596FC01208189AD9AADFC0182819381FF
S11313200496FC018081432F622F0E942C108BAD08
S1131330829586958770382F317089AD9AADFC01FE
S1131340828193810796FC01208189AD9AADFC01CD
S1131350828193810696FC018081432F622F0E9433
S11313602C108BAD8295869586958370382F3170BD
S113137089AD9AADFC01828193810996FC0120819B
S113138089AD9AADFC01828193810896FC0180812C
S1131390432F622F0E942C108BAD382F331F33271D
S11313A0331F89AD9AADFC01828193810B96FC01B8
S11313B0208189AD9AADFC01828193810A96FC015A
S11313C08081432F622F0E942C1089AD9AADFC01BD
S11313D0828193810396FC01208189AD9AADFC0141
S11313E0828193810296FC01808140E0622F0E94F9
S11313F02C1089AD9AADFC01828193810196FC0188
S1131400208189AD9AADFC0182819381FC018081A8
S113141041E0622F0E942C1080E090E0A0E8BFE33E
S113142089839A83AB83BC8320E030E04AE755E4A8
S113143069817A818B819C810E942717DC01CB0111
S11314408FA798ABA9ABBAAB20E030E040E85FE3EC
S11314506FA578A989A99AA90E94A11688232CF4BA
S113146081E090E09CAB8BAB3FC020E03FEF4FE7C7
S113147057E46FA578A989A99AA90E94221718167A
S11314804CF520E030E040E251E469817A818B81BF
S11314909C810E942717DC01CB01BC01CD010E9475
S11314A0A616DC01CB019CAB8BAB0FC080E991E0AD
S11314B09EAB8DAB8DA99EA90197F1F79EAB8DAB29
S11314C08BA99CA901979CAB8BAB8BA99CA9892B5D
S11314D069F714C06FA578A989A99AA90E94A616CC
S11314E0DC01CB019CAB8BAB8BA99CA998AF8FABD8
S11314F08FA998AD0197F1F798AF8FAB89AD9AADED
S1131500FC01828193810196FC01208189AD9AAD11
S1131510FC0182819381FC01808140E0622F0E9462
S11315202C1080E090E0A0E8BFE38D839E83AF831E
S1131530B88720E030E04AE755E46D817E818F81F1
S113154098850E942717DC01CB018DA39EA3AFA32E
S1131550B8A720E030E040E85FE36DA17EA18FA151
S113156098A50E94A11688232CF481E090E09AA704
S113157089A73FC020E03FEF4FE757E46DA17EA16C
S11315808FA198A50E94221718164CF520E030E090
S113159040E251E46D817E818F8198850E942717F6
S11315A0DC01CB01BC01CD010E94A616DC01CB01FC
S11315B09AA789A70FC080E991E09CA78BA78BA568
S11315C09CA50197F1F79CA78BA789A59AA50197DC
S11315D09AA789A789A59AA5892B69F714C06DA133
S11315E07EA18FA198A50E94A616DC01CB019AA723
S11315F089A789A59AA59EA78DA78DA59EA50197C4
S1131600F1F79EA78DA78BAD382F317089AD9AADB8
S1131610FC01828193810596FC01208189AD9AADFC
S1131620FC01828193810496FC018081432F622F07
S11316300E942C108BAD8695382F317089AD9AADF0
S1131640FC01828193810796FC01208189AD9AADCA
S1131650FC01828193810696FC018081432F622FD5
S11316600E942C108BAD86958695382F317089ADEC
S11316709AADFC01828193810996FC01208189AD98
S11316809AADFC01828193810896FC018081432FED
S1131690622F0E942C108BAD869586958695382FE7
S11316A0317089AD9AADFC01828193810B96FC0166
S11316B0208189AD9AADFC01828193810A96FC0157
S11316C08081432F622F0E942C1089AD9AADFC01BA
S11316D0828193810396FC01208189AD9AADFC013E
S11316E0828193810296FC01808140E0622F0E94F6
S11316F02C1089AD9AADFC01828193810196FC0185
S1131700208189AD9AADFC0182819381FC018081A5
S113171041E0622F0E942C1080E090E0A0E8BFE33B
S113172089879A87AB87BC8720E030E04AE755E495
S113173069857A858B859C850E942717DC01CB01FE
S11317408B8F9C8FAD8FBE8F20E030E040E85FE34D
S11317506B8D7C8D8D8D9E8D0E94A11688232CF41B
S113176081E090E098A38F8F3FC020E03FEF4FE7E8
S113177057E46B8D7C8D8D8D9E8D0E9422171816DB
S11317804CF520E030E040E251E469857A858B85B0
S11317909C850E942717DC01CB01BC01CD010E946E
S11317A0A616DC01CB0198A38F8F0FC080E991E0CE
S11317B09AA389A389A19AA10197F1F79AA389A36E
S11317C08F8D98A1019798A38F8F8F8D98A1892BC6
S11317D069F714C06B8D7C8D8D8D9E8D0E94A6162D
S11317E0DC01CB0198A38F8F8F8D98A19CA38BA331
S11317F08BA19CA10197F1F79CA38BA389AD9AAD12
S1131800FC01828193810196FC01208189AD9AAD0E
S1131810FC0182819381FC01808140E0622F0E945F
S11318202C1080E090E0A0E8BFE38D879E87AF870F
S1131830B88B20E030E04AE755E46D857E858F85DE
S113184098890E942717DC01CB01898B9A8BAB8B7B
S1131850BC8B20E030E040E85FE369897A898B89BA
S11318609C890E94A11688232CF481E090E09E8B31
S11318708D8B3FC020E03FEF4FE757E469897A89B9
S11318808B899C890E94221718164CF520E030E0C1
S113189040E251E46D857E858F8598890E942717E3
S11318A0DC01CB01BC01CD010E94A616DC01CB01F9
S11318B09E8B8D8B0FC080E991E0988F8F8B8F89E1
S11318C0988D0197F1F7988F8F8B8D899E89019759
S11318D09E8B8D8B8D899E89892B69F714C06989AC
S11318E07A898B899C890E94A616DC01CB019E8B88
S11318F08D8B8D899E899A8F898F898D9A8D019779
S1131900F1F79A8F898F0000EB960FB6F894DEBF3B
S11319100FBECDBFDF91CF910895CF93DF93CDB7A5
S1131920DEB740E061E080E00E94230E0000DF911A
S1131930CF910895CF93DF931F92CDB7DEB719826D
S113194061E080E00E942511898389810F90DF91F5
S1131950CF910895CF93DF9300D0CDB7DEB78A83BC
S113196080917E00882311F58091C100882F90E03A
S11319708F519F4FFC0110828091C000882F90E00E
S11319808A529F4FFC0110821092C1001092C00035
S113199081E080937E002091BE003091BF0061EE13
S11319A070E086ED90E0F901099550C019828A81B2
S11319B0898389818033C8F089818A33B0F4809126
S11319C0C1008730D1F18091C100882F90E08F5100
S11319D09F4F2981FC01208389810E94AF1580914A
S11319E0C1008F5F8093C10028C08981813618F0BF
S11319F089818B3730F089818134C8F089818B35B6
S1131A00B0F48091C0008A30C1F08091C000882F6A
S1131A1090E08A529F4F2981FC01208389810E9492
S1131A20AF158091C0008F5F8093C00006C08DE029
S1131A300E94AF158AE00E94AF158091C1008730E3
S1131A4029F489818D3011F410927E0000000F90EA
S1131A500F90DF91CF910895CF93DF93CDB7DEB789
S1131A6087E790E00E94E9140000DF91CF91089588
S1131A70CF93DF9300D0CDB7DEB79A8389838AEA08
S1131A809CE00E94011689819A819093BF00809303
S1131A90BE0000000F900F90DF91CF910895CF9377
S1131AA0DF93CDB7DEB70E94DE020E940D03FDCFA7
S1131AB01F920F9200905F000F9211242F933F9377
S1131AC04F935F936F937F938F939F93AF93BF9342
S1131AD0EF93FF93CF93DF93CDB7DEB78091C2002E
S1131AE09091C300FC0109950000DF91CF91FF9113
S1131AF0EF91BF91AF919F918F917F916F915F9182
S1131B004F913F912F910F9000925F000F901F9083
S1131B1018951F920F9200905F000F9211242F933B
S1131B203F934F935F936F937F938F939F93AF9361
S1131B30BF93EF93FF93CF93DF93CDB7DEB780913D
S1131B40C4009091C500FC0109950000DF91CF917C
S1131B50FF91EF91BF91AF919F918F917F916F9181
S1131B605F914F913F912F910F9000925F000F90E2
S1131B701F9018951F920F9200905F000F921124EE
S1131B802F933F934F935F936F937F938F939F9381
S1131B90AF93BF93EF93FF93CF93DF93CDB7DEB7AC
S1131BA08091C6009091C700FC0109950000DF9167
S1131BB0CF91FF91EF91BF91AF919F918F917F91C1
S1131BC06F915F914F913F912F910F9000925F0021
S1131BD00F901F901895CF93DF93CDB7DEB78BE3AB
S1131BE090E0FC0110828AE390E0FC01108289E31A
S1131BF090E0FC01108288E390E0FC01108287E30E
S1131C0090E0FC01108286E390E0FC01108285E301
S1131C1090E0FC01108284E390E0FC01108283E3F5
S1131C2090E0FC01108282E390E0FC01108281E3E9
S1131C3090E0FC01108280E390E0FC01108200003F
S1131C40DF91CF910895CF93DF9300D01F92CDB74A
S1131C50DEB789836A834B838A81883008F0F5C1B3
S1131C608981882F90E08130910509F486C0823003
S1131C7091051CF4892B49F0E8C18230910509F4DF
S1131C80F4C0039709F469C1E0C18B81882F90E007
S1131C908130910509F45BC08230910571F1892B83
S1131CA009F06AC08AE390E02AE330E0F901208178
S1131CB0622F2A81422F50E021E030E002C0220F3F
S1131CC0331F4A95E2F720952623FC0120838BE3FA
S1131CD090E02BE330E0F9012081622F2A81422F2A
S1131CE050E021E030E002C0220F331F4A95E2F7B2
S1131CF020952623FC0120833FC08AE390E02AE359
S1131D0030E0F9012081622F2A81422F50E021E046
S1131D1030E002C0220F331F4A95E2F720952623B4
S1131D20FC0120838BE390E02BE330E0F901208178
S1131D30622F2A81422F50E021E030E002C0220FBE
S1131D40331F4A95E2F7262BFC01208315C08AE352
S1131D5090E02AE330E0F9012081622F2A81422FAA
S1131D6050E021E030E002C0220F331F4A95E2F731
S1131D70262BFC012083000068C18B81882F90E012
S1131D808130910509F45BC08230910571F1892B92
S1131D9009F06AC087E390E027E330E0F90120818D
S1131DA0622F2A81422F50E021E030E002C0220F4E
S1131DB0331F4A95E2F720952623FC01208388E30C
S1131DC090E028E330E0F9012081622F2A81422F3C
S1131DD050E021E030E002C0220F331F4A95E2F7C1
S1131DE020952623FC0120833FC087E390E027E36E
S1131DF030E0F9012081622F2A81422F50E021E056
S1131E0030E002C0220F331F4A95E2F720952623C3
S1131E10FC01208388E390E028E330E0F90120818D
S1131E20622F2A81422F50E021E030E002C0220FCD
S1131E30331F4A95E2F7262BFC01208315C087E364
S1131E4090E027E330E0F9012081622F2A81422FBC
S1131E5050E021E030E002C0220F331F4A95E2F740
S1131E60262BFC0120830000F0C08B81882F90E09A
S1131E708130910509F45BC08230910571F1892BA1
S1131E8009F06AC084E390E024E330E0F9012081A2
S1131E90622F2A81422F50E021E030E002C0220F5D
S1131EA0331F4A95E2F720952623FC01208385E31E
S1131EB090E025E330E0F9012081622F2A81422F4E
S1131EC050E021E030E002C0220F331F4A95E2F7D0
S1131ED020952623FC0120833FC084E390E024E383
S1131EE030E0F9012081622F2A81422F50E021E065
S1131EF030E002C0220F331F4A95E2F720952623D3
S1131F00FC01208385E390E025E330E0F9012081A2
S1131F10622F2A81422F50E021E030E002C0220FDC
S1131F20331F4A95E2F7262BFC01208315C084E376
S1131F3090E024E330E0F9012081622F2A81422FCE
S1131F4050E021E030E002C0220F331F4A95E2F74F
S1131F50262BFC012083000078C08B81882F90E021
S1131F608130910509F45BC08230910571F1892BB0
S1131F7009F06AC081E390E021E330E0F9012081B7
S1131F80622F2A81422F50E021E030E002C0220F6C
S1131F90331F4A95E2F720952623FC01208382E330
S1131FA090E022E330E0F9012081622F2A81422F60
S1131FB050E021E030E002C0220F331F4A95E2F7DF
S1131FC020952623FC0120833FC081E390E021E398
S1131FD030E0F9012081622F2A81422F50E021E074
S1131FE030E002C0220F331F4A95E2F720952623E2
S1131FF0FC01208382E390E022E330E0F9012081B8
S1132000622F2A81422F50E021E030E002C0220FEB
S1132010331F4A95E2F7262BFC01208315C081E388
S113202090E021E330E0F9012081622F2A81422FE0
S113203050E021E030E002C0220F331F4A95E2F75E
S1132040262BFC0120830000000000000F900F905D
S11320500F90DF91CF910895CF93DF9300D01F921B
S1132060CDB7DEB789836A834B838A81883008F0D1
S1132070E5C08981882F90E08130910509F442C040
S1132080823091051CF4892B49F0D8C08230910527
S113209009F46CC0039709F49DC0D0C08B81882FCC
S11320A090E00097C1F0019709F02BC08BE390E01A
S11320B02BE330E0F9012081622F2A81422F50E086
S11320C021E030E002C0220F331F4A95E2F7262BAD
S11320D0FC01208316C08BE390E02BE330E0F90190
S11320E02081622F2A81422F50E021E030E002C09B
S11320F0220F331F4A95E2F720952623FC01208303
S113210000009CC08B81882F90E00097C1F001975C
S113211009F02BC088E390E028E330E0F901208146
S1132120622F2A81422F50E021E030E002C0220FCA
S1132130331F4A95E2F7262BFC01208316C088E35F
S113214090E028E330E0F9012081622F2A81422FB8
S113215050E021E030E002C0220F331F4A95E2F73D
S113216020952623FC012083000068C08B81882FE2
S113217090E00097C1F0019709F02BC085E390E04F
S113218025E330E0F9012081622F2A81422F50E0BB
S113219021E030E002C0220F331F4A95E2F7262BDC
S11321A0FC01208316C085E390E025E330E0F901CB
S11321B02081622F2A81422F50E021E030E002C0CA
S11321C0220F331F4A95E2F720952623FC01208332
S11321D0000034C08B81882F90E00097C1F00197F4
S11321E009F02BC082E390E022E330E0F901208182
S11321F0622F2A81422F50E021E030E002C0220FFA
S1132200331F4A95E2F7262BFC01208316C082E394
S113221090E022E330E0F9012081622F2A81422FED
S113222050E021E030E002C0220F331F4A95E2F76C
S113223020952623FC0120830000000000000F905D
S11322400F900F90DF91CF910895CF93DF9300D03B
S11322501F92CDB7DEB78A836B8319828B81883056
S113226008F056C08A81882F90E081309105E9F00A
S1132270823091051CF4892B39F04AC082309105D3
S113228029F10397A1F144C089E390E0FC01808126
S1132290882F90E02B81222F30E002C095958795FE
S11322A02A95E2F78170898333C086E390E0FC01CC
S11322B08081882F90E02B81222F30E002C09595F9
S11322C087952A95E2F78170898322C083E390E0A1
S11322D0FC018081882F90E02B81222F30E002C006
S11322E0959587952A95E2F78170898311C080E3DB
S11322F090E0FC018081882F90E02B81222F30E038
S113230002C0959587952A95E2F78170898300002C
S113231089810F900F900F90DF91CF910895CF9303
S1132320DF9300D0CDB7DEB789836A838A81883092
S113233008F067C08981882F90E08130910511F100
S1132340823091051CF4892B41F05BC082309105E9
S113235071F1039709F440C054C08BE390E02BE380
S113236030E0F9012081622F2A81422F50E021E0E0
S113237030E002C0220F331F4A95E2F72627FC0102
S113238020833FC088E390E028E330E0F901208116
S1132390622F2A81422F50E021E030E002C0220F58
S11323A0331F4A95E2F72627FC0120832AC085E3E0
S11323B090E025E330E0F9012081622F2A81422F49
S11323C050E021E030E002C0220F331F4A95E2F7CB
S11323D02627FC01208315C082E390E022E330E04D
S11323E0F9012081622F2A81422F50E021E030E060
S11323F002C0220F331F4A95E2F72627FC012083EF
S1132400000000000F900F90DF91CF910895CF93BB
S1132410DF93CDB7DEB740E065E081E00E94230E94
S113242040E067E081E00E94230E41E066E081E045
S11324300E94230E40E064E081E00E94230E00002D
S1132440DF91CF910895CF93DF9300D0CDB7DEB75E
S11324509A83898389819A81FC018081882F90E005
S11324608130910509F46DC08230910509F4E9C009
S1132470892B09F059C183E590E023E530E0F901A7
S1132480408129813A81F9012181242BFC01208397
S113249089819A81FC018281882F90E082309105A4
S11324A0E9F0833091052CF4009761F0019779F0FD
S11324B031C08430910501F184309105B4F0059761
S11324C011F128C01092C9001092C80023C081E005
S11324D090E09093C9008093C8001CC088E090E00D
S11324E09093C9008093C80015C080E490E0909355
S11324F0C9008093C8000EC080E091E09093C900A9
S11325008093C80007C080E094E09093C900809352
S1132510C800000083E590E023E530E0F901208164
S1132520287FFC01208383E590E023E530E0F90176
S1132530408129813A81F9012281242BFC012083E5
S1132540F3C08FE490E02FE430E0F9012081422FC2
S113255029813A81F90121812370242BFC012083F4
S11325608EE490E02EE430E0F9012081422F2981AD
S11325703A81F901218126952695222F30E0220FF8
S1132580331F220F331F220F331F242BFC01208300
S113259089819A81FC018281882F90E082309105A3
S11325A0E9F0833091052CF4009761F0019779F0FC
S11325B031C08430910501F184309105B4F0059760
S11325C011F128C01092CB001092CA0023C081E000
S11325D090E09093CB008093CA001CC088E090E008
S11325E09093CB008093CA0015C080E490E0909350
S11325F0CB008093CA000EC080E091E09093CB00A2
S11326008093CA0007C080E094E09093CB0080934D
S1132610CA0000008EE490E02EE430E0F90120814D
S1132620287FFC0120838EE490E02EE430E0F90161
S1132630408129813A81F9012281242BFC012083E4
S113264073C085E490E025E430E0F90140812981FC
S11326503A81F9012181242BFC01208389819A810B
S1132660FC018281882F90E0092E000CAA0BBB0B81
S113267040E050E027E030E0841B950B2817390731
S1132680D8F1865D9F4FFC010C94DE171092CD00AB
S11326901092CC0032C081E090E09093CD00809302
S11326A0CC002BC088E090E09093CD008093CC00C8
S11326B024C080E290E09093CD008093CC001DC0B4
S11326C080E490E09093CD008093CC0016C080E825
S11326D090E09093CD008093CC000FC080E091E017
S11326E09093CD008093CC0008C080E094E0909358
S11326F0CD008093CC0001C0000085E490E025E487
S113270030E0F9012081287FFC01208385E490E0FA
S113271025E430E0F901408129813A81F9012281DF
S1132720242BFC012083000000000F900F90DF9108
S1132730CF910895CF93DF9300D01F92CDB7DEB72A
S11327409A8389836B8389819A81FC018081882F94
S113275090E08130910589F082309105C9F0892B90
S113276009F021C083E590E023E530E0F9013081F0
S11327702B81232BFC01208316C08FE490E02FE4EF
S113278030E0F90130812B81232BFC0120830BC025
S113279085E490E025E430E0F90130812B81232B9E
S11327A0FC012083000000000F900F900F90DF9138
S11327B0CF910895CF93DF93CDB7DEB727970FB6A8
S11327C0F894DEBF0FBECDBF9A8389836B835D838C
S11327D04C833F832E838EE490E02EE430E0F901B5
S11327E020812061FC0120838EE490E02EE430E01F
S11327F0F9012081277FFC0120838FE490E02FE4FE
S113280030E0F90120812E7FFC0120838FE490E0E9
S11328102FE430E0F90120812D7FFC01208386E440
S113282090E02C813D81FC01318320838B818032B7
S113283019F08B81803341F488E490E02E813F814C
S1132840FC01318320830DC08B81803819F08B818A
S1132850803C39F48AE490E02E813F81FC0131838D
S11328602083000027960FB6F894DEBF0FBECDBFBD
S1132870DF91CF910895CF93DF9300D0CDB7DEB72A
S11328809A83898389819A81FC01858186958695BD
S1132890882F90E081709927892B51F08EE290E087
S11328A02EE230E0F90120812160FC01208309C07F
S11328B08EE290E02EE230E0F90120812E7FFC01CF
S11328C020838DE290E029813A81F90140812981B8
S11328D03A81F9012181422B29813A81F90122812E
S11328E0422B29813A81F9012381422B29813A81A2
S11328F0F9012481422B29813A81F9012581237030
S1132900242B2064FC01208300000F900F90DF91A2
S1132910CF910895CF93DF9300D01F92CDB7DEB748
S113292089837B836A838DE290E0FC018081882F18
S113293090E080749927892BA1F08FE290E029819F
S1132940FC01208300008EE290E0FC01808188235A
S1132950D4F78FE290E0FC0120818A819B81FC0105
S1132960208300000F900F900F90DF91CF91089576
S11329701F920F9200905F000F9211242F933F93A8
S11329804F935F936F937F938F939F93AF93BF9373
S1132990EF93FF93CF93DF93CDB7DEB78091CE0053
S11329A09091CF00FC0109950000DF91CF91FF9138
S11329B0EF91BF91AF919F918F917F916F915F91B3
S11329C04F913F912F910F9000925F000F901F90B5
S11329D018950F931F93CF93DF9300D0CDB7DEB735
S11329E09A83898389819A819093D5008093D400B6
S11329F08AE290E02AE230E0F9012081277EFC019E
S1132A0020838AE290E02AE230E0F9012081422F1B
S1132A1029813A81F9012581222F30E0220F331FC9
S1132A20220F331F220F331F242BFC0120838981A3
S1132A309A81FC01828186958695882F90E0817029
S1132A409927892B51F08AE290E02AE230E0F901DB
S1132A5020812460FC01208309C08AE290E02AE2FC
S1132A6030E0F90120812B7FFC01208380E490E099
S1132A7029813A81F9012281222F30E02370332702
S1132A80220F331F422F29813A81F9012381422BDE
S1132A9029813A81F9012481242B2068FC012083B7
S1132AA009E210E089819A81FC0180819181CC0145
S1132AB0A0E0B0E0880F991FAA1FBB1F880F991FC1
S1132AC0AA1FBB1F880F991FAA1FBB1F880F991F1E
S1132AD0AA1FBB1F9C01AD0180E094E2A4EFB0E00B
S1132AE0BC01CD010E94BC17DA01C9018150F80173
S1132AF0808300E410E089819A81FC0180819181C6
S1132B00CC01A0E0B0E0880F991FAA1FBB1F880F5B
S1132B10991FAA1FBB1F880F991FAA1FBB1F880FCD
S1132B20991FAA1FBB1F9C01AD0180E094E2A4EF92
S1132B30B0E0BC01CD010E94BC17DA01C90181508B
S1132B40882F90E0892F990F990BF801808300005A
S1132B500F900F90DF91CF911F910F910895CF9314
S1132B60DF931F92CDB7DEB7898300008BE290E03C
S1132B70FC018081882F90E080729927892BB1F322
S1132B8089810E94CE1589838CE290E02981FC0121
S1132B90208300000F90DF91CF910895CF93DF93AE
S1132BA000D0CDB7DEB78A8319828091D40090918A
S1132BB0D500FC018281882F90E08130910581F05D
S1132BC0823091051CF4892B39F015C082309105AF
S1132BD059F0039769F00FC08A818F7189830BC004
S1132BE08A818F73898307C08A818F77898303C021
S1132BF08A818983000089810F900F90DF91CF91A2
S1132C000895CF93DF9300D0CDB7DEB79A8389833D
S1132C1089819A819093D3008093D2008AE290E0D4
S1132C202AE230E0F90120812068FC0120830000C1
S1132C300F900F90DF91CF910895CF93DF93CDB78D
S1132C40DEB704C08CE290E0FC0180818BE290E06E
S1132C50FC018081881F8827881F882F90E081705D
S1132C609927892B79F70000DF91CF9108951F925E
S1132C700F9200905F000F9211242F933F934F9374
S1132C805F936F937F938F939F93AF93BF93EF93D0
S1132C90FF93CF93DF931F92CDB7DEB78CE290E022
S1132CA0FC01808189832091D2003091D3008981F5
S1132CB0F901099500000F90DF91CF91FF91EF91F9
S1132CC0BF91AF919F918F917F916F915F914F9140
S1132CD03F912F910F9000925F000F901F901895D5
S1132CE01F920F9200905F000F9211242F933F9335
S1132CF04F935F936F937F938F939F93AF93BF9300
S1132D00EF93FF93CF93DF93CDB7DEB78091D000DD
S1132D109091D100FC0109950000DF91CF91FF91C2
S1132D20EF91BF91AF919F918F917F916F915F913F
S1132D304F913F912F910F9000925F000F901F9041
S1132D4018950E94D51608F481E008950E94011791
S1132D5088F09F5798F0B92F9927B751B0F0E1F058
S1132D60660F771F881F991F1AF0BA95C9F714C008
S1132D70B13091F00E941B17B1E008950C941B1719
S1132D80672F782F8827B85F39F0B93FCCF3869541
S1132D9077956795B395D9F73EF49095809570959E
S1132DA061957F4F8F4F9F4F0895990F0008550FDE
S1132DB0AA0BE0E8FEEF16161706E807F907C0F0BD
S1132DC012161306E407F50798F0621B730B840BC5
S1132DD0950B39F40A2661F0232B242B252B21F49F
S1132DE008950A2609F4A140A6958FEF811D811D3F
S1132DF0089557FD9058440F551F59F05F3F71F0E7
S1132E004795880F97FB991F61F09F3F79F087954D
S1132E100895121613061406551FF2CF4695F1DFD6
S1132E2008C0161617061806991FF1CF8695710566
S1132E30610508940895E894BB2766277727CB019A
S1132E4097F908950E94D51608F48FEF08950E940B
S1132E503A170C94AB170E949D1738F00E94A417E0
S1132E6020F0952311F00C9494170C949A171124C4
S1132E700C941C170E94F91670F3959FC1F3950FDB
S1132E8050E0551F629FF001729FBB27F00DB11DEA
S1132E90639FAA27F00DB11DAA1F649F6627B00D7A
S1132EA0A11D661F829F2227B00DA11D621F739F63
S1132EB0B00DA11D621F839FA00D611D221F749F71
S1132EC03327A00D611D231F849F600D211D822FB8
S1132ED0762F6A2F11249F5750409AF0F1F08823DF
S1132EE04AF0EE0FFF1FBB1F661F771F881F91500C
S1132EF05040A9F79E3F510580F00C9494170C9410
S1132F001C175F3FE4F3983ED4F386957795679555
S1132F10B795F795E7959F5FC1F7FE2B880F911D35
S1132F209695879597F9089597F99F6780E870E0DB
S1132F3060E008959FEF80EC089500240A9416162B
S1132F40170618060906089500240A941216130693
S1132F50140605060895092E0394000C11F4882321
S1132F6052F0BB0F40F4BF2B11F460FF04C06F5F3D
S1132F707F4F8F4F9F4F0895A1E21A2EAA1BBB1BB0
S1132F80FD010DC0AA1FBB1FEE1FFF1FA217B30731
S1132F90E407F50720F0A21BB30BE40BF50B661F47
S1132FA0771F881F991F1A9469F76095709580950B
S1132FB090959B01AC01BD01CF010895EE0FFF1F59
S10F2FC00590F491E02D0994F894FFCFE3
S1132FCC30000000000001020102000202020302B0
S1132FDC04020501070334802503000003000145A6
S1132FEC6E7472616E63652047617465004C6F7713
S1132FFC20506F776572204D6F64652000596F7592
S113300C722049442069732056616C69642000491C
S10D301C6E76616C6964204944007B
S9030000FC
