:020000040800F2
:1000000000280020AD420008FD420008FD42000823
:10001000FD420008FD420008FD420008000000000B
:10002000000000000000000000000000FD42000889
:10003000FD42000800000000FD420008FD420008EB
:10004000FD420008FD420008FD420008FD42000894
:10005000FD420008FD420008D1310008F5310008DA
:10006000193200083D32000861320008FD420008E4
:10007000FD420008FD420008FD420008FD42000864
:10008000FD420008FD420008FD420008FD42000854
:10009000FD420008FD420008FD420008FD42000844
:1000A000FD420008FD420008FD420008FD42000834
:1000B000FD420008FD420008FD420008FD42000824
:1000C000FD420008FD420008FD420008853A000894
:1000D000E13A0008B1410008E94100082142000866
:1000E000FD420008FD42000800000000FD4200083B
:1000F000FD420008FD420008FD420008FD420008E4
:10010000FD420008FD420008FD420008FD420008D3
:10011000FD420008FD420008FD420008FD420008C3
:10012000FD420008FD420008FD420008FD420008B3
:1001300010B5054C237833B9044B13B10448AFF321
:1001400000800123237010BD840000200000000007
:10015000F843000808B5034B1BB103490348AFF34C
:10016000008008BD0000000088000020F84300085F
:1001700081F0004102E000BF83F0004330B54FEA58
:1001800041044FEA430594EA050F08BF90EA020FC5
:100190001FBF54EA000C55EA020C7FEA645C7FEA58
:1001A000655C00F0E2804FEA5454D4EB5555B8BF7B
:1001B0006D420CDD2C4480EA020281EA030382EAEC
:1001C000000083EA010180EA020281EA0303362D7E
:1001D00088BF30BD11F0004F4FEA01314FF4801C51
:1001E0004CEA113102D0404261EB410113F0004F63
:1001F0004FEA03334CEA133302D0524263EB43031A
:1002000094EA050F00F0A780A4F10104D5F1200EB7
:100210000DDB02FA0EFC22FA05F2801841F1000112
:1002200003FA0EF2801843FA05F359410EE0A5F1E6
:1002300020050EF1200E012A03FA0EFC28BF4CF017
:10024000020C43FA05F3C01851EBE37101F00045CD
:1002500007D54FF0000EDCF1000C7EEB00006EEBDA
:100260000101B1F5801F1BD3B1F5001F0CD3490864
:100270005FEA30004FEA3C0C04F101044FEA4452BB
:1002800012F5800F80F09A80BCF1004F08BF5FEA42
:10029000500C50F1000041EB045141EA050130BD22
:1002A0005FEA4C0C404141EB010111F4801FA4F1C5
:1002B0000104E9D191F0000F04BF01460020B1FA1A
:1002C00081F308BF2033A3F10B03B3F120020CDA52
:1002D0000C3208DD02F1140CC2F10C0201FA0CF030
:1002E00021FA02F10CE002F11402D8BFC2F1200C95
:1002F00001FA02F120FA0CFCDCBF41EA0C0190404B
:10030000E41AA2BF01EB0451294330BD6FEA040493
:100310001F3C1CDA0C340EDC04F11404C4F120027E
:1003200020FA04F001FA02F340EA030021FA04F390
:1003300045EA030130BDC4F10C04C4F1200220FAE7
:1003400002F001FA04F340EA0300294630BD21FA25
:1003500004F0294630BD94F0000F83F4801306BFEB
:1003600081F480110134013D4EE77FEA645C18BFDF
:100370007FEA655C29D094EA050F08BF90EA020F76
:1003800005D054EA000C04BF1946104630BD91EA6E
:10039000030F1EBF0021002030BD5FEA545C05D171
:1003A0004000494128BF41F0004130BD14F58004B0
:1003B0003CBF01F5801130BD01F0004545F0FE4124
:1003C00041F470014FF0000030BD7FEA645C1ABF59
:1003D000194610467FEA655C1CBF0B46024650EA90
:1003E000013406BF52EA033591EA030F41F40021BC
:1003F00030BD00BF90F0000F04BF0021704730B542
:100400004FF4806404F132044FF000054FF0000116
:1004100050E700BF90F0000F04BF0021704730B5D7
:100420004FF4806404F1320410F0004548BF4042AC
:100430004FF000013EE700BF42004FEAE2014FEA01
:1004400031014FEA02701FBF12F07F4393F07F4FDC
:1004500081F06051704732F07F4208BF704793F0DF
:100460007F4F04BF41F40021704730B54FF46074F2
:1004700001F0004521F000411CE700BF50EA0102F5
:1004800008BF704730B54FF000050AE050EA01029E
:1004900008BF704730B511F0004502D5404261EB0E
:1004A00041014FF4806404F132045FEA915C3FF44F
:1004B000D8AE4FF003025FEADC0C18BF03325FEAEC
:1004C000DC0C18BF033202EBDC02C2F1200300FA9D
:1004D00003FC20FA02F001FA03FE40EA0E0021FAC2
:1004E00002F11444BDE600BF70B54FF0FF0C4CF4B0
:1004F000E06C1CEA11541DBF1CEA135594EA0C0F62
:1005000095EA0C0F00F0DEF82C4481EA030621EA9C
:100510004C5123EA4C5350EA013518BF52EA0335D7
:1005200041F4801143F4801338D0A0FB02CE4FF089
:100530000005E1FB02E506F00042E0FB03E54FF0B9
:100540000006E1FB03569CF0000F18BF4EF0010EB1
:10055000A4F1FF04B6F5007F64F5407404D25FEAAD
:100560004E0E6D4146EB060642EAC62141EA555160
:100570004FEAC52040EA5E504FEACE2EB4F1FD0CA2
:1005800088BFBCF5E06F1ED8BEF1004F08BF5FEA20
:10059000500E50F1000041EB045170BD06F00046D2
:1005A00046EA010140EA020081EA0301B4EB5C047F
:1005B000C2BFD4EB0C0541EA045170BD41F4801177
:1005C0004FF0000E013C00F3AB8014F1360FDEBF9C
:1005D000002001F0004170BDC4F10004203C35DA78
:1005E0000C341BDC04F11404C4F1200500FA05F3FB
:1005F00020FA04F001FA05F240EA020001F000429C
:1006000021F0004110EBD37021FA04F642EB060111
:100610005EEA430E08BF20EAD37070BDC4F10C043B
:10062000C4F1200500FA04F320FA05F001FA04F2FF
:1006300040EA020001F0004110EBD37041F10001EB
:100640005EEA430E08BF20EAD37070BDC4F12005F6
:1006500000FA05F24EEA020E20FA04F301FA05F25E
:1006600043EA020321FA04F001F0004121FA04F206
:1006700020EA020000EBD3705EEA430E08BF20EAD6
:10068000D37070BD94F0000F0FD101F00046400010
:1006900041EB010111F4801F08BF013CF7D041EA92
:1006A000060195F0000F18BF704703F00046520096
:1006B00043EB030313F4801F08BF013DF7D043EA67
:1006C0000603704794EA0C0F0CEA135518BF95EA1D
:1006D0000C0F0CD050EA410618BF52EA4306D1D1A4
:1006E00081EA030101F000414FF0000070BD50EAC3
:1006F000410606BF1046194652EA430619D094EA4D
:100700000C0F02D150EA013613D195EA0C0F05D136
:1007100052EA03361CBF104619460AD181EA03018A
:1007200001F0004141F0FE4141F470014FF0000042
:1007300070BD41F0FE4141F4780170BD70B54FF0DD
:10074000FF0C4CF4E06C1CEA11541DBF1CEA13555D
:1007500094EA0C0F95EA0C0F00F0A7F8A4EB05043F
:1007600081EA030E52EA03354FEA013100F0888036
:100770004FEA03334FF0805545EA131343EA1263FF
:100780004FEA022245EA111545EA10654FEA0026B4
:100790000EF000419D4208BF964244F1FD0404F56D
:1007A000407402D25B084FEA3202B61A65EB0305C9
:1007B0005B084FEA32024FF480104FF4002CB6EB86
:1007C000020E75EB030E22BFB61A754640EA0C0006
:1007D0005B084FEA3202B6EB020E75EB030E22BF46
:1007E000B61A754640EA5C005B084FEA3202B6EB87
:1007F000020E75EB030E22BFB61A754640EA9C0046
:100800005B084FEA3202B6EB020E75EB030E22BF15
:10081000B61A754640EADC0055EA060E18D04FEAD3
:10082000051545EA16754FEA06164FEAC30343EA73
:1008300052734FEAC2025FEA1C1CC0D111F4801F40
:100840000BD141EA00014FF000004FF0004CB6E739
:1008500011F4801F04BF01430020B4F1FD0C88BFD8
:10086000BCF5E06F3FF6AFAEB5EB030C04BFB6EBE3
:10087000020C5FEA500C50F1000041EB045170BDD6
:100880000EF0004E4EEA113114EB5C04C2BFD4EB03
:100890000C0541EA045170BD41F480114FF0000E87
:1008A000013C90E645EA060E8DE60CEA135594EA03
:1008B0000C0F08BF95EA0C0F3FF43BAF94EA0C0F06
:1008C0000AD150EA01347FF434AF95EA0C0F7FF47B
:1008D00025AF104619462CE795EA0C0F06D152EACF
:1008E00003353FF4FDAE1046194622E750EA4106B3
:1008F00018BF52EA43067FF4C5AE50EA41047FF4C4
:100900000DAF52EA43057FF4EBAE12E74A0011D275
:1009100012F5001211D20DD56FF47873B3EB625259
:100920000ED44FEAC12343F0004343EA505323FA65
:1009300002F070474FF00000704750EA013002D1DA
:100940004FF0FF3070474FF00000704780B485B023
:1009500000AF78607B68FB600BE00A23BB6002E0BD
:10096000BB68013BBB60BB68002BF9D1FB68013B56
:10097000FB60FB68002BF0D100BF1437BD4680BC84
:100980007047000080B588B000AF2B233B83002365
:10099000FB8207F1080300221A605A60C3F807209F
:1009A0003B4600221A605A600023FB770023BB7786
:1009B00000237B7700220421022002F029FD07F1A9
:1009C00016031A460021002002F066FF07F1160206
:1009D00007F118031946002002F05EFFFB8A602B26
:1009E00002D9FB8A7A2B05D9FB8A402B0ED9FB8AC8
:1009F0005A2B0BD8FA8ABB7FD2B207F120010B44E5
:100A000003F8182CBB7F0133BB7710E0FB8A2F2B38
:100A10000DD9FB8A392B0AD8FA8A7B7FD2B207F12B
:100A200020010B4403F8202C7B7F01337B77FB8A6A
:100A3000242BCBD1BB7F07F120021344002203F803
:100A4000182C7B7F07F120021344002203F8202C8E
:100A50003A4B1B78002B0AD130233B8307F1160257
:100A600007F118031946002002F016FF5CE000238E
:100A7000FB7701233B770A23FB760023FB7716E005
:100A8000FB7F162202FB03F32D4A1A4407F10803E9
:100A90001146184600F0F0FC03463B773B7F002BE5
:100AA00002D1FB7FFB7607E0FB7F0133FB77234B13
:100AB0001B78FA7F9A42E3D33B7F002B14D11F4B64
:100AC0001B78FA7E9A420FD801233B77FB7E1622D1
:100AD00002FB03F30B331A4A1A443B4611461846ED
:100AE00000F0CAFC03463B773B7F002B0DD131233E
:100AF0003B8307F1160207F118031946002002F0A4
:100B0000CBFEFB8A242BF2D00EE030233B83302334
:100B10003B8307F1160207F118031946002002F083
:100B2000BBFEFB8A242BF2D001220421022002F01A
:100B30006FFC00BF2037BD4680BD00BF68010020AC
:100B40006C01002080B500AF044801F052FB04495D
:100B5000024801F0EDFA00BF80BD00BFA0000020F8
:100B60001044000880B400AF2F4B4D221A702E4B5A
:100B70006F225A702C4B68229A702B4B6122DA70CC
:100B8000294B6D221A71284B65225A71264B64221B
:100B90009A71254B00229A74234B3022DA72224B31
:100BA00030221A73204B30225A731F4B30229A7313
:100BB0001D4B3022DA731C4B30221A741A4B31222F
:100BC0005A74194B00229A74174B61229A75164B6E
:100BD0006C22DA75144B69221A76134B00225A766E
:100BE000114B312283F821200F4B322283F822202F
:100BF0000D4B332283F823200B4B342283F824201F
:100C0000094B352283F82520074B362283F826200E
:100C1000054B372283F82720034B002283F8282036
:100C200000BFBD4680BC70473C01002080B400AFCF
:100C3000314B4D221A70304B6F225A702E4B682266
:100C40009A702D4B6122DA702B4B6D221A712A4B50
:100C500065225A71284B64229A71274B00229A749C
:100C6000254B3022DA72244B30221A73224B302269
:100C70005A73214B30229A731F4B3022DA731E4B6A
:100C800030221A741C4B31225A741B4B00229A7466
:100C9000194B61229A75184B6C22DA75164B692232
:100CA0001A76154B00225A76134B312283F82120F5
:100CB000114B322283F822200F4B332283F823205A
:100CC0000D4B342283F824200B4B352283F825204A
:100CD000094B362283F82620074B372283F827203A
:100CE000054B002283F82820044B02221A7000BF13
:100CF000BD4680BC704700BF6C0100206801002029
:100D000080B588B000AF00237B830023FB8307F10D
:100D10000C0300221A605A60C3F807203B1D002212
:100D20001A605A6000237B770C21714801F01DFA8C
:100D30006F4801F05EFA6F496D4801F0F9F9012240
:100D400000216B4801F020FA0F21694801F00DFAEB
:100D500007F11A031946002002F0C0FF07F11A0339
:100D60001946002002F062FF7A8BFB8BD2B207F1AA
:100D700020010B4403F8142C7B8BDBB219465C4832
:100D800001F0F9F8FB8B0133FB83FB8B0A2B02D8B4
:100D90007B8B0D2BDCD1FB8B013B07F12002134435
:100DA000002203F8142C0C21514801F0DEF9022234
:100DB00000214F4801F0E8F94F494D4801F0B8F9DA
:100DC000032200214A4801F0DFF90023FB830F21B1
:100DD000474801F0CAF907F11A031946002002F04A
:100DE0007DFF07F11A031946002002F01FFF7A8BDE
:100DF000FB8BD2B207F120010B4403F81C2C2A21F3
:100E00003B4801F0B8F8FB8B0133FB83FB8B072BCE
:100E100002D87B8B0D2BDED1FB8B013B07F120022F
:100E20001344002203F81C2C07F10C033349184625
:100E300000F022FB0346002B35D13B1D30491846FC
:100E400000F01AFB0346002B0AD101237B772D4BC0
:100E500000221A7000222C49002003F0FFF941E023
:100E6000234801F0C6F901220221214801F08CF942
:100E700026491F4801F05CF9022204211C4801F0B8
:100E800083F923491A4801F053F90A20FFF75EFD60
:100E900000237B7700221F49002003F0DFF9194B64
:100EA00001221A701EE0124801F0A3F9012202216A
:100EB0000F4801F069F915490D4801F039F902228E
:100EC00006210B4801F060F91349094801F030F997
:100ED00000221049002003F0C1F90A4B01221A70C8
:100EE00000237B777B7F18462037BD4680BD00BF3F
:100EF000A000002020440008304400083C010020ED
:100F00004701002000000020404400088C440008F5
:100F100098440008A4440008F444000890B583B045
:100F200000AF7C4B1B78022B00F2D7800023BB80E4
:100F30000023BB710023BB7110E0BB79764AD35C00
:100F4000012B08D1BB79FB71BB79734A0021D154C5
:100F50000023BB7105E0BB790133BB71BB79022B68
:100F6000EBD90C216D4801F000F96C4801F041F912
:100F700000226B49002003F071F96A49674801F0CB
:100F8000D7F801220021654801F0FEF80F216348DF
:100F900001F0EBF82AE03B1D1946002002F09EFE0E
:100FA000BB88602B02D9BB887A2B05D9BB88402B24
:100FB0001CD9BB885A2B19D83B1D1946002002F0BA
:100FC00035FEBB88DBB21946544800F0D4FFB9881F
:100FD000FA79BB79CCB25449162000FB02F20A44DC
:100FE000134422461A70BB790133BB71BB880D2BA9
:100FF00002D0BB790A2BCED9FA79BB790133BB7108
:10100000BB794949162000FB02F20A44134400222E
:101010001A7000224549002003F020F90C213F48B6
:1010200001F0A3F8022200213C4801F0ADF840494C
:101030003A4801F07DF803220021384801F0A4F875
:101040000023BB710023BB800F21344801F08DF8D1
:101050003B1D1946002002F041FEBB882F2B1DD9F5
:10106000BB88392B1AD83B1D1946002002F0DEFD43
:10107000BB88DBB21946294800F07DFFB988FA79B0
:10108000BB79CCB22849162000FB02F20A44134473
:101090000B3322461A70BB790133BB71BB79072B26
:1010A00002D8BB880D2BD3D1FA79BB791E49162003
:1010B00000FB02F20A4413440B3300221A70154B52
:1010C0001B780133DAB2134B1A7000221949002041
:1010D00003F0C4F800F018FC18E00C210F4801F0F0
:1010E00044F80E4801F085F813490C4801F020F847
:1010F00001220221094801F047F81049074801F090
:1011000017F8C820FFF722FC00F050FB00BF0C3797
:10111000BD4690BD6801002004000020A000002012
:10112000FC4400084C4500086C0100205C450008A8
:10113000604500086C450008AC450008BC45000847
:1011400080B58AB000AF0346FB71BD4B1B78002B06
:1011500000F04F81002387F82730FB79002B40F007
:101160002B810C21B74801F000F8B64801F041F896
:101170000022B549002003F071F8B449B14800F0ED
:10118000D7FF01220021AF4800F0FEFF0F21AD483C
:1011900000F0EBFF0023FB812BE007F10E03194663
:1011A000002002F09BFDFB89602B02D9FB897A2B82
:1011B00005D9FB89402B1CD9FB895A2B19D807F17B
:1011C0000E031946002002F031FDFB89DBB21946FF
:1011D0009C4800F0D0FEFA8997F82730D2B207F188
:1011E00028010B4403F8102C97F82730013387F8B7
:1011F0002730FB890D2B03D097F827300A2BCCD949
:1012000097F8273007F128021344002203F8102C26
:101210000023FB81002387F8273000228C4900201F
:1012200003F01CF80C21874800F09FFF02220021E8
:10123000844800F0A9FF8749824800F079FF032223
:101240000021804800F0A0FF002387F8273000230A
:10125000FB810F217B4800F088FF07F10E03194640
:10126000002002F03BFDFB892F2B1CD9FB89392B79
:1012700019D807F10E031946002002F0D7FCFB89AC
:10128000DBB219466F4800F076FEFA8997F82730EE
:10129000D2B207F128010B4403F8182C97F8273035
:1012A000013387F8273097F82730072B02D8FB89BE
:1012B0000D2BD2D197F8273007F1280213440022D2
:1012C00003F8182C002387F82730012387F82630ED
:1012D0000A2387F82530002387F827301DE097F888
:1012E0002730162202FB03F35B4A1A4407F1180366
:1012F0001146184600F0C0F8034687F8263097F8E4
:101300002630002B04D197F8273087F825300AE0E3
:1013100097F82730013387F82730494B1B7897F827
:1013200027209A42DBD397F82630002B19D1444B63
:101330001B7897F825209A4213D3012387F826308B
:1013400097F82530162202FB03F30B33424A1A4466
:1013500007F110031146184600F08EF8034687F88F
:10136000263097F82630002B12D197F825303B4ACB
:101370000121D154324B1B78013BDAB2304B1A7049
:1013800000223749002002F069FF00F0DDFA52E048
:101390002C4800F02EFF022202212A4800F0F4FE21
:1013A0003049284800F0C4FE00222F49002002F0F6
:1013B00055FF00F0FBF93EE0002387F8273009E0F5
:1013C00097F82730254A0121D15497F82730013367
:1013D00087F8273097F82730022BF1D9184B0022D5
:1013E0001A7000221E49002002F038FF00F0ACFA0B
:1013F00021E00C21134800F0B8FE124800F0F9FE7D
:101400001A49104800F094FE012202210D4800F014
:10141000BBFE17490B4800F08BFE0222022109484F
:1014200000F0B2FE1349074800F082FEC820FFF723
:101430008DFA00F0BBF900BF2837BD4680BD00BF64
:1014400068010020A0000020CC4500084C450008A1
:101450005C450008604500086C0100200400002085
:10146000184600086046000870460008AC450008B1
:10147000B8460008C846000880B485B000AF786060
:1014800039600023FB730023BB730FE0FB7B7A689A
:1014900013441A78FB7B39680B441B789A4202D0BC
:1014A0000123BB730EE0FB7B0133FB73FB7B7A688C
:1014B00013441B78002B05D0FB7B3A6813441B7840
:1014C000002BE3D1BB7B18461437BD4680BC704768
:1014D00080B500AF02220421022001F0D3FE0122D8
:1014E0000421022001F094FF134B00225A80124B7A
:1014F00000221A71104B0022DA800F4B00221A7260
:101500000D4B00225A720C4B18221A730A4B0422FC
:101510001A70094B00225A73074B4FF440725A81DC
:10152000054B00221A610449002002F033F9002023
:1015300002F0F8F900BF80BDA800002080B500AF20
:10154000154B04221A70144B10225A70124B134A76
:101550005A60114800F0A9FC11490F4800F0E8FD5D
:10156000012204210C4800F00FFE0E490A4800F049
:10157000DFFD00226421084800F04AF80022002123
:10158000054800F001FE0C21034800F0EEFD00F0DC
:101590000DF900BF80BD00BFA000002008000020A2
:1015A000D8460008E046000880B500AF002002F0F1
:1015B00001FD154B0C221A70134B4FF416525A6052
:1015C000114B00221A81104B00225A810E4B00222F
:1015D0009A810D4B0022DA810B4B00221A820A4BB2
:1015E00000225A82084B00229A61074B0022DA82BD
:1015F0000549002002F0A2FA00220449002002F06E
:101600002DFE00BF80BD00BFBC000020F0460008DA
:1016100080B584B000AF78600B46FB7013463B800A
:1016200000221449786800F0F7FD02220021786852
:1016300000F0AAFDFB781B010F4A82FB0312521136
:10164000DB17D31AFB700023FB600AE000217868E7
:1016500000F091FC3B881846FFF778F9FB680133EE
:10166000FB60FB78FA689A42F0DB00BF1037BD469A
:1016700080BD00BF140000201F85EB5180B584B0F1
:1016800000AF78600B46FB7013463B8002221D4979
:10169000786800F0C1FD01220421786800F074FD33
:1016A0001949786800F044FD02220021786800F0B2
:1016B0006BFDFB781B01154A82FB03125211DB17ED
:1016C000D31AFB700023FB600AE00221786800F067
:1016D00052FC3B881846FFF739F9FB680133FB6081
:1016E000FB78FA689A42F0DB03220621786800F062
:1016F0004BFD0749786800F01BFD00BF1037BD4661
:1017000080BD00BF1C0000203C4700081F85EB5136
:101710004847000880B584B000AF78600B46FB7086
:1017200013463B8004221D49786800F075FD0122B4
:101730000521786800F028FD1949786800F0F8FC68
:1017400002220021786800F01FFDFB781B01154A7A
:1017500082FB03125211DB17D31AFB700023FB60CC
:101760000AE00421786800F006FC3B881846FFF781
:10177000EDF8FB680133FB60FB78FA689A42F0DB16
:1017800003220621786800F0FFFC0749786800F022
:10179000CFFC00BF1037BD4680BD00BF2400002035
:1017A000504700081F85EB514847000880B500AF3F
:1017B0000C21134800F0D9FC114800F01AFD114922
:1017C0000F4800F0B5FC012200210D4800F0DCFCC0
:1017D0000D490B4800F0ACFC02220021084800F043
:1017E000D3FC0A49064800F0A3FC03220021044868
:1017F00000F0CAFC0649024800F09AFC00BF80BD18
:10180000A0000020AC450008584700086C470008BD
:101810007C47000880B500AF0C21154800F0A5FCFE
:10182000134800F0E6FC1349114800F081FC012246
:1018300000210F4800F0A8FC0F490D4800F078FC8B
:10184000022200210A4800F09FFC0C49084800F0E1
:101850006FFC03220021064800F096FC084904486A
:1018600000F066FC0749024800F062FC00BF80BD42
:10187000A0000020AC45000890470008A0470008E1
:10188000B4470008C447000880B500AF0C211848D1
:1018900000F06BFC164800F0ACFC1649144800F050
:1018A00047FC01220021124800F06EFC124910484A
:1018B00000F03EFC022206210D4800F065FC0F49B5
:1018C0000B4800F035FC0E4B1B781946084800F019
:1018D000D4FC03220B21064800F056FC09490448B9
:1018E00000F026FC0F21024800F03FFC00BF80BD45
:1018F000A0000020AC450008CC470008E0470008E5
:1019000001000020E447000880B500AF0C210C481E
:1019100000F02BFC0A4800F06CFC0A49084800F073
:1019200007FC01220021064800F02EFC0122642160
:101930000348FFF7EFFEFFF739FF00BF80BD00BF90
:10194000A0000020AC45000880B500AF0C210C4879
:1019500000F00BFC0A4800F04CFC0A49084800F073
:10196000E7FB01220021064800F00EFC0122642161
:101970000348FFF783FEFFF719FF00BF80BD00BFDC
:10198000A0000020AC45000880B500AF0C21154830
:1019900000F0EBFB134800F02CFC1349114800F059
:1019A000C7FB012200210F4800F0EEFB0F490D4854
:1019B00000F0BEFB022200210A4800F0E5FB0C49C2
:1019C000084800F0B5FB03220321064800F0DCFBC9
:1019D0000849044800F0ACFB0F21024800F0C5FBA9
:1019E00000BF80BDA0000020AC450008EC47000807
:1019F000004800081048000880B500AF094B0422D9
:101A00001A70084B03225A70064B074A5A60054B5E
:101A1000064A9A60034B064ADA60024800F02AF947
:101A200000BF80BD2C0100203800002040000020B5
:101A30002C00002080B500AF144B01225A70134BCC
:101A400000221A70114B02229A70104B0822DA7091
:101A50000E4B03221A710D4B0A225A710B4B0322B3
:101A60009A710A4B0122DA71084B02221A72074B53
:101A700003225A72054800F0FBFC054B1B781946FF
:101A8000024800F063FD00BF80BD00BF4800002099
:101A90000100002080B500AF062001F0C1FD022149
:101AA000002001F0D9FA0221002001F013FB0D49BA
:101AB000002001F07BFB002001F062FB072001F019
:101AC000AFFD0221012001F0C7FA0221012001F03F
:101AD00001FB0549012001F069FB012001F050FBE9
:101AE00000BF80BD85090008450B000880B500AF28
:101AF00001F002FE0221022001F0BEFD03210220BE
:101B000001F0BAFD0E21022001F0B6FD00210220F5
:101B100001F0B2FD0C21022001F0AEFDFFF744FD03
:101B2000FFF7B8FFFFF7D4FCFFF766FFFFF782FF70
:101B3000FFF704FDFFF716F8FFF778F800BF80BD48
:101B400080B500AF484800F0F5F803461A46474B09
:101B50001A70464B1B78302BF4D9444B1B78322B30
:101B6000F0D8424B1B78312B61D1414B1B78012BB4
:101B700001D1FFF7C5F83E4B1B78002B54D1FFF77E
:101B800049FE394800F0D6F803461A46374B1A701A
:101B9000364B1B78302B03D9344B1B78332B03D9AE
:101BA000324B1B78232BECD1304B1B78312B02D1DD
:101BB000FFF7B4F956E02D4B1B78322B26D1FFF7F7
:101BC000E3FE294800F0B6F803461A46274B1A7080
:101BD000264B1B78302B03D9244B1B78322B03D98F
:101BE000224B1B78232BECD1204B1B78312B02D0BE
:101BF000322B04D007E00020FFF7A2FA32E00120E8
:101C0000FFF79EFA2EE0FFF7D1FD2BE0174B1B7874
:101C1000332B27D0154B1B78232B02D1FFF7C6FDA2
:101C200020E0FFF7C3FD1DE0FFF7C0FD1AE00F4BFA
:101C30001B78322B13D1FFF727FE0B4800F07AF800
:101C400003461A46094B1A70084B1B78232BF4D114
:101C5000064B1B78232B05D1FFF7A8FD02E0FFF709
:101C6000A5FDFFE700BF80BD2C010020580000202B
:101C70000000002080B584B000AF78600023FB73C3
:101C80000023BB7300237B737B681B785B003B7373
:101C90007B685B785B00FB720023FB731DE07B6855
:101CA0005A68FB7B13441B78BB73FB7B0133FB73CC
:101CB0007B685A68FB7B13441B787B73797BBB7B07
:101CC0000122184601F0DEFA797BBB7B012218461F
:101CD00001F09EFBFB7B0133FB73FA7B3B7B9A425B
:101CE000DDD30023FB731DE07B689A68FB7B134404
:101CF0001B78BB73FB7B0133FB737B689A68FB7BB0
:101D000013441B787B73797BBB7B0822184601F058
:101D1000B9FA797BBB7B0122184601F00BFCFB7BF7
:101D20000133FB73FA7BFB7A9A42DDD300BF103795
:101D3000BD4680BD80B586B000AF78600023FB75DE
:101D40000023BB7500237B750023BB7400233B7508
:101D50000A23FB7400237B7400233B740023FB7372
:101D60007B681B785B00BB737B685B785B007B7375
:101D70000023FB7573E07B685A68FB7D13441B7876
:101D80007B75FB7D0133FB757B685A68FB7D1344D3
:101D90001B78BB74B97C7B7D0022184601F038FBB0
:101DA0000023BB7543E07B689A68BB7D13441B78B6
:101DB0007B75BB7D0133BB757B689A68BB7D134423
:101DC0001B78BB74BA7C7B7D1146184601F076FB0C
:101DD0000346002B28D101233B7500E000BFBA7CED
:101DE0007B7D1146184601F069FB0346002BF5D0B8
:101DF000FB7D013BDA0F13445B103B74BB7D013B61
:101E0000DA0F13445B10FB737B685B783A7C02FB50
:101E100003F3DAB2FB7B13447B747B68DA687B7C68
:101E200013441B78FB7406E0BB7D0133BB75BA7DA0
:101E30007B7B9A42B7D37B685A68FB7D13441B783F
:101E4000BB74B97C7B7D0122184601F0E1FA3B7D31
:101E5000002B09D10A23FB74FB7D0133FB75FA7D4E
:101E6000BB7B9A4287D300E000BFFB7C1846183743
:101E7000BD4680BD80B485B000AF78607B68FB60F4
:101E80000BE00A23BB6002E0BB68013BBB60BB68A0
:101E9000002BF9D1FB68013BFB60FB68002BF0D104
:101EA00000BF1437BD4680BC704780B582B000AF1C
:101EB00078607B685B68043318787B685B680533FF
:101EC0001B780222194601F0DDF97B685B68063356
:101ED00018787B685B6807331B780222194601F08B
:101EE000D1F97B685B68083318787B685B680933D5
:101EF0001B780222194601F0C5F97B685B680A333A
:101F000018787B685B680B331B780222194601F056
:101F1000B9F97B685B68023318787B685B680333C8
:101F20001B780222194601F0ADF97B685B681878CE
:101F30007B685B6801331B780222194601F0A2F925
:101F40000221786800F0B7F92821786800F0B3F929
:101F50000121786800F0AFF90F21786800F0ABF943
:101F60008021786800F0A7F90220FFF783FF00BF07
:101F70000837BD4680BD80B582B000AF78600B46A3
:101F8000FB707B685B68043318787B685B6805339B
:101F90001978FB781B09DBB203F00103DBB21A46A8
:101FA00001F036FA7B685B68063318787B685B68FB
:101FB00007331978FB785B09DBB203F00103DBB26E
:101FC0001A4601F025FA7B685B68083318787B684D
:101FD0005B6809331978FB789B09DBB203F00103D6
:101FE000DBB21A4601F014FA7B685B680A33187892
:101FF0007B685B680B331978FB78DB09DBB21A4628
:1020000001F006FA7B685B68023318787B685B68CE
:1020100003331B780122194601F0FAF97B685B68EB
:1020200018787B685B6801331B780122194601F040
:10203000EFF90120FFF71EFF7B685B6818787B686B
:102040005B6801331B780022194601F0E1F9142086
:10205000FFF710FF7B685B68043318787B685B6868
:1020600005331978FB7803F00103DBB21A4601F05F
:10207000CFF97B685B68063318787B685B68073349
:102080001978FB785B08DBB203F00103DBB21A4678
:1020900001F0BEF97B685B68083318787B685B6881
:1020A00009331978FB789B08DBB203F00103DBB23C
:1020B0001A4601F0ADF97B685B680A3318787B68D3
:1020C0005B680B331978FB78DB08DBB203F00103A4
:1020D000DBB21A4601F09CF97B685B680233187822
:1020E0007B685B6803331B780122194601F090F985
:1020F0007B685B6818787B685B6801331B7801221A
:10210000194601F085F90120FFF7B4FE7B685B6892
:1021100018787B685B6801331B780022194601F050
:1021200077F91420FFF7A6FE00BF0837BD4680BD33
:1021300080B584B000AF786039600023FB730AE09B
:10214000FB7B3A6813441B7819467868FFF713FF46
:10215000FB7B0133FB73FB7B3A6813441B78002B3A
:10216000EED100BF1037BD4680BD80B582B000AF54
:1021700078600B46FB70FB781946786800F09BF896
:1021800000BF0837BD4680BD80B584B000AF786021
:102190000B46FB701346BB700023FB737B681B78F8
:1021A000BA789A4221D27B685B78FA789A421CD23C
:1021B000BB78012B06D8BB789B01DAB2FB781344BD
:1021C000FB7309E0BB780233DBB29B01DAB2FB7828
:1021D0001344DBB21033FB73FB7B63F07F03FB73B1
:1021E000FB7B1946786800F066F800BF1037BD46E3
:1021F00080BD80B582B000AF78600121786800F0C2
:102200005AF80120FFF736FE8021786800F053F875
:1022100000BF0837BD4680BD80B586B000AFF8600E
:10222000B9601346FB710023BB75FB79072B20D8DF
:10223000FB79DB00BB75BB7D43F04003BB75BB7D09
:102240001946F86800F037F80023FB750AE0FB7DBB
:10225000BA6813441B781946F868FFF78CFEFB7DBB
:102260000133FB75FB7D072BF1D90221F86800F0E3
:1022700022F800BF1837BD4680BD80B588B000AFDA
:102280007860396007F10C0300221A605A609A6086
:10229000DA601A7407F10C030A221946386802F052
:1022A0006BF807F10C0319467868FFF741FF00BF90
:1022B0002037BD4680BD80B582B000AF78600B4648
:1022C000FB707B685B68043318787B685B68053358
:1022D0001978FB781B09DBB203F00103DBB21A4665
:1022E00001F096F87B685B68063318787B685B685A
:1022F00007331978FB785B09DBB203F00103DBB22B
:102300001A4601F085F87B685B68083318787B68AB
:102310005B6809331978FB789B09DBB203F0010392
:10232000DBB21A4601F074F87B685B680A331878F0
:102330007B685B680B331978FB78DB09DBB21A46E4
:1023400001F066F87B685B68023318787B685B682D
:1023500003331B780022194601F05AF87B685B684A
:1023600018787B685B6801331B780122194601F0FD
:102370004FF80120FFF77EFD7B685B6818787B686B
:102380005B6801331B780022194601F041F81420E4
:10239000FFF770FD7B685B68043318787B685B68C7
:1023A00005331978FB7803F00103DBB21A4601F01C
:1023B0002FF87B685B68063318787B685B680733A7
:1023C0001978FB785B08DBB203F00103DBB21A4635
:1023D00001F01EF87B685B68083318787B685B68DF
:1023E00009331978FB789B08DBB203F00103DBB2F9
:1023F0001A4601F00DF87B685B680A3318787B6831
:102400005B680B331978FB78DB08DBB203F0010360
:10241000DBB21A4600F0FCFF7B685B680233187879
:102420007B685B6803331B780022194600F0F0FFDD
:102430007B685B6818787B685B6801331B780122D6
:10244000194600F0E5FF0120FFF714FD7B685B688B
:1024500018787B685B6801331B780022194600F00E
:10246000D7FF1420FFF706FD00BF0837BD4680BD2B
:1024700080B584B000AF78600023FB737B685B7825
:10248000002B02D0012B39D059E07B6898787B680B
:10249000DB780222194600F0F5FE7B6818797B682C
:1024A0005B790222194600F0EDFE7B6898797B6823
:1024B000DB790222194600F0E5FE7B68187A7B681A
:1024C0005B7A0222194600F0DDFE7B68987A7B6811
:1024D000DB7A0222194600F0D5FE7B68187B7B6808
:1024E0005B7B0222194600F0CDFE7B68987B7B68FF
:1024F000DB7B0222194600F0C5FE22E07B6898785B
:102500007B68DB780222194600F0BCFE7B681879F4
:102510007B685B790222194600F0B4FE7B689879EB
:102520007B68DB790222194600F0ACFE7B68187AE2
:102530007B685B7A0222194600F0A4FE01E00123C9
:10254000FB73FB7B18461037BD4680BD80B584B059
:1025500000AF78600B46FB700023FB73786800F0D7
:1025600021F80346FB73FB7B002B01D0FB7B12E0C1
:10257000FB782F2B06D9FB78392B03D8FB78303B1F
:10258000FB7001E0FB78092BFB78054A52F82330F9
:1025900078689847FB7B18461037BD4680BD00BF62
:1025A0005C00002080B483B000AF78607B681B784B
:1025B000002B05D07B681B78012B01D002230AE099
:1025C0007B685B78002B05D07B685B78012B01D0A2
:1025D000012300E0002318460C37BD4680BC70473D
:1025E00080B582B000AF78607B685B78002B02D04A
:1025F000012B45D069E07B6898787B68D9787B6847
:102600001B781A4600F004FF7B6818797B685979BB
:102610007B681B781A4600F0FBFE7B6898797B6824
:10262000D9797B681B781A4600F0F2FE7B68187A2D
:102630007B68597A7B681B781A4600F0E9FE7B6854
:10264000987A7B68D97A7B681B781A4600F0E0FE9E
:102650007B68187B7B68597B7B681B781A4600F087
:10266000D7FE7B68987B7B68D97B7B681B78002BC7
:102670000CBF01230023DBB21A4600F0C9FE24E0A0
:102680007B6898787B68D9787B681B781A4600F05D
:10269000BFFE7B6818797B6859797B681B781A467E
:1026A00000F0B6FE7B6898797B68D9797B681B78E7
:1026B0001A4600F0ADFE7B68187A7B68597A7B6811
:1026C0001B781A4600F0A4FE00BF00BF0837BD46C5
:1026D00080BD80B582B000AF78607B685B78002BEE
:1026E00002D0012B59D082E07B6898787B68D9783A
:1026F0007B681B78002B0CBF01230023DBB21A463A
:1027000000F086FE7B6818797B6859797B681B78B6
:102710001A4600F07DFE7B6898797B68D9797B68E2
:102720001B781A4600F074FE7B68187A7B68597A29
:102730007B681B78002B0CBF01230023DBB21A46F9
:1027400000F066FE7B68987A7B68D97A7B681B7894
:10275000002B0CBF01230023DBB21A4600F058FE09
:102760007B68187B7B68597B7B681B78002B0CBFD0
:1027700001230023DBB21A4600F04AFE7B68987BF7
:102780007B68D97B7B681B78002B0CBF012300235F
:10279000DBB21A4600F03CFE29E07B6898787B6843
:1027A000D9787B681B78002B0CBF01230023DBB298
:1027B0001A4600F02DFE7B6818797B6859797B6892
:1027C0001B781A4600F024FE7B6898797B68D979DB
:1027D0007B681B781A4600F01BFE7B68187A7B68C2
:1027E000597A7B681B781A4600F012FE00BF00BFC2
:1027F0000837BD4680BD80B582B000AF78607B6889
:102800005B78002B02D0012B4AD073E07B6898786C
:102810007B68D9787B681B781A4600F0F9FD7B68E5
:1028200018797B6859797B681B781A4600F0F0FDAF
:102830007B6898797B68D9797B681B78002B0CBF03
:1028400001230023DBB21A4600F0E2FD7B68187A10
:102850007B68597A7B681B781A4600F0D9FD7B6843
:10286000987A7B68D97A7B681B781A4600F0D0FD8D
:102870007B68187B7B68597B7B681B78002B0CBFBF
:1028800001230023DBB21A4600F0C2FD7B68987B6F
:102890007B68D97B7B681B781A4600F0B9FD29E07C
:1028A0007B6898787B68D9787B681B781A4600F03B
:1028B000AFFD7B6818797B6859797B681B78002BA2
:1028C0000CBF01230023DBB21A4600F0A1FD7B6898
:1028D00098797B68D9797B681B781A4600F098FD57
:1028E0007B68187A7B68597A7B681B781A4600F0F7
:1028F0008FFD00BF00BF0837BD4680BD80B582B0E8
:1029000000AF78607B685B78002B02D0012B4AD047
:1029100078E07B6898787B68D9787B681B781A4662
:1029200000F076FD7B6818797B6859797B681B78A5
:102930001A4600F06DFD7B6898797B68D9797B68D1
:102940001B781A4600F064FD7B68187A7B68597A18
:102950007B681B781A4600F05BFD7B68987A7B6881
:10296000D97A7B681B78002B0CBF01230023DBB2D4
:102970001A4600F04DFD7B68187B7B68597B7B68AD
:102980001B78002B0CBF01230023DBB21A4600F09A
:102990003FFD7B68987B7B68D97B7B681B781A46F8
:1029A00000F036FD2EE07B6898787B68D9787B68EC
:1029B0001B78002B0CBF01230023DBB21A4600F06A
:1029C00027FD7B6818797B6859797B681B78002B19
:1029D0000CBF01230023DBB21A4600F019FD7B680F
:1029E00098797B68D9797B681B781A4600F010FDCE
:1029F0007B68187A7B68597A7B681B781A4600F0E6
:102A000007FD00BF00BF0837BD4680BD80B582B05E
:102A100000AF78607B685B78002B02D0012B4FD031
:102A200078E07B6898787B68D9787B681B78002B86
:102A30000CBF01230023DBB21A4600F0E9FC7B68DF
:102A400018797B6859797B681B781A4600F0E0FC9E
:102A50007B6898797B68D9797B681B781A4600F087
:102A6000D7FC7B68187A7B68597A7B681B78002BC7
:102A70000CBF01230023DBB21A4600F0C9FC7B68BF
:102A8000987A7B68D97A7B681B78002B0CBF01236E
:102A90000023DBB21A4600F0BBFC7B68187B7B6826
:102AA000597B7B681B781A4600F0B2FC7B68987BE8
:102AB0007B68D97B7B681B781A4600F0A9FC29E06B
:102AC0007B6898787B68D9787B681B781A4600F019
:102AD0009FFC7B6818797B6859797B681B781A465C
:102AE00000F096FC7B6898797B68D9797B681B78C5
:102AF000002B0CBF01230023DBB21A4600F088FC38
:102B00007B68187A7B68597A7B681B781A4600F0D4
:102B10007FFC00BF00BF0837BD4680BD80B582B0D6
:102B200000AF78607B685B78002B02D0012B4AD025
:102B300078E07B6898787B68D9787B681B781A4640
:102B400000F066FC7B6818797B6859797B681B7894
:102B5000002B0CBF01230023DBB21A4600F058FC07
:102B60007B6898797B68D9797B681B781A4600F076
:102B70004FFC7B68187A7B68597A7B681B781A4609
:102B800000F046FC7B68987A7B68D97A7B681B7872
:102B9000002B0CBF01230023DBB21A4600F038FCE7
:102BA0007B68187B7B68597B7B681B781A4600F032
:102BB0002FFC7B68987B7B68D97B7B681B781A46E7
:102BC00000F026FC2EE07B6898787B68D9787B68DB
:102BD0001B78002B0CBF01230023DBB21A4600F048
:102BE00017FC7B6818797B6859797B681B781A46D3
:102BF00000F00EFC7B6898797B68D9797B681B783C
:102C0000002B0CBF01230023DBB21A4600F000FCAE
:102C10007B68187A7B68597A7B681B781A4600F0C3
:102C2000F7FB00BF00BF0837BD4680BD80B582B04E
:102C300000AF78607B685B78002B02D0012B45D019
:102C400073E07B6898787B68D9787B681B781A4634
:102C500000F0DEFB7B6818797B6859797B681B780C
:102C6000002B0CBF01230023DBB21A4600F0D0FB7F
:102C70007B6898797B68D9797B681B781A4600F065
:102C8000C7FB7B68187A7B68597A7B681B781A4681
:102C900000F0BEFB7B68987A7B68D97A7B681B78EA
:102CA0001A4600F0B5FB7B68187B7B68597B7B6814
:102CB0001B781A4600F0ACFB7B68987B7B68D97B5D
:102CC0007B681B781A4600F0A3FB2EE07B6898789F
:102CD0007B68D9787B681B781A4600F099FB7B6883
:102CE00018797B6859797B681B78002B0CBF01230E
:102CF0000023DBB21A4600F08BFB7B6898797B6877
:102D0000D9797B681B78002B0CBF01230023DBB231
:102D10001A4600F07DFB7B68187A7B68597A7B68DD
:102D20001B781A4600F074FB00BF00BF0837BD4691
:102D300080BD80B582B000AF78607B685B78002B87
:102D400002D0012B54D087E07B6898787B68D978D3
:102D50007B681B781A4600F05BFB7B6818797B6800
:102D600059797B681B781A4600F052FB7B6898798A
:102D70007B68D9797B681B781A4600F049FB7B6831
:102D8000187A7B68597A7B681B78002B0CBF01236B
:102D90000023DBB21A4600F03BFB7B68987A7B6825
:102DA000D97A7B681B78002B0CBF01230023DBB290
:102DB0001A4600F02DFB7B68187B7B68597B7B688B
:102DC0001B78002B0CBF01230023DBB21A4600F056
:102DD0001FFB7B68987B7B68D97B7B681B78002B0B
:102DE0000CBF01230023DBB21A4600F011FB33E0D5
:102DF0007B6898787B68D9787B681B78002B0CBF40
:102E000001230023DBB21A4600F002FB7B6818792D
:102E10007B6859797B681B78002B0CBF012300234A
:102E2000DBB21A4600F0F4FA7B6898797B68D979AE
:102E30007B681B78002B0CBF01230023DBB21A46F2
:102E400000F0E6FA7B68187A7B68597A7B681B7811
:102E50001A4600F0DDFA00BF00BF0837BD4680BD4E
:102E600080B582B000AF78607B685B78002B02D0C1
:102E7000012B40D069E07B6898787B68D9787B68C3
:102E80001B781A4600F0C4FA7B6818797B68597978
:102E90007B681B781A4600F0BBFA7B6898797B68E0
:102EA000D9797B681B781A4600F0B2FA7B68187AE9
:102EB0007B68597A7B681B781A4600F0A9FA7B6810
:102EC000987A7B68D97A7B681B781A4600F0A0FA5A
:102ED0007B68187B7B68597B7B681B781A4600F0FF
:102EE00097FA7B68987B7B68D97B7B681B781A464E
:102EF00000F08EFA29E07B6898787B68D9787B6847
:102F00001B781A4600F084FA7B6818797B68597937
:102F10007B681B781A4600F07BFA7B6898797B689F
:102F2000D9797B681B781A4600F072FA7B68187AA8
:102F30007B68597A7B681B78002B0CBF0123002328
:102F4000DBB21A4600F064FA00BF00BF0837BD4686
:102F500080BD80B582B000AF78607B685B78002B65
:102F600002D0012B45D073E07B6898787B68D978D4
:102F70007B681B781A4600F04BFA7B6818797B68EF
:102F800059797B681B781A4600F042FA7B68987979
:102F90007B68D9797B681B781A4600F039FA7B6820
:102FA000187A7B68597A7B681B781A4600F030FAE9
:102FB0007B68987A7B68D97A7B681B78002B0CBF7A
:102FC00001230023DBB21A4600F022FA7B68187B4B
:102FD0007B68597B7B681B781A4600F019FA7B687E
:102FE000987B7B68D97B7B681B781A4600F010FAC7
:102FF0002EE07B6898787B68D9787B681B78002BFB
:103000000CBF01230023DBB21A4600F001FA7B68F3
:1030100018797B6859797B681B781A4600F0F8F9B3
:103020007B6898797B68D9797B681B781A4600F0B1
:10303000EFF97B68187A7B68597A7B681B78002BDC
:103040000CBF01230023DBB21A4600F0E1F900BFF8
:1030500000BF0837BD4680BD80B485B000AF0346D1
:103060000A46FB711346BB71BB79023BBB7100235F
:10307000FB730023BB73FB799B08FB73FB7903F0A5
:103080000303BB73124AFB7B023352F82320BB7B42
:103090000F2101FA03F3DB4318460D49FB7B024085
:1030A000023341F823200A4AFB7B023352F82320E3
:1030B000B979BB7B01FA03F318460549FB7B024350
:1030C000023341F8232000BF1437BD4680BC70474F
:1030D0000004014080B483B000AF03460A46FB7190
:1030E0001346BB71BB79012B19D0022B2CD0002BBE
:1030F00000D03DE0214BDB68FA79012101FA02F2B0
:10310000D24311461D4A0B40D3601C4B9B68FA7991
:10311000012101FA02F21146184A0B439360174B42
:10312000DB68FA79012101FA02F21146134A0B43D6
:10313000D360124B9B68FA79012101FA02F2D24363
:1031400011460E4A0B4093600C4B9B68FA790121A3
:1031500001FA02F21146094A0B439360074BDB6800
:10316000FA79012101FA02F21146044A0B43D360B5
:1031700000BF00BF0C37BD4680BC70470004014053
:1031800080B483B000AF0346FB71074B1B68FA792C
:10319000012101FA02F21146034A0B43136000BFFA
:1031A0000C37BD4680BC70470004014080B483B03A
:1031B00000AF03463960FB71FB7904493A6841F876
:1031C000232000BF0C37BD4680BC7047D8000020CC
:1031D00080B500AF054B1B689847054B5B69044AF7
:1031E00043F00103536100BF80BD00BFD800002041
:1031F0000004014080B500AF054B5B689847054B64
:103200005B69044A43F00203536100BF80BD00BF05
:10321000D80000200004014080B500AF054B9B683A
:103220009847054B5B69044A43F00403536100BFB0
:1032300080BD00BFD80000200004014080B500AF71
:10324000054BDB689847054B5B69044A43F008036C
:10325000536100BF80BD00BFD800002000040140C2
:1032600080B500AF054B1B699847054B5B69044A65
:1032700043F01003536100BF80BD00BFD8000020A1
:103280000004014080B483B000AF0346FB710B46DD
:10329000BB7113467B71FB79032B3ED0042B75D099
:1032A000022B00D0A9E0BB79072B17D8554B1B6820
:1032B000BA7992000F2101FA02F2D2431146514A23
:1032C0000B4013604F4B1B687979BA79920001FA71
:1032D00002F211464B4A0B43136089E0BB790F2B76
:1032E00000F28680BB79083BBB71464B5B68BA79BC
:1032F00092000F2101FA02F2D2431146414A0B40DB
:103300005360404B5B687979BA79920001FA02F216
:1033100011463C4A0B4353606AE0BB79072B17D830
:10332000394B1B68BA7992000F2101FA02F2D2439D
:103330001146354A0B401360334B1B687979BA79D3
:10334000920001FA02F211462F4A0B43136051E03A
:10335000BB790F2B4ED8BB79083BBB712A4B5B68FE
:10336000BA7992000F2101FA02F2D2431146264A9D
:103370000B405360244B5B687979BA79920001FA6B
:1033800002F21146204A0B43536033E0BB79072B0E
:1033900010D81E4B1B681D4B00221A601B4B1B686C
:1033A0007979BA79920001FA02F21146174A0B4371
:1033B000136021E0BB790F2B1ED8BB79083BBB7192
:1033C000124B5B68BA7992000F2101FA02F2D243E4
:1033D00011460E4A0B4053600C4B5B687979BA7901
:1033E000920001FA02F21146084A0B43536003E0CF
:1033F00000BF02E000BF00E000BF00BF0C37BD46C9
:1034000080BC704700080140000C014000100140E2
:1034100080B483B000AF0346FB710B46BB7113460B
:103420007B71FB79032B17D0042B28D0022B00D003
:1034300038E07B79002B08D0012B00D00BE0BB7962
:1034400001229A401A4B1A6105E0BB7901229A4089
:10345000174B5A6100BF25E07B79002B08D0012B68
:1034600000D00BE0BB7901229A40124B1A6105E0B3
:10347000BB7901229A400F4B5A6100BF12E07B7961
:10348000002B08D0012B00D00BE0BB7901229A4021
:10349000094B1A6105E0BB7901229A40064B5A613B
:1034A00000BF00BF00BF0C37BD4680BC704700BFE7
:1034B00000080140000C01400010014080B485B0BC
:1034C00000AF03460A46FB711346BB710023FB7332
:1034D000FB79032B0ED0042B16D0022B00D01DE05D
:1034E000114B9A68BB7922FA03F3DBB203F00103B4
:1034F000FB7313E00D4B9A68BB7922FA03F3DBB23E
:1035000003F00103FB7309E0094B9A68BB7922FAC7
:1035100003F3DBB203F00103FB7300BFFB7B184630
:103520001437BD4680BC704700080140000C0140C4
:103530000010014080B483B000AF0346FB710B461E
:10354000BB7113467B71FB79032B22D0042B3ED039
:10355000022B00D059E07B79002B02D0012B0CD03C
:1035600016E02C4BDB68BA79012101FA02F2D24352
:103570001146284A0B40D3600AE0264BDB68BA7933
:10358000012101FA02F21146224A0B43D36000BF27
:103590003BE07B79002B02D0012B0CD016E01E4BB8
:1035A000DB68BA79012101FA02F2D24311461A4AC4
:1035B0000B40D3600AE0184BDB68BA79012101FAAD
:1035C00002F21146144A0B43D36000BF1DE07B7921
:1035D000002B02D0012B0CD016E0104BDB68BA791F
:1035E000012101FA02F2D24311460C4A0B40D3608A
:1035F0000AE00A4BDB68BA79012101FA02F21146AE
:10360000064A0B43D36000BF00BF00BF0C37BD4666
:1036100080BC704700080140000C014000100140D0
:1036200080B483B000AF0346FB71FB791F2B0AD82F
:103630000F4B1B68FA79012101FA02F211460C4A7C
:103640000B4313600FE0FB793B2B0CD8FB79203B3D
:10365000FB71084B1B68FA79012101FA02F211464D
:10366000044A0B43136000BF0C37BD4680BC704753
:1036700000E100E004E100E080B483B000AF034665
:103680000A46FB711346BB71BB791F2B28D8FB7907
:10369000012B0FD0022B18D0002B00D020E0134BB1
:1036A0001B68BA79012101FA02F211460F4A0B4355
:1036B000136015E00E4B1B68BA79012101FA02F282
:1036C00011460B4A0B4313600AE00A4B1B68BA7998
:1036D000012101FA02F21146064A0B43136000BFB2
:1036E00000BF0C37BD4680BC704700BF14100240BD
:1036F0001C1002401810024080B400AF234B8022FF
:103700001A60234B00221A60204B1B681F4A43F4A7
:10371000002313601D4B1B681C4A43F48033136065
:1037200000BF1A4B1B685B0C03F00103002BF8D0A1
:10373000174B1B68164A43F480331360144B144A2A
:103740001B681360114B1B68104A43F080731360B1
:1037500000BF0E4B1B685B0E03F00103002BF8D07B
:103760000B4B1B680A4A43F002031360084B084ADC
:103770001B681360064B064A1B681360044B044A1F
:103780001B68136000BFBD4680BC7047001002403C
:103790000410024080B485B000AF03463960FB716D
:1037A0000023FB810023BB814023FB813B681B7806
:1037B0009AB2FB891343FB813B685A88FB89134308
:1037C000FB813B68DA88FB891343FB813B681B7AEA
:1037D0009AB2FB891343FB813B685B7A9AB2FB89FF
:1037E0001343FB813B68B3F90A30042B08D13B68D3
:1037F000B3F90A20B7F90C3013431BB2BB8116E0B2
:103800003B68B3F90A3013F1050F08D13B68B3F9EF
:103810000A20B7F90C3013401BB2BB8107E03B68AC
:10382000B3F90A20B7F90E3013431BB2FB813B6892
:103830001B7B9AB2FB891343FB813B685B7B002BAC
:1038400005D03B685B7B9AB2BB891343BB81FB7994
:10385000002B09D10D4A3B6813600D4AFB891360A8
:103860000B4ABB8953600BE0FB79012B08D1074A57
:103870003B685360074AFB891360064ABB89536063
:1038800000BF1437BD4680BC704700BF1801002040
:10389000003001400038004080B485B000AF0346DE
:1038A000B9607A60FB73FB7B002B17D100BF1B4B09
:1038B0009B6803F00203002BF9D0BB681A88174BF2
:1038C000DA6000BF154B9B6803F00103002BF9D0B1
:1038D000124BDB689AB27B681A8019E0FB7B012BE4
:1038E00016D100BF0E4B9B6803F00203002BF9D0EA
:1038F000BB681A880A4BDA6000BF094B9B6803F06B
:103900000103002BF9D0064BDB689AB27B681A8062
:1039100000BF1437BD4680BC704700BF0030014077
:103920000038004080B582B000AF0346FB71FB79E0
:10393000002B4FD1524B1B681B78042B2AD1504BC4
:103940001B68B3F90A3013F1050F02D0042B06D01F
:103950000BE0042204210220FFF794FC05E0092279
:1039600004210220FFF78EFC00BF0922052102205E
:10397000FFF788FC424B1B685B88002B7CD104223C
:1039800006210220FFF77EFC092207210220FFF713
:1039900079FC71E03A4B1B68B3F90A30002B04D173
:1039A000042204210220FFF76DFC042205210220DD
:1039B000FFF768FC324B1B685B88002B5CD1092247
:1039C00006210220FFF75EFC042207210220FFF7F8
:1039D00059FC51E0FB79012B4ED1294B5B681B78D8
:1039E000042B2AD1264B5B68B3F90A3013F1050F7B
:1039F00002D0042B06D00BE004220C210320FFF799
:103A000041FC05E009220C210320FFF73BFC00BF2D
:103A100009220D210320FFF735FC194B5B685B88F9
:103A2000002B29D104220E210320FFF72BFC0922B1
:103A30000E210320FFF726FC1EE0114B5B68B3F953
:103A40000A30002B04D104220C210320FFF71AFCBA
:103A500004220D210320FFF715FC094B5B685B88EE
:103A6000002B09D109220E210320FFF70BFC0422B1
:103A70000E210320FFF706FC00BF0837BD4680BDBE
:103A80001801002080B582B000AF134B9B685B0823
:103A900003F00103DAB23B7962F300033B710E4B92
:103AA0009B6803F00103DAB23B7962F341033B7197
:103AB000094B9B681B0903F00103DAB23B7962F3FF
:103AC00082033B71054B1B681B693879984700BF1F
:103AD0000837BD4680BD00BF0030014018010020FE
:103AE00080B582B000AF134B9B685B0803F0010305
:103AF000DAB23B7962F300033B710E4B9B6803F033
:103B00000103DAB23B7962F341033B71094B9B68D5
:103B10001B0903F00103DAB23B7962F382033B71C4
:103B2000054B5B681B693879984700BF0837BD466D
:103B300080BD00BF003001401801002080B586B074
:103B400000AF03463960FB710023FB820023BB8278
:103B500000237B823B681A893B685B8913439AB2D6
:103B60003B681B789BB213439AB23B68DB8A1343D2
:103B70009BB243F40053FB823B689A893B681B8AE3
:103B800013439AB23B685B8A1343BB823B681B7D3D
:103B90007B82FB7920493A6841F823200023FB60AF
:103BA0003B685B6807F10C021C49184600F0A6F957
:103BB000FB79012B11D0022B1CD0002B00D026E06A
:103BC000174AFB689360164AFB8AD360144ABB8A83
:103BD0001361134A7B8A536119E0124AFB689360B0
:103BE000104AFB8AD3600F4ABB8A13610D4A7B8A55
:103BF00053610CE00C4AFB6893600B4AFB8AD3606C
:103C0000094ABB8A1361084A7B8A536100BF00BF1F
:103C10001837BD4680BD00BF2001002000127A0089
:103C200000380140004400400048004080B483B0A8
:103C300000AF03463960FB71FB79012B19D0022BD1
:103C40002CD0002B00D03EE000BF214B1B68DB09CD
:103C500003F00103002BF8D03B681A881C4B5A6014
:103C600000BF1B4B1B689B0903F00103002BF8D01E
:103C700029E000BF174B1B68DB0903F00103002B91
:103C8000F8D03B681A88134B5A6000BF114B1B6871
:103C90009B0903F00103002BF8D014E000BF0E4B8A
:103CA0001B68DB0903F00103002BF8D03B681A887E
:103CB000094B5A6000BF084B1B689B0903F00103C6
:103CC000002BF8D000BF00BF0C37BD4680BC70474A
:103CD00000380140004400400048004080B483B0F8
:103CE00000AF03463960FB71FB79804A52F82330FC
:103CF0001B89B3F5805F79D1FB797C4A52F8233078
:103D00005B89002B3AD1FB79012B15D0022B24D0F3
:103D1000002B00D0E4E000BF754B1B685B0903F08B
:103D20000103002BF8D0724B5B689BB2C3F308030E
:103D30009AB23B681A80D3E000BF6E4B1B685B09E8
:103D400003F00103002BF8D06A4B5B689BB2C3F30E
:103D500008039AB23B681A80C2E000BF664B1B683A
:103D60005B0903F00103002BF8D0634B5B689BB247
:103D7000C3F308039AB23B681A80B1E0FB79012BC8
:103D800014D0022B22D0002B00D0A9E000BF584B4A
:103D90001B685B0903F00103002BF8D0544B5B68F0
:103DA0009BB2DBB29AB23B681A8099E000BF514BDC
:103DB0001B685B0903F00103002BF8D04D4B5B68D7
:103DC0009BB2DBB29AB23B681A8089E000BF4A4BD3
:103DD0001B685B0903F00103002BF8D0464B5B68BE
:103DE0009BB2DBB29AB23B681A8079E0FB793F4A1A
:103DF00052F823305B89002B37D1FB79012B14D08B
:103E0000022B22D0002B00D06AE000BF384B1B6889
:103E10005B0903F00103002BF8D0354B5B689BB2C4
:103E2000DBB29AB23B681A805AE000BF314B1B6884
:103E30005B0903F00103002BF8D02E4B5B689BB2AB
:103E4000DBB29AB23B681A804AE000BF2A4B1B687B
:103E50005B0903F00103002BF8D0274B5B689BB292
:103E6000DBB29AB23B681A803AE0FB79012B15D09D
:103E7000022B24D0002B00D032E000BF1C4B1B686B
:103E80005B0903F00103002BF8D0194B5B689BB270
:103E900003F07F039AB23B681A8021E000BF154B04
:103EA0001B685B0903F00103002BF8D0114B5B6822
:103EB0009BB203F07F039AB23B681A8010E000BF08
:103EC0000D4B1B685B0903F00103002BF8D00A4B74
:103ED0005B689BB203F07F039AB23B681A8000BF15
:103EE00000BF0C37BD4680BC704700BF20010020DA
:103EF000003801400044004000480040B0B58AB09E
:103F000000AFF860B9607A60FB681B01BA68B2FB69
:103F1000F3F33B62B868FCF76DFA4FF00002224BF6
:103F2000FCF7E2FA03460C4625461C46F868FCF707
:103F300061FA4FF000021D4BFCF7D6FA02460B4621
:103F400020462946FCF7FAFB03460C461846214654
:103F5000FCF7DCFC0346FB613B6A642202FB03F3D3
:103F6000BB613B6A7B62FA69BB69D31A1B01104AC9
:103F7000A2FB03235B097B617B69102B02D97B6A5F
:103F800001337B627B6A9BB21B019AB27B699BB255
:103F900003F00F039BB213439BB21A467B681A606F
:103FA00000BF2837BD46B0BD0000394000001040BA
:103FB0001F85EB5180B582B000AF0346FB71FB79E2
:103FC0007A4A52F823301B78082BFB79002B4CD10E
:103FD000FB79764A52F823301B78082B05D1092249
:103FE00009210220FFF74EF916E0FB796F4A52F8DB
:103FF00023301B78042B05D104220A210220FFF76D
:1040000041F909E004220A210220FFF73BF90922C5
:1040100009210220FFF736F9644B1B68DB89B3F5F1
:10402000807F05D109220C210220FFF72BF9B9E08E
:104030005E4B1B68DB89B3F5007F05D104220B21A1
:104040000220FFF71FF9ADE0584B1B68DB89002BFE
:1040500000F0A88004220B210220FFF713F90922A7
:104060000C210220FFF70EF99CE0FB79012B4BD1CC
:10407000FB794E4A52F823301B78082B05D10922D0
:1040800002210220FFF7FEF816E0FB79474A52F8BA
:1040900023301B78042B05D104220D210220FFF7C9
:1040A000F1F809E0092202210220FFF7EBF80422CF
:1040B0000D210220FFF7E6F83C4B5B68DB89B3F586
:1040C000807F05D1092201210220FFF7DBF869E09A
:1040D000364B5B68DB89B3F5007F05D104220021F4
:1040E0000220FFF7CFF85DE0304B5B68DB89002BE7
:1040F00058D0042200210220FFF7C4F80922012130
:104100000220FFF7BFF84DE0FB79022B4AD1FB7983
:10411000264A52F823301B78082B05D109220A21A0
:104120000320FFF7AFF816E0FB79204A52F823305E
:104130001B78042B05D104220B210320FFF7A2F8E2
:1041400009E009220A210320FFF79CF804220B2131
:104150000320FFF797F8154B9B68DB89B3F5807F49
:1041600005D109220E210320FFF78CF81AE00F4B2E
:104170009B68DB89B3F5007F05D104220D21032064
:10418000FFF780F80EE0094B9B68DB89002B09D014
:1041900009220E210320FFF775F804220D210320C8
:1041A000FFF770F800BF0837BD4680BD2001002032
:1041B00080B500AF0A4B1B689B690A4A526892B2ED
:1041C00010469847074B1B68064A23F040031360CC
:1041D000044B1B68034A23F02003136000BF80BD1B
:1041E000200100200038014080B500AF0A4B5B6819
:1041F0009B690A4A526892B210469847074B1B685F
:10420000064A23F040031360044B1B68034A23F063
:104210002003136000BF80BD200100200044004047
:1042200080B500AF0A4B9B689B690A4A526892B2FC
:1042300010469847084B1B68074A23F04003136059
:10424000054B1B68044A23F02003136000BF80BDA8
:1042500020010020004400400048004080B584B0A8
:1042600000AF03463960FB711346BB710023FB604E
:104270000AE03A68FB681A44FB7911461846FFF7D2
:10428000D5FCFB680133FB603A68FB6813441B787C
:10429000BA799A42EDD100BF1037BD4680BD80B5D6
:1042A00000AFFDF723FCFDF74BFCFCE70D4885460E
:1042B000AFF300800C480D490D4A002302E0D458AA
:1042C000C4500433C4188C42F9D30A4A0A4C002360
:1042D00001E013600432A242FBD300F011F8FFF7B3
:1042E000DEFFFEE700280020000000208400002000
:1042F0004C48000884000020B0010020FEE70000C8
:1043000070B500250C4E0D4CA41BA410A54209D17C
:1043100000F072F800250A4E0A4CA41BA410A54216
:1043200005D170BD56F8253098470135EEE756F8AF
:10433000253098470135F2E7444800084448000812
:104340004448000848480008931E222B10B50C462C
:1043500004D900231C460B70204610BD0A2A09D13F
:10436000002807DA2D230B7001214042214400F080
:1043700005F8F1E70021F9E7FFF7E6BFF0B58BB0EC
:1043800005460C466E461B4B03F1200C3746186859
:104390005968083303C763453E46F7D118681B794F
:1043A00038603B71931E222B4FF0000304D9237019
:1043B0001C4620460BB0F0BD661EB5FBF2F002FBBA
:1043C00010550AAF3D4415F8285C591C06F8015FEA
:1043D000054668B9224660542344191B101B8142CC
:1043E000E7DD1178187802F8010B03F80119F4E7FA
:1043F0000B46E2E71D480008F8B500BFF8BC08BC52
:104400009E467047F8B500BFF8BC08BC9E46704792
:10441000416E6120454355332059612042726F003F
:1044200041646D696E20557365726E616D65000043
:1044300041646D696E2050617373776F7264000020
:104440000D0A2A2A2A2A2A2A2A2A2A2A2A2A2A2A09
:104450002A2A2A2A2A2A2A205355434345535346B7
:10446000554C204C4F47494E202A2A2A2A2A2A2ACC
:104470002A2A2A2A2A2A2A2A2A2A2A2A2A2A2A2A9C
:104480002A2A2A2A2A2A2A200D0A000057726F6E29
:10449000672041646D696E0050617373776F726459
:1044A000000000000D0A2A2A2A2A2A2A2A2A2A2A51
:1044B0002A2A2A2A2A2A2A2A2A2A2A20554E5355C3
:1044C000434345535346554C204C4F47494E202AB1
:1044D0002A2A2A2A2A2A2A2A2A2A2A2A2A2A2A2A3C
:1044E0002A2A2A2A2A2A2A2A2A2A2A2A2A200D0A73
:1044F000000000004E616D65000000000D0A2A2AD0
:104500002A2A2A2A2A2A2A2A2A2A2A2A2A2A2A2A0B
:104510002A2A2A20416464696E672044726976659C
:10452000722044617461202A2A2A2A2A2A2A2A2AE5
:104530002A2A2A2A2A2A2A2A2A2A2A2A2A2A2A2ADB
:104540002A2A2A2A2A200D0A0000000044726976CD
:10455000657220557365726E616D65000D0A00000D
:104560004472697665722049440000000D0A2A2AC7
:104570002A2A2A2A2A2A2A2A2A2A2A2A2A2A2A2A9B
:104580002A2A2A20444F4E45202A2A2A2A2A2A2A21
:104590002A2A2A2A2A2A2A2A2A2A2A2A2A2A2A2A7B
:1045A0002A2A2A2A2A2A2A200D0A00005041524B80
:1045B000494E4720474152414745000046554C4C23
:1045C0002043415041434954590000000D0A2A2A12
:1045D0002A2A2A2A2A2A2A2A2A2A2A2A2A2A2A2A3B
:1045E0002A2A2A2044656C657465204472697665C0
:1045F00072202A2A2A2A2A2A2A2A2A2A2A2A2A2ADD
:104600002A2A2A2A2A2A2A2A2A2A2A2A2A2A2A2A0A
:10461000200D0A00000000000D0A2A2A2A2A2A2A50
:104620002A2A2A2A2A2A2A2A2A2A2A2A2A2A2A20F4
:104630005355434345535346554C202A2A2A2A2A88
:104640002A2A2A2A2A2A2A2A2A2A2A2A2A2A2A2ACA
:104650002A2A2A2A2A2A2A2A2A200D0A00000000A9
:10466000554E5355434345535346554C00000000A7
:104670000D0A2A2A2A2A2A2A2A2A2A2A2A2A2A2AD7
:104680002A2A2A2A2A2A2A20554E5355434345537B
:104690005346554C202A2A2A2A2A2A2A2A2A2A2AF2
:1046A0002A2A2A2A2A2A2A2A2A2A2A2A2A2A2A2A6A
:1046B0002A2A2A200D0A00004E6F2045786973745B
:1046C000656E636500000000447269766572732050
:1046D000446174610000000057656C636F6D650094
:1046E0002041626E616279205761697400000000A8
:1046F0002A2A2A2A2A2A2A2A2A2A2A2A2A2A2A2A1A
:104700002A2A2A2A2A2041444D494E20444153480E
:10471000424F415244202A2A2A2A2A2A2A2A2A2A6D
:104720002A2A2A2A2A2A2A2A2A2A2A2A2A2A2A2AE9
:104730002A2A2A2A200D0A000000000044656C6520
:1047400074696E6700000000444F4E450000000091
:10475000416464696E67000053656C656374206F23
:104760006E65206F66203A2000000000312D416404
:104770006D696E204F7074696F6E7300322D4761E2
:104780007261676520537461747565730000000081
:10479000312D204164642044726976657200000006
:1047A000322D2044656C65746520447269766572AB
:1047B00000000000332D2045646974204461746159
:1047C0000000000020203C42000000002D417661E6
:1047D000696C61626C6520536C6F7473000000003B
:1047E000203D20003C4241434B000000312D20443D
:1047F000656C65746520447269766572000000001E
:10480000322D2044656C65746520416C6C0000009D
:104810003C4D41494E2053435245454E00303132C4
:104820003334353637383961626364656667686981
:104830006A6B6C6D6E6F7071727374757677787960
:044840007A000000FA
:044844005501000812
:044848003101000832
:10484C000103000001010100030503040303020F2F
:10485C00020B020C1F11111111111F1F0000110A64
:10486C00040A1100000E0E0E1F0E040031323334F8
:10487C0035363738392A3023030C030D030E030F5A
:10488C0003080309030B00000001000000000000F6
:10489C0000000000000000000A000000E1250008F4
:1048AC00D3260008F7270008FD2800080D2A000869
:1048BC001D2B00082D2C0008332D0008612E00083C
:0448CC00532F00085E
:04000005080042AD00
:00000001FF
