:100000000C9432000C9438020C9469020C944F004A
:100010000C944F000C944F000C944F000C944F0024
:100020000C944F000C944F000C949F080C941E0AE3
:100030000C944F000C94570A0C944F000C944F00F2
:100040000C944F000C944F000C949A020C944F00A7
:100050000C944F002D0732073907400747074E071A
:1000600055075C0711241FBECFE5D4E0DEBFCDBF2E
:1000700010E0A0E6B0E0E4E6F5E102C005900D92E4
:10008000A437B107D9F720E0A4E7B0E001C01D9282
:10009000AF39B207E1F70E942F020C94B00A0C941A
:1000A0000000CF93DF93CDB7DEB70E94CB0241E0D3
:1000B00060E080E00E9403030E94EE0581E690E08C
:1000C0000E9422080E946D010E940C0286EA90E0C4
:1000D0000E9418020E9429018FE590E02FE530E090
:1000E000F90120812068FC0120830000DF91CF917D
:1000F0000895CF93DF93CDB7DEB71EC08FE590E0B4
:100100002FE530E0F90120812F77FC0120830E9448
:10011000450100000E947A018130E1F380E3809381
:1001200060000E94040A8FE590E02FE530E0F901BD
:1001300020812068FC012083809160008133F1F2EE
:100140000E9459010000DF91CF910895CF93DF9372
:1001500000D000D0CDB7DEB79A8389837C836B83D0
:100160002B813C8189819A81B9010E94BF000000E6
:100170000F900F900F900F90DF91CF910895CF9334
:10018000DF9300D000D0CDB7DEB79A8389837C831C
:100190006B8360E081E00E9476058B819C810E94E8
:1001A000F6000E94DB0000000F900F900F900F9060
:1001B000DF91CF910895CF93DF931F92CDB7DEB734
:1001C00080E38983CE010196BC0184E20E9471081C
:1001D0008981813319F089818033A1F789818093E6
:1001E000600000000F90DF91CF910895CF93DF93CF
:1001F00000D000D0CDB7DEB79C838B831A821982E2
:1002000015C08981882F90E02B813C81820F931F3C
:10021000FC012081CE010296BC01822F0E94710850
:100220008A818B3271F789818F5F89838981882FD9
:1002300090E02B813C81820F931FFC0180818823F9
:1002400001F700000F900F900F900F90DF91CF916A
:100250000895CF93DF93CDB7DEB787E690E00E9495
:100260000A0680916A00807A682F87E690E00E94F3
:10027000810780916A00877041E0682F83E00E94C7
:1002800003030000DF91CF910895CF93DF93CDB7A3
:10029000DEB780916A00807A2CEB30E043EC59E0C5
:1002A000682F87E690E00E94C1070000DF91CF91A0
:1002B0000895CF93DF93CDB7DEB780916A00807A3F
:1002C0002DE730E043EC59E0682F87E690E00E948C
:1002D000C1070000DF91CF910895CF93DF93CDB791
:1002E000DEB740E061E080E00E9403030000DF91A0
:1002F000CF910895CF93DF931F92CDB7DEB71982C8
:1003000061E080E00E940C05898389810F90DF9174
:10031000CF910895CF93DF9300D0CDB7DEB78A8316
:1003200080917200882311F580917700882F90E0EA
:1003300089569F4FFC01108280917600882F90E0B3
:1003400084579F4FFC011082109277001092760024
:1003500081E080937200209174003091750067E90C
:1003600070E08CE890E0F901099550C019828A810B
:10037000898389818033C8F089818A33B0F4809180
:1003800077008730D1F180917700882F90E08956EF
:100390009F4F2981FC01208389810E9496098091C9
:1003A00077008F5F8093770028C08981813618F0AD
:1003B00089818B3730F089818134C8F089818B3510
:1003C000B0F4809176008A30C1F080917600882F59
:1003D00090E084579F4F2981FC01208389810E94EE
:1003E0009609809176008F5F8093760006C08DE03D
:1003F0000E9496098AE00E949609809177008730D2
:1004000029F489818D3011F41092720000000F9050
:100410000F90DF91CF910895CF93DF93CDB7DEB7E3
:100420008BE690E00E94D0080000DF91CF91089504
:10043000CF93DF9300D0CDB7DEB79A8389838AE864
:1004400091E00E94E80989819A81909375008093D8
:10045000740000000F900F90DF91CF910895CF931B
:10046000DF93CDB7DEB70E9451000E947900FDCF27
:100470001F920F9200905F000F9211242F933F93D1
:100480004F935F936F937F938F939F93AF93BF939C
:10049000EF93FF93CF93DF93CDB7DEB780917800D2
:1004A00090917900FC0109950000DF91CF91FF91B7
:1004B000EF91BF91AF919F918F917F916F915F91DC
:1004C0004F913F912F910F9000925F000F901F90DE
:1004D00018951F920F9200905F000F9211242F9396
:1004E0003F934F935F936F937F938F939F93AF93BC
:1004F000BF93EF93FF93CF93DF93CDB7DEB7809198
:100500007A0090917B00FC0109950000DF91CF916A
:10051000FF91EF91BF91AF919F918F917F916F91DB
:100520005F914F913F912F910F9000925F000F903C
:100530001F9018951F920F9200905F000F92112448
:100540002F933F934F935F936F937F938F939F93DB
:10055000AF93BF93EF93FF93CF93DF93CDB7DEB706
:1005600080917C0090917D00FC0109950000DF9155
:10057000CF91FF91EF91BF91AF919F918F917F911B
:100580006F915F914F913F912F910F9000925F007B
:100590000F901F901895CF93DF93CDB7DEB78BE305
:1005A00090E0FC0110828AE390E0FC01108289E374
:1005B00090E0FC01108288E390E0FC01108287E368
:1005C00090E0FC01108286E390E0FC01108285E35C
:1005D00090E0FC01108284E390E0FC01108283E350
:1005E00090E0FC01108282E390E0FC01108281E344
:1005F00090E0FC01108280E390E0FC01108200009A
:10060000DF91CF910895CF93DF9300D01F92CDB7A4
:10061000DEB789836A834B838A81883008F0F5C10D
:100620008981882F90E08130910509F486C082305D
:1006300091051CF4892B49F0E8C18230910509F439
:10064000F4C0039709F469C1E0C18B81882F90E061
:100650008130910509F45BC08230910571F1892BDD
:1006600009F06AC08AE390E02AE330E0F9012081D2
:10067000622F2A81422F50E021E030E002C0220F99
:10068000331F4A95E2F720952623FC0120838BE354
:1006900090E02BE330E0F9012081622F2A81422F84
:1006A00050E021E030E002C0220F331F4A95E2F70C
:1006B00020952623FC0120833FC08AE390E02AE3B3
:1006C00030E0F9012081622F2A81422F50E021E0A1
:1006D00030E002C0220F331F4A95E2F7209526230F
:1006E000FC0120838BE390E02BE330E0F9012081D3
:1006F000622F2A81422F50E021E030E002C0220F19
:10070000331F4A95E2F7262BFC01208315C08AE3AC
:1007100090E02AE330E0F9012081622F2A81422F04
:1007200050E021E030E002C0220F331F4A95E2F78B
:10073000262BFC012083000068C18B81882F90E06C
:100740008130910509F45BC08230910571F1892BEC
:1007500009F06AC087E390E027E330E0F9012081E7
:10076000622F2A81422F50E021E030E002C0220FA8
:10077000331F4A95E2F720952623FC01208388E366
:1007800090E028E330E0F9012081622F2A81422F96
:1007900050E021E030E002C0220F331F4A95E2F71B
:1007A00020952623FC0120833FC087E390E027E3C8
:1007B00030E0F9012081622F2A81422F50E021E0B0
:1007C00030E002C0220F331F4A95E2F7209526231E
:1007D000FC01208388E390E028E330E0F9012081E8
:1007E000622F2A81422F50E021E030E002C0220F28
:1007F000331F4A95E2F7262BFC01208315C087E3BF
:1008000090E027E330E0F9012081622F2A81422F16
:1008100050E021E030E002C0220F331F4A95E2F79A
:10082000262BFC0120830000F0C08B81882F90E0F4
:100830008130910509F45BC08230910571F1892BFB
:1008400009F06AC084E390E024E330E0F9012081FC
:10085000622F2A81422F50E021E030E002C0220FB7
:10086000331F4A95E2F720952623FC01208385E378
:1008700090E025E330E0F9012081622F2A81422FA8
:1008800050E021E030E002C0220F331F4A95E2F72A
:1008900020952623FC0120833FC084E390E024E3DD
:1008A00030E0F9012081622F2A81422F50E021E0BF
:1008B00030E002C0220F331F4A95E2F7209526232D
:1008C000FC01208385E390E025E330E0F9012081FD
:1008D000622F2A81422F50E021E030E002C0220F37
:1008E000331F4A95E2F7262BFC01208315C084E3D1
:1008F00090E024E330E0F9012081622F2A81422F29
:1009000050E021E030E002C0220F331F4A95E2F7A9
:10091000262BFC012083000078C08B81882F90E07B
:100920008130910509F45BC08230910571F1892B0A
:1009300009F06AC081E390E021E330E0F901208111
:10094000622F2A81422F50E021E030E002C0220FC6
:10095000331F4A95E2F720952623FC01208382E38A
:1009600090E022E330E0F9012081622F2A81422FBA
:1009700050E021E030E002C0220F331F4A95E2F739
:1009800020952623FC0120833FC081E390E021E3F2
:1009900030E0F9012081622F2A81422F50E021E0CE
:1009A00030E002C0220F331F4A95E2F7209526233C
:1009B000FC01208382E390E022E330E0F901208112
:1009C000622F2A81422F50E021E030E002C0220F46
:1009D000331F4A95E2F7262BFC01208315C081E3E3
:1009E00090E021E330E0F9012081622F2A81422F3B
:1009F00050E021E030E002C0220F331F4A95E2F7B9
:100A0000262BFC0120830000000000000F900F90B7
:100A10000F90DF91CF910895CF93DF9300D01F9275
:100A2000CDB7DEB78A836B8319828B81883008F05B
:100A300056C08A81882F90E081309105E9F082309C
:100A400091051CF4892B39F04AC08230910529F1B7
:100A50000397A1F144C089E390E0FC018081882FD5
:100A600090E02B81222F30E002C0959587952A9542
:100A7000E2F78170898333C086E390E0FC018081D6
:100A8000882F90E02B81222F30E002C0959587952A
:100A90002A95E2F78170898322C083E390E0FC010C
:100AA0008081882F90E02B81222F30E002C0959525
:100AB00087952A95E2F78170898311C080E390E0E1
:100AC000FC018081882F90E02B81222F30E002C032
:100AD000959587952A95E2F7817089830000898131
:100AE0000F900F900F90DF91CF910895CF93DF93E8
:100AF00000D0CDB7DEB789836A838A81883008F059
:100B000067C08981882F90E08130910511F1823092
:100B100091051CF4892B41F05BC08230910571F185
:100B2000039709F440C054C08BE390E02BE330E01E
:100B3000F9012081622F2A81422F50E021E030E02C
:100B400002C0220F331F4A95E2F72627FC012083BB
:100B50003FC088E390E028E330E0F9012081622F74
:100B60002A81422F50E021E030E002C0220F331FE3
:100B70004A95E2F72627FC0120832AC085E390E00E
:100B800025E330E0F9012081622F2A81422F50E0D5
:100B900021E030E002C0220F331F4A95E2F72627FA
:100BA000FC01208315C082E390E022E330E0F901EC
:100BB0002081622F2A81422F50E021E030E002C0E4
:100BC000220F331F4A95E2F72627FC0120830000FD
:100BD00000000F900F90DF91CF910895CF93DF9396
:100BE000CDB7DEB740E065E081E00E94030340E05E
:100BF00067E081E00E94030341E066E081E00E943B
:100C0000030340E064E081E00E9403030000DF9101
:100C1000CF910895CF93DF9300D0CDB7DEB79A83FD
:100C2000898389819A81FC018081882F90E08130BD
:100C3000910509F46DC08230910509F4E9C0892B52
:100C400009F059C183E590E023E530E0F9014081E6
:100C500029813A81F9012181242BFC01208389819A
:100C60009A81FC018281882F90E082309105E9F021
:100C7000833091052CF4009761F0019779F031C031
:100C80008430910501F184309105B4F0059711F19C
:100C900028C010927F0010927E0023C081E090E077
:100CA00090937F0080937E001CC088E090E090933A
:100CB0007F0080937E0015C080E490E090937F00D9
:100CC00080937E000EC080E091E090937F0080933F
:100CD0007E0007C080E094E090937F0080937E00C8
:100CE000000083E590E023E530E0F9012081287FD2
:100CF000FC01208383E590E023E530E0F9014081A9
:100D000029813A81F9012281242BFC012083F3C03F
:100D10008FE490E02FE430E0F9012081422F298117
:100D20003A81F90121812370242BFC0120838EE478
:100D300090E02EE430E0F9012081422F29813A81B0
:100D4000F901218126952695222F30E0220F331FAD
:100D5000220F331F220F331F242BFC012083898194
:100D60009A81FC018281882F90E082309105E9F020
:100D7000833091052CF4009761F0019779F031C030
:100D80008430910501F184309105B4F0059711F19B
:100D900028C0109281001092800023C081E090E072
:100DA00090938100809380001CC088E090E0909335
:100DB00081008093800015C080E490E090938100D2
:100DC000809380000EC080E091E09093810080933A
:100DD000800007C080E094E09093810080938000C1
:100DE00000008EE490E02EE430E0F9012081287FBD
:100DF000FC0120838EE490E02EE430E0F901408194
:100E000029813A81F9012281242BFC01208373C0BE
:100E100085E490E025E430E0F901408129813A81C0
:100E2000F9012181242BFC01208389819A81FC0115
:100E30008281882F90E0092E000CAA0BBB0B40E0AA
:100E400050E027E030E0841B950B28173907D8F1D4
:100E5000865D9F4FFC010C94AA0A109283001092A9
:100E6000820032C081E090E0909383008093820002
:100E70002BC088E090E0909383008093820024C090
:100E800080E290E090938300809382001DC080E414
:100E900090E0909383008093820016C080E890E0F9
:100EA00090938300809382000FC080E091E0909344
:100EB00083008093820008C080E094E090938300D8
:100EC0008093820001C0000085E490E025E430E0DA
:100ED000F9012081287FFC01208385E490E025E44E
:100EE00030E0F901408129813A81F9012281242BE6
:100EF000FC012083000000000F900F90DF91CF9144
:100F00000895CF93DF9300D01F92CDB7DEB79A83B9
:100F100089836B8389819A81FC018081882F90E08D
:100F20008130910589F082309105C9F0892B09F053
:100F300021C083E590E023E530E0F90130812B8189
:100F4000232BFC01208316C08FE490E02FE430E0D7
:100F5000F90130812B81232BFC0120830BC085E418
:100F600090E025E430E0F90130812B81232BFC0156
:100F70002083000000000F900F900F90DF91CF9121
:100F80000895CF93DF93CDB7DEB727970FB6F894C8
:100F9000DEBF0FBECDBF9A8389836B835D834C8395
:100FA0003F832E838EE490E02EE430E0F90120812F
:100FB0002061FC0120838EE490E02EE430E0F90112
:100FC0002081277FFC0120838FE490E02FE430E034
:100FD000F90120812E7FFC0120838FE490E02FE433
:100FE00030E0F90120812D7FFC01208386E490E030
:100FF0002C813D81FC01318320838B81803219F06B
:101000008B81803341F488E490E02E813F81FC01A4
:10101000318320830DC08B81803819F08B81803C17
:1010200039F48AE490E02E813F81FC0131832083F2
:10103000000027960FB6F894DEBF0FBECDBFDF913C
:10104000CF910895CF93DF9300D0CDB7DEB79A83C9
:10105000898389819A81FC01858186958695882F6F
:1010600090E081709927892B51F08EE290E02EE27A
:1010700030E0F90120812160FC01208309C08EE26B
:1010800090E02EE230E0F90120812E7FFC012083E8
:101090008DE290E029813A81F901408129813A81EC
:1010A000F9012181422B29813A81F9012281422BC8
:1010B00029813A81F9012381422B29813A81F90161
:1010C0002481422B29813A81F90125812370242B27
:1010D0002064FC01208300000F900F90DF91CF91DE
:1010E0000895CF93DF9300D01F92CDB7DEB78983E9
:1010F0007B836A838DE290E0FC018081882F90E001
:1011000080749927892BA1F08FE290E02981FC015E
:10111000208300008EE290E0FC0180818823D4F7D8
:101120008FE290E0FC0120818A819B81FC01208379
:1011300000000F900F900F90DF91CF9108951F92B4
:101140000F9200905F000F9211242F933F934F93C3
:101150005F936F937F938F939F93AF93BF93EF931F
:10116000FF93CF93DF93CDB7DEB78091840090914A
:101170008500FC0109950000DF91CF91FF91EF916F
:10118000BF91AF919F918F917F916F915F914F919F
:101190003F912F910F9000925F000F901F90189534
:1011A0000F931F93CF93DF9300D0CDB7DEB79A8311
:1011B000898389819A8190938B0080938A008AE247
:1011C00090E02AE230E0F9012081277EFC012083B3
:1011D0008AE290E02AE230E0F9012081422F298161
:1011E0003A81F9012581222F30E0220F331F220F8F
:1011F000331F220F331F242BFC01208389819A8106
:10120000FC01828186958695882F90E081709927D0
:10121000892B51F08AE290E02AE230E0F901208146
:101220002460FC01208309C08AE290E02AE230E0D9
:10123000F90120812B7FFC01208380E490E029814B
:101240003A81F9012281222F30E023703327220FC7
:10125000331F422F29813A81F9012381422B2981B1
:101260003A81F9012481242B2068FC01208309E2C2
:1012700010E089819A81FC0180819181CC01A0E0FC
:10128000B0E0880F991FAA1FBB1F880F991FAA1FC4
:10129000BB1F880F991FAA1FBB1F880F991FAA1F6A
:1012A000BB1F9C01AD0180E094E2A4EFB0E0BC0163
:1012B000CD010E94880ADA01C9018150F8018083BA
:1012C00000E410E089819A81FC0180819181CC0148
:1012D000A0E0B0E0880F991FAA1FBB1F880F991FBD
:1012E000AA1FBB1F880F991FAA1FBB1F880F991F1A
:1012F000AA1FBB1F9C01AD0180E094E2A4EFB0E007
:10130000BC01CD010E94880ADA01C9018150882FF1
:1013100090E0892F990F990BF801808300000F90BE
:101320000F90DF91CF911F910F910895CF93DF938D
:101330001F92CDB7DEB7898300008BE290E0FC01FD
:101340008081882F90E080729927892BB1F3898161
:101350000E94B50989838CE290E02981FC012083F9
:1013600000000F90DF91CF910895CF93DF9300D0CD
:10137000CDB7DEB78A83198280918A0090918B0065
:10138000FC018281882F90E08130910581F08230CC
:1013900091051CF4892B39F015C08230910559F064
:1013A000039769F00FC08A818F7189830BC08A818E
:1013B0008F73898307C08A818F77898303C08A816D
:1013C0008983000089810F900F90DF91CF9108955C
:1013D000CF93DF9300D0CDB7DEB79A83898389811D
:1013E0009A8190938900809388008AE290E02AE2B3
:1013F00030E0F90120812068FC01208300000F907B
:101400000F90DF91CF910895CF93DF93CDB7DEB7E3
:1014100004C08CE290E0FC0180818BE290E0FC0152
:101420008081881F8827881F882F90E081709927E6
:10143000892B79F70000DF91CF9108951F920F92C9
:1014400000905F000F9211242F933F934F935F936F
:101450006F937F938F939F93AF93BF93EF93FF937C
:10146000CF93DF931F92CDB7DEB78CE290E0FC0103
:101470008081898320918800309189008981F901D8
:10148000099500000F90DF91CF91FF91EF91BF91EF
:10149000AF919F918F917F916F915F914F913F910C
:1014A0002F910F9000925F000F901F9018951F9240
:1014B0000F9200905F000F9211242F933F934F9350
:1014C0005F936F937F938F939F93AF93BF93EF93AC
:1014D000FF93CF93DF93CDB7DEB7809186009091D5
:1014E0008700FC0109950000DF91CF91FF91EF91FA
:1014F000BF91AF919F918F917F916F915F914F912C
:101500003F912F910F9000925F000F901F901895C0
:10151000A1E21A2EAA1BBB1BFD010DC0AA1FBB1FF7
:10152000EE1FFF1FA217B307E407F50720F0A21B69
:10153000B30BE40BF50B661F771F881F991F1A94D6
:1015400069F760957095809590959B01AC01BD0100
:10155000CF010895EE0FFF1F0590F491E02D09943F
:04156000F894FFCF2D
:10156400300000000000010107033480250300005F
:04157400030001006F
:00000001FF
