S0150000454355335F45786974476174652E7372656385
S11300000C9432000C94960D0C94C70D0C944F0074
S11300100C944F000C944F000C944F000C944F0020
S11300200C944F000C944F000C94F6140C94AD16E1
S11300300C944F000C94E6160C944F000C944F0053
S11300400C944F000C944F000C94F80D0C944F003A
S11300500C944F0084138913901397139E13A513C4
S1130060AC13B31311241FBECFE5D4E0DEBFCDBF64
S113007011E0A0E6B0E0E8EBF0E302C005900D92D9
S1130080AC30B107D9F721E0ACE0B1E001C01D927A
S1130090AB33B207E1F70E948D0D0C945A180C94FF
S11300A00000CF93DF93CDB7DEB76E970FB6F89409
S11300B0DEBF0FBECDBF8E8F1982F1C041E066E076
S11300C082E00E946A1080E090E0A8ECB2E48A83A7
S11300D09B83AC83BD8320E030E04AE755E46A812A
S11300E07B818C819D810E949D17DC01CB018C8BCF
S11300F09D8BAE8BBF8B20E030E040E85FE36C89E2
S11301007D898E899F890E94171788232CF481E0AA
S113011090E0998F888F3FC020E03FEF4FE757E48E
S11301206C897D898E899F890E94981718164CF5D1
S113013020E030E040E251E46A817B818C819D8142
S11301400E949D17DC01CB01BC01CD010E941C174C
S1130150DC01CB01998F888F0FC080E991E09B8FE0
S11301608A8F8A8D9B8D0197F1F79B8F8A8F888D5B
S1130170998D0197998F888F888D998D892B69F72F
S113018014C06C897D898E899F890E941C17DC01AB
S1130190CB01998F888F888D998D9D8F8C8F8C8DB5
S11301A09D8D0197F1F79D8F8C8F40E066E082E092
S11301B00E946A1080E090E0A8ECB2E48E839F83F2
S11301C0A887B98720E030E04AE755E46E817F8153
S11301D0888599850E949D17DC01CB018A879B87BE
S11301E0AC87BD8720E030E040E85FE36A857B852B
S11301F08C859D850E94171788232CF481E090E05C
S11302009F878E873FC020E03FEF4FE757E46A8522
S11302107B858C859D850E94981718164CF520E0E7
S113022030E040E251E46E817F81888599850E94A7
S11302309D17DC01CB01BC01CD010E941C17DC0120
S1130240CB019F878E870FC080E991E0998B888BC3
S1130250888999890197F1F7998B888B8E859F8579
S113026001979F878E878E859F85892B69F714C098
S11302706A857B858C859D850E941C17DC01CB01DA
S11302809F878E878E859F859B8B8A8B8A899B8986
S11302900197F1F79B8B8A8B89818F5F8983998181
S11302A08E8D981708F40ACF00006E960FB6F89456
S11302B0DEBF0FBECDBFDF91CF910895CF93DF9303
S11302C0CDB7DEB72E970FB6F894DEBF0FBECDBF05
S11302D06CE08CE091E00E94B4088CE091E00E9414
S11302E01D096FE770E08CE091E00E94820841E014
S11302F060E08CE091E00E94E90869E870E08CE03D
S113030091E00E94820880E090E0A6E1B3E4898352
S11303109A83AB83BC8320E030E04AE755E46981EB
S11303207A818B819C810E949D17DC01CB018D8396
S11303309E83AF83B88720E030E040E85FE36D81BF
S11303407E818F8198850E94171788232CF481E081
S113035090E09A8789873FC020E03FEF4FE757E45A
S11303606D817E818F8198850E94981718164CF5AF
S113037020E030E040E251E469817A818B819C8104
S11303800E949D17DC01CB01BC01CD010E941C170A
S1130390DC01CB019A8789870FC080E991E09C87B3
S11303A08B878B859C850197F1F79C878B87898543
S11303B09A8501979A87898789859A85892B69F710
S11303C014C06D817E818F8198850E941C17DC0189
S11303D0CB019A87898789859A859E878D878D85A4
S11303E09E850197F1F79E878D8760E08CE091E010
S11303F00E94C90800002E960FB6F894DEBF0FBE07
S1130400CDBFDF91CF910895CF93DF93CDB7DEB702
S113041082E080930C0180E180930D0187E690E0F7
S113042090930F0180930E018CE091E00E944E04A2
S11304300E945E010000DF91CF910895CF93DF9376
S1130440CDB7DEB72F970FB6F894DEBF0FBECDBF82
S11304508F876CE08CE091E00E94B4088CE091E01E
S11304600E941D096FE770E08CE091E00E94820811
S113047041E060E08CE091E00E94E9088F85882FDC
S113048090E0009721F0019709F493C0B9C041E0CE
S113049067E082E00E946A1040E062E083E00E942C
S11304A06A1069E970E08CE091E00E94820880E0C3
S11304B090E0A8E4B3E489839A83AB83BC8320E00F
S11304C030E04AE755E469817A818B819C810E94FE
S11304D09D17DC01CB018D839E83AF83B88720E019
S11304E030E040E85FE36D817E818F8198850E94D2
S11304F0171788232CF481E090E09A8789873FC0FE
S113050020E03FEF4FE757E46D817E818F8198852E
S11305100E94981718164CF520E030E040E251E4B0
S113052069817A818B819C810E949D17DC01CB01BA
S1130530BC01CD010E941C17DC01CB019A8789877D
S11305400FC080E991E09C878B878B859C85019700
S1130550F1F79C878B8789859A8501979A87898784
S113056089859A85892B69F714C06D817E818F8175
S113057098850E941C17DC01CB019A87898789859D
S11305809A859E878D878D859E850197F1F79E8735
S11305908D8740E067E082E00E946A1040E062E0FC
S11305A083E00E946A1060E08CE091E00E94C90838
S11305B027C040E067E082E00E946A1041E062E008
S11305C083E00E946A106BEA70E08CE091E00E9484
S11305D0820883E00E94510040E067E082E00E94CC
S11305E06A1040E062E083E00E946A1060E08CE000
S11305F091E00E94C90886EB90E00E941A16000060
S113060000002F960FB6F894DEBF0FBECDBFDF916A
S1130610CF910895CF93DF93CDB7DEB70E94290E13
S113062041E060E080E00E94610E41E066E082E02B
S11306300E94610E41E067E082E00E94610E41E0A9
S113064062E083E00E94610E0E94451281E690E020
S11306500E9479140E94CB0C0E946A0D88E793E0F3
S11306600E94760D0E940A040E94040286ED90E026
S11306700E941A168FE590E02FE530E0F901208101
S11306802068FC0120830000DF91CF910895CF936F
S1130690DF93CDB7DEB702C00E943A0480916000B8
S11306A08133D1F78FE590E02FE530E0F901208127
S11306B02F77FC0120830E94260400000E94D80C9E
S11306C08130E1F380E3809360000E9493168FE50C
S11306D090E02FE530E0F90120812068FC012083BF
S11306E086EB90E00E941A160000DF91CF910895E6
S11306F0CF93DF9300D000D0CDB7DEB79A83898340
S11307007C836B832B813C8189819A81B9010E940E
S1130710910300000F900F900F900F90DF91CF91F5
S11307200895CF93DF9300D000D0CDB7DEB79A837E
S113073089837C836B8361E080E00E94CD11898191
S11307409A810E94D7038B819C810E94D7030E94C7
S1130750B10300000F900F900F900F90DF91CF9195
S11307600895CF93DF931F92CDB7DEB780E38983DB
S1130770CE010196BC0184E20E94C81489818133B0
S113078019F089818033A1F7898180936000809179
S11307906000813321F480E00E941E0203C081E0E6
S11307A00E941E0200000F90DF91CF910895CF9315
S11307B0DF9300D000D0CDB7DEB79C838B831A8241
S11307C0198215C08981882F90E02B813C81820F8A
S11307D0931FFC012081CE010296BC01822F0E944E
S11307E0C8148A818B3271F789818F5F89838981EB
S11307F0882F90E02B813C81820F931FFC01808124
S1130800882301F700000F900F900F900F90DF9155
S1130810CF910895CF93DF93CDB7DEB783E790E010
S11308200E94611280917600807A682F83E790E0BD
S11308300E94D81380917600877041E0682F83E08E
S11308400E94610E0000DF91CF910895CF93DF9352
S1130850CDB7DEB780917600807A2CEB30E043ECA4
S113086059E0682F83E790E00E9418140000DF919C
S1130870CF910895CF93DF93CDB7DEB78091760003
S1130880807A2DE730E043EC59E0682F83E790E06D
S11308900E9418140000DF91CF910895CF93DF9345
S11308A0CDB7DEB760970FB6F894DEBF0FBECDBFED
S11308B0988B8F878F859889FC0182819381059617
S11308C0FC0120818F859889FC01828193810496A3
S11308D0FC01808141E0622F0E94610E8F8598891E
S11308E0FC01828193810796FC0120818F85988980
S11308F0FC01828193810696FC01808141E0622F94
S11309000E94610E8F859889FC01828193810996EA
S1130910FC0120818F859889FC018281938108964E
S1130920FC01808141E0622F0E94610E8F859889CD
S1130930FC01828193810B96FC0120818F8598892B
S1130940FC01828193810A96FC01808141E0622F3F
S11309500E94610E8F859889FC01828193810396A0
S1130960FC0120818F859889FC0182819381029604
S1130970FC01808141E0622F0E94610E8F8598897D
S1130980FC01828193810196FC0120818F859889E5
S1130990FC0182819381FC01808141E0622F0E94ED
S11309A0610E8F85988962E00E94AF098F859889CE
S11309B068E20E94AF098F85988961E00E94AF09BF
S11309C08F8598896FE00E94AF098F85988960E8C8
S11309D00E94AF0980E090E0A0E0B0E489839A83AC
S11309E0AB83BC8320E030E04AE755E469817A8137
S11309F08B819C810E949D17DC01CB018D839E839A
S1130A00AF83B88720E030E040E85FE36D817E810A
S1130A108F8198850E94171788232CF481E090E039
S1130A209A8789873FC020E03FEF4FE757E46D8105
S1130A307E818F8198850E94981718164CF520E0C6
S1130A4030E040E251E469817A818B819C810E948B
S1130A509D17DC01CB01BC01CD010E941C17DC01F8
S1130A60CB019A8789870FC080E991E09C878B87A7
S1130A708B859C850197F1F79C878B8789859A855F
S1130A8001979A87898789859A85892B69F714C084
S1130A906D817E818F8198850E941C17DC01CB01BA
S1130AA09A87898789859A859E878D878D859E8576
S1130AB00197F1F79E878D87000060960FB6F89432
S1130AC0DEBF0FBECDBFDF91CF910895CF93DF93EB
S1130AD0CDB7DEB7EB970FB6F894DEBF0FBECDBF30
S1130AE09AAF89AF6BAF8BAD82958F70382F317011
S1130AF089AD9AADFC01828193810596FC01208128
S1130B0089AD9AADFC01828193810496FC018081B8
S1130B10432F622F0E946A108BAD82958695877051
S1130B20382F317089AD9AADFC018281938107968B
S1130B30FC01208189AD9AADFC01828193810696E6
S1130B40FC018081432F622F0E946A108BAD829535
S1130B50869586958370382F317089AD9AADFC01E6
S1130B60828193810996FC01208189AD9AADFC01B3
S1130B70828193810896FC018081432F622F0E9419
S1130B806A108BAD382F331F3327331F89AD9AADCD
S1130B90FC01828193810B96FC01208189AD9AAD81
S1130BA0FC01828193810A96FC018081432F622F8C
S1130BB00E946A1089AD9AADFC01828193810396EB
S1130BC0FC01208189AD9AADFC018281938102965A
S1130BD0FC01808141E0622F0E946A1089AD9AADC8
S1130BE0FC01828193810196FC01208189AD9AAD3B
S1130BF0FC0182819381FC01808141E0622F0E948B
S1130C006A1080E090E0A0E8BFE389839A83AB8315
S1130C10BC8320E030E04AE755E469817A818B8126
S1130C209C810E949D17DC01CB018FA798ABA9ABD7
S1130C30BAAB20E030E040E85FE36FA578A989A96A
S1130C409AA90E94171788232CF481E090E09CABAA
S1130C508BAB3FC020E03FEF4FE757E46FA578A987
S1130C6089A99AA90E94981718164CF520E030E03B
S1130C7040E251E469817A818B819C810E949D17B5
S1130C80DC01CB01BC01CD010E941C17DC01CB01AE
S1130C909CAB8BAB0FC080E991E09EAB8DAB8DA973
S1130CA09EA90197F1F79EAB8DAB8BA99CA90197E7
S1130CB09CAB8BAB8BA99CA9892B69F714C06FA53E
S1130CC078A989A99AA90E941C17DC01CB019CABC5
S1130CD08BAB8BA99CA998AF8FAB8FA998AD0197CB
S1130CE0F1F798AF8FAB89AD9AADFC018281938106
S1130CF00196FC01208189AD9AADFC01828193812A
S1130D00FC01808140E0622F0E946A1080E090E044
S1130D10A0E8BFE38D839E83AF83B88720E030E0F3
S1130D204AE755E46D817E818F8198850E949D17E5
S1130D30DC01CB018DA39EA3AFA3B8A720E030E0D4
S1130D4040E85FE36DA17EA18FA198A50E941717CB
S1130D5088232CF481E090E09AA789A73FC020E083
S1130D603FEF4FE757E46DA17EA18FA198A50E94A4
S1130D70981718164CF520E030E040E251E46D81FC
S1130D807E818F8198850E949D17DC01CB01BC0177
S1130D90CD010E941C17DC01CB019AA789A70FC0C3
S1130DA080E991E09CA78BA78BA59CA50197F1F7FF
S1130DB09CA78BA789A59AA501979AA789A789A516
S1130DC09AA5892B69F714C06DA17EA18FA198A55E
S1130DD00E941C17DC01CB019AA789A789A59AA5B3
S1130DE09EA78DA78DA59EA50197F1F79EA78DA718
S1130DF08BAD382F317089AD9AADFC01828193811E
S1130E000596FC01208189AD9AADFC018281938114
S1130E100496FC018081432F622F0E946A108BADDF
S1130E208695382F317089AD9AADFC01828193810A
S1130E300796FC01208189AD9AADFC0182819381E2
S1130E400696FC018081432F622F0E946A108BADAD
S1130E5086958695382F317089AD9AADFC018281D3
S1130E6093810996FC01208189AD9AADFC018281B0
S1130E7093810896FC018081432F622F0E946A109F
S1130E808BAD869586958695382F317089AD9AAD50
S1130E90FC01828193810B96FC01208189AD9AAD7E
S1130EA0FC01828193810A96FC018081432F622F89
S1130EB00E946A1089AD9AADFC01828193810396E8
S1130EC0FC01208189AD9AADFC0182819381029657
S1130ED0FC01808141E0622F0E946A1089AD9AADC5
S1130EE0FC01828193810196FC01208189AD9AAD38
S1130EF0FC0182819381FC01808141E0622F0E9488
S1130F006A1080E090E0A0E8BFE389879A87AB8706
S1130F10BC8720E030E04AE755E469857A858B8513
S1130F209C850E949D17DC01CB018B8F9C8FAD8F1C
S1130F30BE8F20E030E040E85FE36B8D7C8D8D8DCB
S1130F409E8D0E94171788232CF481E090E098A3CB
S1130F508F8F3FC020E03FEF4FE757E46B8D7C8DD0
S1130F608D8D9E8D0E94981718164CF520E030E068
S1130F7040E251E469857A858B859C850E949D17A2
S1130F80DC01CB01BC01CD010E941C17DC01CB01AB
S1130F9098A38F8F0FC080E991E09AA389A389A1B8
S1130FA09AA10197F1F79AA389A38F8D98A101972C
S1130FB098A38F8F8F8D98A1892B69F714C06B8D9F
S1130FC07C8D8D8D9E8D0E941C17DC01CB0198A316
S1130FD08F8F8F8D98A19CA38BA38BA19CA101972C
S1130FE0F1F79CA38BA389AD9AADFC018281938117
S1130FF00196FC01208189AD9AADFC018281938127
S1131000FC01808140E0622F0E946A1080E090E041
S1131010A0E8BFE38D879E87AF87B88B20E030E0E0
S11310204AE755E46D857E858F8598890E949D17D2
S1131030DC01CB01898B9A8BAB8BBC8B20E030E03D
S113104040E85FE369897A898B899C890E94171734
S113105088232CF481E090E09E8B8D8B3FC020E0B0
S11310603FEF4FE757E469897A898B899C890E940D
S1131070981718164CF520E030E040E251E46D85F5
S11310807E858F8598890E949D17DC01CB01BC0168
S1131090CD010E941C17DC01CB019E8B8D8B0FC0F0
S11310A080E991E0988F8F8B8F89988D0197F1F764
S11310B0988F8F8B8D899E8901979E8B8D8B8D89BF
S11310C09E89892B69F714C069897A898B899C89DF
S11310D00E941C17DC01CB019E8B8D8B8D899E8910
S11310E09A8F898F898D9A8D0197F1F79A8F898FBD
S11310F00000EB960FB6F894DEBF0FBECDBFDF91B4
S1131100CF910895CF93DF9300D000D01F92CDB735
S1131110DEB79B838A837D836C83198211C08981A6
S1131120882F90E02C813D81820F931FFC01208148
S11311308A819B81622F0E94660589818F5F8983E2
S11311408981882F90E02C813D81820F931FFC01BF
S11311508081882321F700000F900F900F900F904B
S11311600F90DF91CF910895CF93DF9300D01F921A
S1131170CDB7DEB79A8389836B8389819A816B812A
S11311800E94AF0900000F900F900F90DF91CF9154
S11311900895CF93DF9300D01F92CDB7DEB79A8323
S11311A089836B838B81882F90E0892B31F489812B
S11311B09A8168E00E94AF0905C089819A816CE038
S11311C00E94AF0900000F900F900F90DF91CF9114
S11311D00895CF93DF9300D000D01F92CDB7DEB730
S11311E09B838A836C834D8319828A819B81FC0152
S11311F090818D818917C0F48A819B81FC01918142
S11312008C81891788F48D81982F9295990F990F65
S1131210907C8C81890F89838981806889838A8104
S11312209B8169810E94AF0900000F900F900F907D
S11312300F900F90DF91CF910895CF93DF93CDB7A7
S1131240DEB760970FB6F894DEBF0FBECDBF988BA4
S11312508F878F85988961E00E94AF0980E090E0D4
S1131260A0E8BFE389839A83AB83BC8320E030E0AA
S11312704AE755E469817A818B819C810E949D179C
S1131280DC01CB018D839E83AF83B88720E030E0FF
S113129040E85FE36D817E818F8198850E941717F6
S11312A088232CF481E090E09A8789873FC020E06E
S11312B03FEF4FE757E46D817E818F8198850E94CF
S11312C0981718164CF520E030E040E251E46981AB
S11312D07A818B819C810E949D17DC01CB01BC012A
S11312E0CD010E941C17DC01CB019A8789870FC0AE
S11312F080E991E09C878B878B859C850197F1F72A
S11313009C878B8789859A8501979A8789878985A0
S11313109A85892B69F714C06D817E818F819885A8
S11313200E941C17DC01CB019A87898789859A85DD
S11313309E878D878D859E850197F1F79E878D8782
S11313408F85988960E80E94AF09000060960FB607
S1131350F894DEBF0FBECDBFDF91CF910895CF9338
S1131360DF93CDB7DEB7EB970FB6F894DEBF0FBEB1
S1131370CDBF9AAF89AF6BAF8BAD82958F70382F8D
S1131380317089AD9AADFC01828193810596FC018F
S1131390208189AD9AADFC01828193810496FC0180
S11313A08081432F622F0E946A108BAD82958695AF
S11313B08770382F317089AD9AADFC018281938199
S11313C00796FC01208189AD9AADFC01828193814D
S11313D00696FC018081432F622F0E946A108BAD18
S11313E08295869586958370382F317089AD9AAD34
S11313F0FC01828193810996FC01208189AD9AAD1B
S1131400FC01828193810896FC018081432F622F25
S11314100E946A108BAD382F331F3327331F89ADD9
S11314209AADFC01828193810B96FC01208189ADE8
S11314309AADFC01828193810A96FC018081432F3D
S1131440622F0E946A1089AD9AADFC01828193815A
S11314500396FC01208189AD9AADFC0182819381C0
S11314600296FC01808140E0622F0E946A1089ADDF
S11314709AADFC01828193810196FC01208189ADA2
S11314809AADFC0182819381FC01808141E0622F4D
S11314900E946A1080E090E0A0E8BFE389839A8309
S11314A0AB83BC8320E030E04AE755E469817A816C
S11314B08B819C810E949D17DC01CB018FA798AB87
S11314C0A9ABBAAB20E030E040E85FE36FA578A9B0
S11314D089A99AA90E94171788232CF481E090E027
S11314E09CAB8BAB3FC020E03FEF4FE757E46FA5C9
S11314F078A989A99AA90E94981718164CF520E092
S113150030E040E251E469817A818B819C810E94C0
S11315109D17DC01CB01BC01CD010E941C17DC012D
S1131520CB019CAB8BAB0FC080E991E09EAB8DAB44
S11315308DA99EA90197F1F79EAB8DAB8BA99CA9B0
S113154001979CAB8BAB8BA99CA9892B69F714C021
S11315506FA578A989A99AA90E941C17DC01CB015F
S11315609CAB8BAB8BA99CA998AF8FAB8FA998AD83
S11315700197F1F798AF8FAB89AD9AADFC018281E9
S113158093810196FC01208189AD9AADFC01828191
S11315909381FC01808140E0622F0E946A1080E008
S11315A090E0A0E8BFE38D839E83AF83B88720E0FB
S11315B030E04AE755E46D817E818F8198850E94F1
S11315C09D17DC01CB018DA39EA3AFA3B8A720E098
S11315D030E040E85FE36DA17EA18FA198A50E9451
S11315E0171788232CF481E090E09AA789A73FC0BD
S11315F020E03FEF4FE757E46DA17EA18FA198A5AE
S11316000E94981718164CF520E030E040E251E4AF
S11316106D817E818F8198850E949D17DC01CB01AD
S1131620BC01CD010E941C17DC01CB019AA789A73C
S11316300FC080E991E09CA78BA78BA59CA501977F
S1131640F1F79CA78BA789A59AA501979AA789A7C3
S113165089A59AA5892B69F714C06DA17EA18FA1D4
S113166098A50E941C17DC01CB019AA789A789A51C
S11316709AA59EA78DA78DA59EA50197F1F79EA774
S11316808DA78BAD382F317089AD9AADFC01828165
S113169093810596FC01208189AD9AADFC0182817C
S11316A093810496FC018081432F622F0E946A106B
S11316B08BAD8695382F317089AD9AADFC0182814E
S11316C093810796FC01208189AD9AADFC0182814A
S11316D093810696FC018081432F622F0E946A1039
S11316E08BAD86958695382F317089AD9AADFC0106
S11316F0828193810996FC01208189AD9AADFC0118
S1131700828193810896FC018081432F622F0E947D
S11317106A108BAD869586958695382F317089AD84
S11317209AADFC01828193810B96FC01208189ADE5
S11317309AADFC01828193810A96FC018081432F3A
S1131740622F0E946A1089AD9AADFC018281938157
S11317500396FC01208189AD9AADFC0182819381BD
S11317600296FC01808140E0622F0E946A1089ADDC
S11317709AADFC01828193810196FC01208189AD9F
S11317809AADFC0182819381FC01808141E0622F4A
S11317900E946A1080E090E0A0E8BFE389879A87FE
S11317A0AB87BC8720E030E04AE755E469857A8559
S11317B08B859C850E949D17DC01CB018B8F9C8FB0
S11317C0AD8FBE8F20E030E040E85FE36B8D7C8D11
S11317D08D8D9E8D0E94171788232CF481E090E054
S11317E098A38F8F3FC020E03FEF4FE757E46B8D06
S11317F07C8D8D8D9E8D0E94981718164CF520E0D7
S113180030E040E251E469857A858B859C850E94AD
S11318109D17DC01CB01BC01CD010E941C17DC012A
S1131820CB0198A38F8F0FC080E991E09AA389A37D
S113183089A19AA10197F1F79AA389A38F8D98A101
S1131840019798A38F8F8F8D98A1892B69F714C066
S11318506B8D7C8D8D8D9E8D0E941C17DC01CB01C0
S113186098A38F8F8F8D98A19CA38BA38BA19CA1F0
S11318700197F1F79CA38BA389AD9AADFC018281FA
S113188093810196FC01208189AD9AADFC0182818E
S11318909381FC01808140E0622F0E946A1080E005
S11318A090E0A0E8BFE38D879E87AF87B88B20E0E8
S11318B030E04AE755E46D857E858F8598890E94DE
S11318C09D17DC01CB01898B9A8BAB8BBC8B20E001
S11318D030E040E85FE369897A898B899C890E94BA
S11318E0171788232CF481E090E09E8B8D8B3FC0EA
S11318F020E03FEF4FE757E469897A898B899C8917
S11319000E94981718164CF520E030E040E251E4AC
S11319106D857E858F8598890E949D17DC01CB019A
S1131920BC01CD010E941C17DC01CB019E8B8D8B69
S11319300FC080E991E0988F8F8B8F89988D0197E4
S1131940F1F7988F8F8B8D899E8901979E8B8D8B54
S11319508D899E89892B69F714C069897A898B8955
S11319609C890E941C17DC01CB019E8B8D8B8D8979
S11319709E899A8F898F898D9A8D0197F1F79A8F15
S1131980898F0000EB960FB6F894DEBF0FBECDBF73
S1131990DF91CF910895CF93DF93CDB7DEB740E0C9
S11319A063E080E00E94610E0000DF91CF91089512
S11319B0CF93DF931F92CDB7DEB7198263E080E047
S11319C00E946311898389810F90DF91CF910895DB
S11319D0CF93DF9300D0CDB7DEB78A8380917E00AA
S11319E0882311F580911301882F90E08D5C9E4F20
S11319F0FC01108280911201882F90E0885D9E4F37
S1131A00FC011082109213011092120181E0809364
S1131A107E00209110013091110163E371E088E2AE
S1131A2091E0F901099550C019828A8189838981DD
S1131A308033C8F089818A33B0F4809113018730F0
S1131A40D1F180911301882F90E08D5C9E4F298104
S1131A50FC01208389810E94ED15809113018F5F21
S1131A608093130128C08981813618F089818B37CE
S1131A7030F089818134C8F089818B35B0F480914C
S1131A8012018A30C1F080911201882F90E0885DA4
S1131A909E4F2981FC01208389810E94ED1580914C
S1131AA012018F5F8093120106C08DE00E94ED1534
S1131AB08AE00E94ED1580911301873029F4898111
S1131AC08D3011F410927E0000000F900F90DF9182
S1131AD0CF910895CF93DF93CDB7DEB787E790E03A
S1131AE00E9427150000DF91CF910895CF93DF93D3
S1131AF000D0CDB7DEB79A83898388EE9CE00E943C
S1131B00771689819A8190931101809310010000C6
S1131B100F900F90DF91CF910895CF93DF93CDB7BE
S1131B20DEB70E940A030E944703FDCF1F920F9263
S1131B3000905F000F9211242F933F934F935F9374
S1131B406F937F938F939F93AF93BF93EF93FF9381
S1131B50CF93DF93CDB7DEB7809114019091150137
S1131B60FC0109950000DF91CF91FF91EF91BF91A6
S1131B70AF919F918F917F916F915F914F913F9121
S1131B802F910F9000925F000F901F9018951F9255
S1131B900F9200905F000F9211242F933F934F9365
S1131BA05F936F937F938F939F93AF93BF93EF93C1
S1131BB0FF93CF93DF93CDB7DEB780911601909159
S1131BC01701FC0109950000DF91CF91FF91EF917E
S1131BD0BF91AF919F918F917F916F915F914F9141
S1131BE03F912F910F9000925F000F901F901895D6
S1131BF01F920F9200905F000F9211242F933F9336
S1131C004F935F936F937F938F939F93AF93BF9300
S1131C10EF93FF93CF93DF93CDB7DEB78091180195
S1131C2090911901FC0109950000DF91CF91FF917A
S1131C30EF91BF91AF919F918F917F916F915F9140
S1131C404F913F912F910F9000925F000F901F9042
S1131C501895CF93DF93CDB7DEB78BE390E0FC010B
S1131C6010828AE390E0FC01108289E390E0FC0199
S1131C70108288E390E0FC01108287E390E0FC018D
S1131C80108286E390E0FC01108285E390E0FC0181
S1131C90108284E390E0FC01108283E390E0FC0175
S1131CA0108282E390E0FC01108281E390E0FC0169
S1131CB0108280E390E0FC0110820000DF91CF915C
S1131CC00895CF93DF9300D01F92CDB7DEB78983F9
S1131CD06A834B838A81883008F0F5C18981882F13
S1131CE090E08130910509F486C0823091051CF49E
S1131CF0892B49F0E8C18230910509F4F4C00397B7
S1131D0009F469C1E0C18B81882F90E0813091058D
S1131D1009F45BC08230910571F1892B09F06AC026
S1131D208AE390E02AE330E0F9012081622F2A81DE
S1131D30422F50E021E030E002C0220F331F4A95C9
S1131D40E2F720952623FC0120838BE390E02BE32C
S1131D5030E0F9012081622F2A81422F50E021E0F6
S1131D6030E002C0220F331F4A95E2F72095262364
S1131D70FC0120833FC08AE390E02AE330E0F901CC
S1131D802081622F2A81422F50E021E030E002C0FE
S1131D90220F331F4A95E2F720952623FC01208366
S1131DA08BE390E02BE330E0F9012081622F2A815C
S1131DB0422F50E021E030E002C0220F331F4A9549
S1131DC0E2F7262BFC01208315C08AE390E02AE386
S1131DD030E0F9012081622F2A81422F50E021E076
S1131DE030E002C0220F331F4A95E2F7262BFC0194
S1131DF02083000068C18B81882F90E08130910599
S1131E0009F45BC08230910571F1892B09F06AC035
S1131E1087E390E027E330E0F9012081622F2A81F3
S1131E20422F50E021E030E002C0220F331F4A95D8
S1131E30E2F720952623FC01208388E390E028E341
S1131E4030E0F9012081622F2A81422F50E021E005
S1131E5030E002C0220F331F4A95E2F72095262373
S1131E60FC0120833FC087E390E027E330E0F901E1
S1131E702081622F2A81422F50E021E030E002C00D
S1131E80220F331F4A95E2F720952623FC01208375
S1131E9088E390E028E330E0F9012081622F2A8171
S1131EA0422F50E021E030E002C0220F331F4A9558
S1131EB0E2F7262BFC01208315C087E390E027E39B
S1131EC030E0F9012081622F2A81422F50E021E085
S1131ED030E002C0220F331F4A95E2F7262BFC01A3
S1131EE020830000F0C08B81882F90E08130910521
S1131EF009F45BC08230910571F1892B09F06AC045
S1131F0084E390E024E330E0F9012081622F2A8108
S1131F10422F50E021E030E002C0220F331F4A95E7
S1131F20E2F720952623FC01208385E390E025E356
S1131F3030E0F9012081622F2A81422F50E021E014
S1131F4030E002C0220F331F4A95E2F72095262382
S1131F50FC0120833FC084E390E024E330E0F901F6
S1131F602081622F2A81422F50E021E030E002C01C
S1131F70220F331F4A95E2F720952623FC01208384
S1131F8085E390E025E330E0F9012081622F2A8186
S1131F90422F50E021E030E002C0220F331F4A9567
S1131FA0E2F7262BFC01208315C084E390E024E3B0
S1131FB030E0F9012081622F2A81422F50E021E094
S1131FC030E002C0220F331F4A95E2F7262BFC01B2
S1131FD02083000078C08B81882F90E081309105A8
S1131FE009F45BC08230910571F1892B09F06AC054
S1131FF081E390E021E330E0F9012081622F2A811E
S1132000422F50E021E030E002C0220F331F4A95F6
S1132010E2F720952623FC01208382E390E022E36B
S113202030E0F9012081622F2A81422F50E021E023
S113203030E002C0220F331F4A95E2F72095262391
S1132040FC0120833FC081E390E021E330E0F9010B
S11320502081622F2A81422F50E021E030E002C02B
S1132060220F331F4A95E2F720952623FC01208393
S113207082E390E022E330E0F9012081622F2A819B
S1132080422F50E021E030E002C0220F331F4A9576
S1132090E2F7262BFC01208315C081E390E021E3C5
S11320A030E0F9012081622F2A81422F50E021E0A3
S11320B030E002C0220F331F4A95E2F7262BFC01C1
S11320C020830000000000000F900F900F90DF911C
S11320D0CF910895CF93DF9300D01F92CDB7DEB791
S11320E089836A834B838A81883008F0E5C08981BB
S11320F0882F90E08130910509F442C08230910527
S11321001CF4892B49F0D8C08230910509F46CC0C5
S1132110039709F49DC0D0C08B81882F90E000976D
S1132120C1F0019709F02BC08BE390E02BE330E082
S1132130F9012081622F2A81422F50E021E030E012
S113214002C0220F331F4A95E2F7262BFC0120839D
S113215016C08BE390E02BE330E0F9012081622F7D
S11321602A81422F50E021E030E002C0220F331FC9
S11321704A95E2F720952623FC01208300009CC0A9
S11321808B81882F90E00097C1F0019709F02BC054
S113219088E390E028E330E0F9012081622F2A816E
S11321A0422F50E021E030E002C0220F331F4A9555
S11321B0E2F7262BFC01208316C088E390E028E395
S11321C030E0F9012081622F2A81422F50E021E082
S11321D030E002C0220F331F4A95E2F720952623F0
S11321E0FC012083000068C08B81882F90E0009759
S11321F0C1F0019709F02BC085E390E025E330E0BE
S1132200F9012081622F2A81422F50E021E030E041
S113221002C0220F331F4A95E2F7262BFC012083CC
S113222016C085E390E025E330E0F9012081622FB8
S11322302A81422F50E021E030E002C0220F331FF8
S11322404A95E2F720952623FC012083000034C040
S11322508B81882F90E00097C1F0019709F02BC083
S113226082E390E022E330E0F9012081622F2A81A9
S1132270422F50E021E030E002C0220F331F4A9584
S1132280E2F7262BFC01208316C082E390E022E3D0
S113229030E0F9012081622F2A81422F50E021E0B1
S11322A030E002C0220F331F4A95E2F7209526231F
S11322B0FC0120830000000000000F900F900F909D
S11322C0DF91CF910895CF93DF9300D01F92CDB7C4
S11322D0DEB78A836B8319828B81883008F056C0FD
S11322E08A81882F90E081309105E9F08230910550
S11322F01CF4892B39F04AC08230910529F10397E7
S1132300A1F144C089E390E0FC018081882F90E032
S11323102B81222F30E002C0959587952A95E2F70C
S11323208170898333C086E390E0FC018081882F2B
S113233090E02B81222F30E002C0959587952A9555
S1132340E2F78170898322C083E390E0FC018081FD
S1132350882F90E02B81222F30E002C0959587953D
S11323602A95E2F78170898311C080E390E0FC0133
S11323708081882F90E02B81222F30E002C0959538
S113238087952A95E2F781708983000089810F90EF
S11323900F900F90DF91CF910895CF93DF9300D0EA
S11323A0CDB7DEB789836A838A81883008F067C035
S11323B08981882F90E08130910511F18230910557
S11323C01CF4892B41F05BC08230910571F10397B5
S11323D009F440C054C08BE390E02BE330E0F901F2
S11323E02081622F2A81422F50E021E030E002C098
S11323F0220F331F4A95E2F72627FC0120833FC0B2
S113240088E390E028E330E0F9012081622F2A81FB
S1132410422F50E021E030E002C0220F331F4A95E2
S1132420E2F72627FC0120832AC085E390E025E318
S113243030E0F9012081622F2A81422F50E021E00F
S113244030E002C0220F331F4A95E2F72627FC0131
S1132450208315C082E390E022E330E0F90120817B
S1132460622F2A81422F50E021E030E002C0220F87
S1132470331F4A95E2F72627FC0120830000000061
S11324800F900F90DF91CF910895CF93DF93CDB745
S1132490DEB740E065E081E00E94610E40E067E065
S11324A081E00E94610E41E066E081E00E94610EDD
S11324B040E064E081E00E94610E0000DF91CF9172
S11324C00895CF93DF9300D0CDB7DEB79A83898385
S11324D089819A81FC018081882F90E08130910567
S11324E009F46DC08230910509F4E9C0892B09F023
S11324F059C183E590E023E530E0F9014081298169
S11325003A81F9012181242BFC01208389819A815C
S1132510FC018281882F90E082309105E9F08330BC
S113252091052CF4009761F0019779F031C0843063
S1132530910501F184309105B4F0059711F128C09B
S113254010921B0110921A0123C081E090E0909335
S11325501B0180931A011CC088E090E090931B013A
S113256080931A0115C080E490E090931B0180933E
S11325701A010EC080E091E090931B0180931A0130
S113258007C080E094E090931B0180931A0100003F
S113259083E590E023E530E0F9012081287FFC0108
S11325A0208383E590E023E530E0F901408129812F
S11325B03A81F9012281242BFC012083F3C08FE4AA
S11325C090E02FE430E0F9012081422F29813A8103
S11325D0F90121812370242BFC0120838EE490E0F7
S11325E02EE430E0F9012081422F29813A81F9015A
S11325F0218126952695222F30E0220F331F220FAA
S1132600331F220F331F242BFC01208389819A81DD
S1132610FC018281882F90E082309105E9F08330BB
S113262091052CF4009761F0019779F031C0843062
S1132630910501F184309105B4F0059711F128C09A
S113264010921D0110921C0123C081E090E0909330
S11326501D0180931C011CC088E090E090931D0133
S113266080931C0115C080E490E090931D01809339
S11326701C010EC080E091E090931D0180931C0129
S113268007C080E094E090931D0180931C0100003A
S11326908EE490E02EE430E0F9012081287FFC01F3
S11326A020838EE490E02EE430E0F901408129811A
S11326B03A81F9012281242BFC01208373C085E433
S11326C090E025E430E0F901408129813A81F90163
S11326D02181242BFC01208389819A81FC01828140
S11326E0882F90E0092E000CAA0BBB0B40E050E0B1
S11326F027E030E0841B950B28173907D8F1865D55
S11327009F4FFC010C94541810921F0110921E014B
S113271032C081E090E090931F0180931E012BC092
S113272088E090E090931F0180931E0124C080E212
S113273090E090931F0180931E011DC080E490E0FF
S113274090931F0180931E0116C080E890E090933F
S11327501F0180931E010FC080E091E090931F0140
S113276080931E0108C080E094E090931F01809341
S11327701E0101C0000085E490E025E430E0F90189
S11327802081287FFC01208385E490E025E430E06B
S1132790F901408129813A81F9012281242BFC012C
S11327A02083000000000F900F90DF91CF910895D7
S11327B0CF93DF9300D01F92CDB7DEB79A8389837E
S11327C06B8389819A81FC018081882F90E081301C
S11327D0910589F082309105C9F0892B09F021C057
S11327E083E590E023E530E0F90130812B81232B50
S11327F0FC01208316C08FE490E02FE430E0F9015F
S113280030812B81232BFC0120830BC085E490E0D5
S113281025E430E0F90130812B81232BFC01208356
S1132820000000000F900F900F90DF91CF9108955A
S1132830CF93DF93CDB7DEB727970FB6F894DEBFFB
S11328400FBECDBF9A8389836B835D834C833F83A3
S11328502E838EE490E02EE430E0F90120812061A3
S1132860FC0120838EE490E02EE430E0F901208125
S1132870277FFC0120838FE490E02FE430E0F9010E
S113288020812E7FFC0120838FE490E02FE430E050
S1132890F90120812D7FFC01208386E490E02C81C6
S11328A03D81FC01318320838B81803219F08B813F
S11328B0803341F488E490E02E813F81FC01318330
S11328C020830DC08B81803819F08B81803C39F4D2
S11328D08AE490E02E813F81FC0131832083000053
S11328E027960FB6F894DEBF0FBECDBFDF91CF9110
S11328F00895CF93DF9300D0CDB7DEB79A83898351
S113290089819A81FC01858186958695882F90E03E
S113291081709927892B51F08EE290E02EE230E00D
S1132920F90120812160FC01208309C08EE290E03E
S11329302EE230E0F90120812E7FFC0120838DE21C
S113294090E029813A81F901408129813A81F90194
S11329502181422B29813A81F9012281422B29814B
S11329603A81F9012381422B29813A81F901248199
S1132970422B29813A81F90125812370242B20647B
S1132980FC01208300000F900F90DF91CF910895F8
S1132990CF93DF9300D01F92CDB7DEB789837B83BB
S11329A06A838DE290E0FC018081882F90E080743E
S11329B09927892BA1F08FE290E02981FC012083E3
S11329C000008EE290E0FC0180818823D4F78FE23E
S11329D090E0FC0120818A819B81FC01208300001E
S11329E00F900F900F90DF91CF9108951F920F9247
S11329F000905F000F9211242F933F934F935F93A6
S1132A006F937F938F939F93AF93BF93EF93FF93B2
S1132A10CF93DF93CDB7DEB7809120019091210150
S1132A20FC0109950000DF91CF91FF91EF91BF91D7
S1132A30AF919F918F917F916F915F914F913F9152
S1132A402F910F9000925F000F901F9018950F9395
S1132A501F93CF93DF9300D0CDB7DEB79A838983DA
S1132A6089819A8190932701809326018AE290E0DC
S1132A702AE230E0F9012081277EFC0120838AE2EA
S1132A8090E02AE230E0F9012081422F29813A8145
S1132A90F9012581222F30E0220F331F220F331F2B
S1132AA0220F331F242BFC01208389819A81FC018E
S1132AB0828186958695882F90E081709927892B4D
S1132AC051F08AE290E02AE230E0F90120812460AA
S1132AD0FC01208309C08AE290E02AE230E0F90197
S1132AE020812B7FFC01208380E490E029813A81BE
S1132AF0F9012281222F30E023703327220F331F64
S1132B00422F29813A81F9012381422B29813A817B
S1132B10F9012481242B2068FC01208309E210E0C0
S1132B2089819A81FC0180819181CC01A0E0B0E08F
S1132B30880F991FAA1FBB1F880F991FAA1FBB1FAD
S1132B40880F991FAA1FBB1F880F991FAA1FBB1F9D
S1132B509C01AD0180E094E2A4EFB0E0BC01CD01A2
S1132B600E943218DA01C9018150F801808300E41F
S1132B7010E089819A81FC0180819181CC01A0E0DF
S1132B80B0E0880F991FAA1FBB1F880F991FAA1FA7
S1132B90BB1F880F991FAA1FBB1F880F991FAA1F4D
S1132BA0BB1F9C01AD0180E094E2A4EFB0E0BC0146
S1132BB0CD010E943218DA01C9018150882F90E0BA
S1132BC0892F990F990BF801808300000F900F90C3
S1132BD0DF91CF911F910F910895CF93DF931F92AF
S1132BE0CDB7DEB7898300008BE290E0FC018081E1
S1132BF0882F90E080729927892BB1F389810E94F4
S1132C00441689838CE290E02981FC012083000032
S1132C100F90DF91CF910895CF93DF931F92CDB79B
S1132C20DEB7898389810E94ED1500000F90DF9142
S1132C30CF910895CF93DF9300D01F92CDB7DEB725
S1132C409B838A8319820EC08981882F90E02A8110
S1132C503B81820F931FFC0180810E940C168981A5
S1132C608F5F89838981882F90E02A813B81820F3D
S1132C70931FFC018081882339F700000F900F9087
S1132C800F90DF91CF910895CF93DF9300D0CDB70C
S1132C90DEB78A8319828091260190912701FC0175
S1132CA08281882F90E08130910581F082309105F6
S1132CB01CF4892B39F015C08230910559F0039723
S1132CC069F00FC08A818F7189830BC08A818F73E9
S1132CD0898307C08A818F77898303C08A81898326
S1132CE0000089810F900F90DF91CF910895CF93C9
S1132CF0DF9300D0CDB7DEB79A83898389819A8127
S1132D0090932501809324018AE290E02AE230E046
S1132D10F90120812068FC01208300000F900F90AE
S1132D20DF91CF910895CF93DF93CDB7DEB704C081
S1132D308CE290E0FC0180818BE290E0FC018081D8
S1132D40881F8827881F882F90E081709927892BF6
S1132D5079F70000DF91CF9108951F920F920090B0
S1132D605F000F9211242F933F934F935F936F93C0
S1132D707F938F939F93AF93BF93EF93FF93CF93DF
S1132D80DF931F92CDB7DEB78CE290E0FC01808127
S1132D90898320912401309125018981F9010995C4
S1132DA000000F90DF91CF91FF91EF91BF91AF9110
S1132DB09F918F917F916F915F914F913F912F914F
S1132DC00F9000925F000F901F9018951F920F9222
S1132DD000905F000F9211242F933F934F935F93C2
S1132DE06F937F938F939F93AF93BF93EF93FF93CF
S1132DF0CF93DF93CDB7DEB7809122019091230169
S1132E00FC0109950000DF91CF91FF91EF91BF91F3
S1132E10AF919F918F917F916F915F914F913F916E
S1132E202F910F9000925F000F901F9018950E94B1
S1132E304B1708F481E008950E94771788F09F5794
S1132E4098F0B92F9927B751B0F0E1F0660F771FCA
S1132E50881F991F1AF0BA95C9F714C0B13091F0C0
S1132E600E949117B1E008950C949117672F782F61
S1132E708827B85F39F0B93FCCF386957795679585
S1132E80B395D9F73EF490958095709561957F4FF1
S1132E908F4F9F4F0895990F0008550FAA0BE0E834
S1132EA0FEEF16161706E807F907C0F01216130608
S1132EB0E407F50798F0621B730B840B950B39F448
S1132EC00A2661F0232B242B252B21F408950A26AE
S1132ED009F4A140A6958FEF811D811D089557FD2A
S1132EE09058440F551F59F05F3F71F04795880F74
S1132EF097FB991F61F09F3F79F08795089512160B
S1132F0013061406551FF2CF4695F1DF08C01616B6
S1132F1017061806991FF1CF869571056105089467
S1132F200895E894BB2766277727CB0197F908957E
S1132F300E944B1708F48FEF08950E94B0170C9469
S1132F4021180E94131838F00E941A1820F09523B3
S1132F5011F00C940A180C94101811240C94921764
S1132F600E946F1770F3959FC1F3950F50E0551FA2
S1132F70629FF001729FBB27F00DB11D639FAA27CA
S1132F80F00DB11DAA1F649F6627B00DA11D661F19
S1132F90829F2227B00DA11D621F739FB00DA11D3A
S1132FA0621F839FA00D611D221F749F3327A00DF4
S1132FB0611D231F849F600D211D822F762F6A2F90
S1132FC011249F5750409AF0F1F088234AF0EE0FF5
S1132FD0FF1FBB1F661F771F881F91505040A9F722
S1132FE09E3F510580F00C940A180C9492175F3F91
S1132FF0E4F3983ED4F3869577956795B795F7955E
S1133000E7959F5FC1F7FE2B880F911D96958795D5
S113301097F9089597F99F6780E870E060E0089554
S11330209FEF80EC089500240A94161617061806DC
S11330300906089500240A941216130614060506B8
S11330400895092E0394000C11F4882352F0BB0F49
S113305040F4BF2B11F460FF04C06F5F7F4F8F4FAC
S11330609F4F0895A1E21A2EAA1BBB1BFD010DC0A0
S1133070AA1FBB1FEE1FFF1FA217B307E407F50724
S113308020F0A21BB30BE40BF50B661F771F881F00
S1133090991F1A9469F760957095809590959B0196
S11330A0AC01BD01CF010895EE0FFF1F0590F4910F
S10B30B0E02D0994F894FFCF10
S11330B830000000000001020102000202020302C3
S11330C804020501070334802503000003000145B9
S11330D87869742047617465004C6F7720506F7766
S11330E86572204D6F64652000596F7572204944DC
S11330F82069732056616C69642000496E76616C9E
S11331086964204944000D0A2A2A2A2A2A20454E9D
S113311854455220524649442043415244202A2AC5
S11331282A2A2A0D0A000D0A2A2A2A2A2A20455858
S113313849542047415445202A2A2A2A2A0D0A2A72
S11331482A2A2A2A454E54455220524649442043A5
S10F3158415244202A2A2A2A2A0D0A0087
S9030000FC
